{
  "contractName": "Faucet",
  "abi": [
    {
      "inputs": [
        {
          "internalType": "address",
          "name": "_tokenInstance",
          "type": "address"
        }
      ],
      "stateMutability": "nonpayable",
      "type": "constructor"
    },
    {
      "anonymous": false,
      "inputs": [
        {
          "indexed": true,
          "internalType": "address",
          "name": "previousOwner",
          "type": "address"
        },
        {
          "indexed": true,
          "internalType": "address",
          "name": "newOwner",
          "type": "address"
        }
      ],
      "name": "OwnershipTransferred",
      "type": "event"
    },
    {
      "inputs": [],
      "name": "owner",
      "outputs": [
        {
          "internalType": "address",
          "name": "",
          "type": "address"
        }
      ],
      "stateMutability": "view",
      "type": "function"
    },
    {
      "inputs": [],
      "name": "renounceOwnership",
      "outputs": [],
      "stateMutability": "nonpayable",
      "type": "function"
    },
    {
      "inputs": [],
      "name": "tokenAmount",
      "outputs": [
        {
          "internalType": "uint256",
          "name": "",
          "type": "uint256"
        }
      ],
      "stateMutability": "view",
      "type": "function"
    },
    {
      "inputs": [],
      "name": "tokenInstance",
      "outputs": [
        {
          "internalType": "contract ERC20",
          "name": "",
          "type": "address"
        }
      ],
      "stateMutability": "view",
      "type": "function"
    },
    {
      "inputs": [
        {
          "internalType": "address",
          "name": "newOwner",
          "type": "address"
        }
      ],
      "name": "transferOwnership",
      "outputs": [],
      "stateMutability": "nonpayable",
      "type": "function"
    },
    {
      "inputs": [],
      "name": "waitTime",
      "outputs": [
        {
          "internalType": "uint256",
          "name": "",
          "type": "uint256"
        }
      ],
      "stateMutability": "view",
      "type": "function"
    },
    {
      "inputs": [],
      "name": "requestTokens",
      "outputs": [],
      "stateMutability": "nonpayable",
      "type": "function"
    },
    {
      "inputs": [
        {
          "internalType": "address",
          "name": "_address",
          "type": "address"
        }
      ],
      "name": "allowedToWithdraw",
      "outputs": [
        {
          "internalType": "bool",
          "name": "",
          "type": "bool"
        }
      ],
      "stateMutability": "view",
      "type": "function"
    },
    {
      "inputs": [
        {
          "internalType": "uint256",
          "name": "newAmount",
          "type": "uint256"
        }
      ],
      "name": "updateTokenAmount",
      "outputs": [],
      "stateMutability": "nonpayable",
      "type": "function"
    },
    {
      "inputs": [
        {
          "internalType": "uint256",
          "name": "newTime",
          "type": "uint256"
        }
      ],
      "name": "updateDateTimeMinutes",
      "outputs": [],
      "stateMutability": "nonpayable",
      "type": "function"
    },
    {
      "inputs": [],
      "name": "withdraw",
      "outputs": [],
      "stateMutability": "nonpayable",
      "type": "function"
    }
  ],
  "bytecode": "0x6080604052683635c9adc5dea000006001556201518060025534801561002457600080fd5b50604051610751380380610751833981016040819052610043916100d4565b61004c33610084565b6001600160a01b03811661005f57600080fd5b600380546001600160a01b0319166001600160a01b0392909216919091179055610104565b600080546001600160a01b038381166001600160a01b0319831681178455604051919092169283917f8be0079c531659141344cd1fd0a4f28419497f9722a3daafe3b4186f6b6457e09190a35050565b6000602082840312156100e657600080fd5b81516001600160a01b03811681146100fd57600080fd5b9392505050565b61063e806101136000396000f3fe608060405234801561001057600080fd5b50600436106100a95760003560e01c8063658030b311610071578063658030b31461010e578063715018a6146101395780638da5cb5b14610141578063ccca123b14610152578063eec7faa114610169578063f2fde38b1461017257600080fd5b80632d291cad146100ae5780632e6cb19e146100d6578063359cf2b7146100eb5780633ccfd60b146100f357806361a5c4bd146100fb575b600080fd5b6100c16100bc36600461053e565b610185565b60405190151581526020015b60405180910390f35b6100e96100e436600461056e565b6101db565b005b6100e96101f4565b6100e96102f2565b6100e961010936600461056e565b6103fd565b600354610121906001600160a01b031681565b6040516001600160a01b0390911681526020016100cd565b6100e961040a565b6000546001600160a01b0316610121565b61015b60025481565b6040519081526020016100cd565b61015b60015481565b6100e961018036600461053e565b61041e565b6001600160a01b03811660009081526004602052604081205481036101ac57506001919050565b6001600160a01b03821660009081526004602052604090205442106101d357506001919050565b506000919050565b6101e3610494565b6101ee81603c61059d565b60025550565b6101fd33610185565b6102595760405162461bcd60e51b815260206004820152602260248201527f546f6b656e20616c726561647920636c61696d656420666f72207468652064616044820152613c9760f11b60648201526084015b60405180910390fd5b60035460015460405163a9059cbb60e01b815233600482015260248101919091526001600160a01b039091169063a9059cbb906044016020604051808303816000875af11580156102ae573d6000803e3d6000fd5b505050506040513d601f19601f820116820180604052508101906102d291906105ba565b506002546102e090426105dc565b33600090815260046020526040902055565b6102fa610494565b6003546001600160a01b031663a9059cbb61031d6000546001600160a01b031690565b6003546040516370a0823160e01b81523060048201526001600160a01b03909116906370a08231906024016020604051808303816000875af1158015610367573d6000803e3d6000fd5b505050506040513d601f19601f8201168201806040525081019061038b91906105ef565b6040516001600160e01b031960e085901b1681526001600160a01b03909216600483015260248201526044016020604051808303816000875af11580156103d6573d6000803e3d6000fd5b505050506040513d601f19601f820116820180604052508101906103fa91906105ba565b50565b610405610494565b600155565b610412610494565b61041c60006104ee565b565b610426610494565b6001600160a01b03811661048b5760405162461bcd60e51b815260206004820152602660248201527f4f776e61626c653a206e6577206f776e657220697320746865207a65726f206160448201526564647265737360d01b6064820152608401610250565b6103fa816104ee565b6000546001600160a01b0316331461041c5760405162461bcd60e51b815260206004820181905260248201527f4f776e61626c653a2063616c6c6572206973206e6f7420746865206f776e65726044820152606401610250565b600080546001600160a01b038381166001600160a01b0319831681178455604051919092169283917f8be0079c531659141344cd1fd0a4f28419497f9722a3daafe3b4186f6b6457e09190a35050565b60006020828403121561055057600080fd5b81356001600160a01b038116811461056757600080fd5b9392505050565b60006020828403121561058057600080fd5b5035919050565b634e487b7160e01b600052601160045260246000fd5b80820281158282048414176105b4576105b4610587565b92915050565b6000602082840312156105cc57600080fd5b8151801515811461056757600080fd5b808201808211156105b4576105b4610587565b60006020828403121561060157600080fd5b505191905056fea2646970667358221220d360179791f86b318b25a82a00e0b7393f17d7135035f22c0ac902bbce84590464736f6c63430008110033",
  "immutableReferences": {},
  "source": "// SPDX-License-Identifier: MIT\npragma solidity 0.8.17;\n\nimport \"@openzeppelin/contracts/access/Ownable.sol\";\n\ninterface ERC20 {\n    function transfer(address to, uint256 value) external returns (bool);\n    function balanceOf(address owner) external returns (uint256);\n    event Transfer(address indexed from, address indexed to, uint256 value);\n}\n\ncontract Faucet is Ownable {\n    uint256  public tokenAmount = 1000 * 10**18;\n    uint256  public waitTime = 1 days;\n\n    ERC20 public tokenInstance;\n    \n    mapping(address => uint256) lastAccessTime;\n\n    constructor(address _tokenInstance) {\n        require(_tokenInstance != address(0));\n        tokenInstance = ERC20(_tokenInstance);\n    }\n\n    function requestTokens() public {\n        require(allowedToWithdraw(msg.sender), \"Token already claimed for the day.\");\n        tokenInstance.transfer(msg.sender, tokenAmount);\n        lastAccessTime[msg.sender] = block.timestamp + waitTime;\n    }\n\n    function allowedToWithdraw(address _address) public view returns (bool) {\n        if(lastAccessTime[_address] == 0) {\n            return true;\n        } else if(block.timestamp >= lastAccessTime[_address]) {\n            return true;\n        }\n        return false;\n    }\n\n    function updateTokenAmount(uint256 newAmount) public onlyOwner {\n        tokenAmount = newAmount;\n    }\n\n    function updateDateTimeMinutes(uint256 newTime) public onlyOwner {\n        waitTime = newTime * 1 minutes;\n    }\n    \n    function withdraw() public onlyOwner {\n        tokenInstance.transfer(owner(), tokenInstance.balanceOf(address(this)));\n    }\n}",
  "sourcePath": "/Users/shivam/github/contracts-upgradable/contracts/Faucet.sol",
  "compiler": {
    "name": "solc",
    "version": "0.8.17+commit.8df45f5f.Emscripten.clang"
  },
  "schemaVersion": "3.4.7",
  "updatedAt": "2023-11-25T08:17:58.353Z",
  "devdoc": {
    "kind": "dev",
    "methods": {
      "owner()": {
        "details": "Returns the address of the current owner."
      },
      "renounceOwnership()": {
        "details": "Leaves the contract without owner. It will not be possible to call `onlyOwner` functions. Can only be called by the current owner. NOTE: Renouncing ownership will leave the contract without an owner, thereby disabling any functionality that is only available to the owner."
      },
      "transferOwnership(address)": {
        "details": "Transfers ownership of the contract to a new account (`newOwner`). Can only be called by the current owner."
      }
    },
    "version": 1
  },
  "userdoc": {
    "kind": "user",
    "methods": {},
    "version": 1
  }
}