{
  "contractName": "NFTCommentsUpgradeableFLAT",
  "abi": [
    {
      "inputs": [],
      "name": "LowBalance",
      "type": "error"
    },
    {
      "inputs": [],
      "name": "SpendingNotApproved",
      "type": "error"
    },
    {
      "inputs": [],
      "name": "WithdrawError",
      "type": "error"
    },
    {
      "inputs": [],
      "name": "WrongValue",
      "type": "error"
    },
    {
      "anonymous": false,
      "inputs": [
        {
          "indexed": false,
          "internalType": "uint8",
          "name": "version",
          "type": "uint8"
        }
      ],
      "name": "Initialized",
      "type": "event"
    },
    {
      "anonymous": false,
      "inputs": [
        {
          "indexed": true,
          "internalType": "address",
          "name": "collectionAddress",
          "type": "address"
        },
        {
          "indexed": true,
          "internalType": "uint256",
          "name": "tokenId",
          "type": "uint256"
        },
        {
          "indexed": true,
          "internalType": "address",
          "name": "senderAddress",
          "type": "address"
        },
        {
          "indexed": false,
          "internalType": "uint256",
          "name": "timestamp",
          "type": "uint256"
        },
        {
          "indexed": false,
          "internalType": "string",
          "name": "comment",
          "type": "string"
        }
      ],
      "name": "NFTCommentPosted",
      "type": "event"
    },
    {
      "anonymous": false,
      "inputs": [
        {
          "indexed": true,
          "internalType": "address",
          "name": "previousOwner",
          "type": "address"
        },
        {
          "indexed": true,
          "internalType": "address",
          "name": "newOwner",
          "type": "address"
        }
      ],
      "name": "OwnershipTransferred",
      "type": "event"
    },
    {
      "inputs": [],
      "name": "commentFee",
      "outputs": [
        {
          "internalType": "uint256",
          "name": "",
          "type": "uint256"
        }
      ],
      "stateMutability": "view",
      "type": "function"
    },
    {
      "inputs": [],
      "name": "erc20Token",
      "outputs": [
        {
          "internalType": "contract IERC20Upgradeable",
          "name": "",
          "type": "address"
        }
      ],
      "stateMutability": "view",
      "type": "function"
    },
    {
      "inputs": [],
      "name": "owner",
      "outputs": [
        {
          "internalType": "address",
          "name": "",
          "type": "address"
        }
      ],
      "stateMutability": "view",
      "type": "function"
    },
    {
      "inputs": [],
      "name": "renounceOwnership",
      "outputs": [],
      "stateMutability": "nonpayable",
      "type": "function"
    },
    {
      "inputs": [
        {
          "internalType": "address",
          "name": "newOwner",
          "type": "address"
        }
      ],
      "name": "transferOwnership",
      "outputs": [],
      "stateMutability": "nonpayable",
      "type": "function"
    },
    {
      "inputs": [
        {
          "internalType": "address",
          "name": "token",
          "type": "address"
        }
      ],
      "name": "init",
      "outputs": [],
      "stateMutability": "nonpayable",
      "type": "function"
    },
    {
      "inputs": [
        {
          "internalType": "address",
          "name": "nftAddress",
          "type": "address"
        },
        {
          "internalType": "uint256",
          "name": "tokenId",
          "type": "uint256"
        },
        {
          "internalType": "string",
          "name": "contents",
          "type": "string"
        }
      ],
      "name": "addComment_native",
      "outputs": [],
      "stateMutability": "payable",
      "type": "function"
    },
    {
      "inputs": [
        {
          "internalType": "address",
          "name": "nftAddress",
          "type": "address"
        },
        {
          "internalType": "uint256",
          "name": "tokenId",
          "type": "uint256"
        },
        {
          "internalType": "string",
          "name": "contents",
          "type": "string"
        }
      ],
      "name": "addComment_erc20",
      "outputs": [],
      "stateMutability": "nonpayable",
      "type": "function"
    },
    {
      "inputs": [],
      "name": "withdrawFees",
      "outputs": [],
      "stateMutability": "nonpayable",
      "type": "function"
    },
    {
      "inputs": [],
      "name": "withdrawFeesERC20",
      "outputs": [],
      "stateMutability": "nonpayable",
      "type": "function"
    },
    {
      "inputs": [
        {
          "internalType": "address",
          "name": "newToken",
          "type": "address"
        }
      ],
      "name": "changeERC20FeeToken",
      "outputs": [],
      "stateMutability": "nonpayable",
      "type": "function"
    },
    {
      "inputs": [
        {
          "internalType": "uint256",
          "name": "newCommentFee",
          "type": "uint256"
        }
      ],
      "name": "updateFee",
      "outputs": [],
      "stateMutability": "nonpayable",
      "type": "function"
    },
    {
      "inputs": [
        {
          "internalType": "address",
          "name": "nftAddress",
          "type": "address"
        },
        {
          "internalType": "uint256",
          "name": "tokenId",
          "type": "uint256"
        },
        {
          "internalType": "uint256",
          "name": "index",
          "type": "uint256"
        }
      ],
      "name": "getComment",
      "outputs": [
        {
          "internalType": "address",
          "name": "commenter",
          "type": "address"
        },
        {
          "internalType": "uint256",
          "name": "timestamp",
          "type": "uint256"
        },
        {
          "internalType": "string",
          "name": "contents",
          "type": "string"
        }
      ],
      "stateMutability": "view",
      "type": "function"
    },
    {
      "inputs": [
        {
          "internalType": "address",
          "name": "nftAddress",
          "type": "address"
        },
        {
          "internalType": "uint256",
          "name": "tokenId",
          "type": "uint256"
        }
      ],
      "name": "getAllCommentsOf",
      "outputs": [
        {
          "components": [
            {
              "internalType": "address",
              "name": "commenter",
              "type": "address"
            },
            {
              "internalType": "uint256",
              "name": "timestamp",
              "type": "uint256"
            },
            {
              "internalType": "string",
              "name": "contents",
              "type": "string"
            }
          ],
          "internalType": "struct NFTCommentsUpgradeableFLAT.Comment[]",
          "name": "",
          "type": "tuple[]"
        }
      ],
      "stateMutability": "view",
      "type": "function"
    }
  ],
  "bytecode": "0x608060405234801561001057600080fd5b50611217806100206000396000f3fe6080604052600436106100dd5760003560e01c80638a13eea71161007f578063a36c8fee11610059578063a36c8fee14610222578063b40548dd14610242578063bffd85ff14610266578063f2fde38b1461029557600080fd5b80638a13eea7146101ac5780638da5cb5b146101e45780639012c4a81461020257600080fd5b8063476343ee116100bb578063476343ee1461014d5780634d0c814414610162578063715018a614610177578063803889711461018c57600080fd5b806309f284fd146100e257806319ab453c14610118578063260b7f8d1461013a575b600080fd5b3480156100ee57600080fd5b506101026100fd366004610d93565b6102b5565b60405161010f9190610e03565b60405180910390f35b34801561012457600080fd5b50610138610133366004610e8b565b6103e5565b005b610138610148366004610ead565b610523565b34801561015957600080fd5b50610138610665565b34801561016e57600080fd5b506101386106d9565b34801561018357600080fd5b506101386107df565b34801561019857600080fd5b506101386101a7366004610ead565b6107f3565b3480156101b857600080fd5b506065546101cc906001600160a01b031681565b6040516001600160a01b03909116815260200161010f565b3480156101f057600080fd5b506033546001600160a01b03166101cc565b34801561020e57600080fd5b5061013861021d366004610f34565b610ab5565b34801561022e57600080fd5b5061013861023d366004610e8b565b610ac2565b34801561024e57600080fd5b5061025860665481565b60405190815260200161010f565b34801561027257600080fd5b50610286610281366004610f4d565b610aec565b60405161010f93929190610f80565b3480156102a157600080fd5b506101386102b0366004610e8b565b610bf6565b6001600160a01b03821660009081526067602090815260408083208484528252808320805482518185028101850190935280835260609492939192909184015b828210156103d9576000848152602090819020604080516060810182526003860290920180546001600160a01b031683526001810154938301939093526002830180549293929184019161034890610fb0565b80601f016020809104026020016040519081016040528092919081815260200182805461037490610fb0565b80156103c15780601f10610396576101008083540402835291602001916103c1565b820191906000526020600020905b8154815290600101906020018083116103a457829003601f168201915b505050505081525050815260200190600101906102f5565b50505050905092915050565b600054610100900460ff16158080156104055750600054600160ff909116105b8061041f5750303b15801561041f575060005460ff166001145b6104875760405162461bcd60e51b815260206004820152602e60248201527f496e697469616c697a61626c653a20636f6e747261637420697320616c72656160448201526d191e481a5b9a5d1a585b1a5e995960921b60648201526084015b60405180910390fd5b6000805460ff1916600117905580156104aa576000805461ff0019166101001790555b6104b2610c6c565b606580546001600160a01b0319166001600160a01b038416179055670de0b6b3a7640000606655801561051f576000805461ff0019169055604051600181527f7f26b83ff96e1f2b6a682f133852f6798a09c465da95921460cefb38474024989060200160405180910390a15b5050565b606654341461054557604051632635240760e21b815260040160405180910390fd5b6001600160a01b0384166000908152606760209081526040808320868452825291829020825160608101845233815242818401528351601f8601849004840281018401855285815291939092908301919086908690819084018382808284376000920182905250939094525050835460018082018655948252602091829020845160039092020180546001600160a01b0319166001600160a01b039092169190911781559083015193810193909355506040810151909190600282019061060c908261104f565b505050336001600160a01b031683856001600160a01b03167fd113a4bc5279ac7723f5d582d43f46bf820aeb35074f4e4da82ad94f403912d14286866040516106579392919061110f565b60405180910390a450505050565b61066d610c9b565b604051600090339047908381818185875af1925050503d80600081146106af576040519150601f19603f3d011682016040523d82523d6000602084013e6106b4565b606091505b50509050806106d65760405163351dc55d60e21b815260040160405180910390fd5b50565b6106e1610c9b565b6065546001600160a01b031663a9059cbb6107046033546001600160a01b031690565b6065546040516370a0823160e01b81523060048201526001600160a01b03909116906370a0823190602401602060405180830381865afa15801561074c573d6000803e3d6000fd5b505050506040513d601f19601f820116820180604052508101906107709190611145565b6040516001600160e01b031960e085901b1681526001600160a01b03909216600483015260248201526044016020604051808303816000875af11580156107bb573d6000803e3d6000fd5b505050506040513d601f19601f820116820180604052508101906106d6919061115e565b6107e7610c9b565b6107f16000610cf5565b565b6066546065546040516370a0823160e01b81523360048201526001600160a01b03909116906370a0823190602401602060405180830381865afa15801561083e573d6000803e3d6000fd5b505050506040513d601f19601f820116820180604052508101906108629190611145565b10156108815760405163fe382aa760e01b815260040160405180910390fd5b606654606554604051636eb1769f60e11b81523360048201523060248201526001600160a01b039091169063dd62ed3e90604401602060405180830381865afa1580156108d2573d6000803e3d6000fd5b505050506040513d601f19601f820116820180604052508101906108f69190611145565b101561091557604051631aa28d0560e01b815260040160405180910390fd5b6001600160a01b0384166000908152606760209081526040808320868452825291829020825160608101845233815242818401528351601f8601849004840281018401855285815291939092908301919086908690819084018382808284376000920182905250939094525050835460018082018655948252602091829020845160039092020180546001600160a01b0319166001600160a01b03909216919091178155908301519381019390935550604081015190919060028201906109dc908261104f565b505050336001600160a01b031683856001600160a01b03167fd113a4bc5279ac7723f5d582d43f46bf820aeb35074f4e4da82ad94f403912d1428686604051610a279392919061110f565b60405180910390a46065546066546040516323b872dd60e01b815233600482015230602482015260448101919091526001600160a01b03909116906323b872dd906064016020604051808303816000875af1158015610a8a573d6000803e3d6000fd5b505050506040513d601f19601f82011682018060405250810190610aae919061115e565b5050505050565b610abd610c9b565b606655565b610aca610c9b565b606580546001600160a01b0319166001600160a01b0392909216919091179055565b6001600160a01b038316600090815260676020908152604080832085845290915281208054829160609183919086908110610b2957610b29611180565b906000526020600020906003020190508060000160009054906101000a90046001600160a01b0316816001015482600201808054610b6690610fb0565b80601f0160208091040260200160405190810160405280929190818152602001828054610b9290610fb0565b8015610bdf5780601f10610bb457610100808354040283529160200191610bdf565b820191906000526020600020905b815481529060010190602001808311610bc257829003601f168201915b505050505090509350935093505093509350939050565b610bfe610c9b565b6001600160a01b038116610c635760405162461bcd60e51b815260206004820152602660248201527f4f776e61626c653a206e6577206f776e657220697320746865207a65726f206160448201526564647265737360d01b606482015260840161047e565b6106d681610cf5565b600054610100900460ff16610c935760405162461bcd60e51b815260040161047e90611196565b6107f1610d47565b6033546001600160a01b031633146107f15760405162461bcd60e51b815260206004820181905260248201527f4f776e61626c653a2063616c6c6572206973206e6f7420746865206f776e6572604482015260640161047e565b603380546001600160a01b038381166001600160a01b0319831681179093556040519116919082907f8be0079c531659141344cd1fd0a4f28419497f9722a3daafe3b4186f6b6457e090600090a35050565b600054610100900460ff16610d6e5760405162461bcd60e51b815260040161047e90611196565b6107f133610cf5565b80356001600160a01b0381168114610d8e57600080fd5b919050565b60008060408385031215610da657600080fd5b610daf83610d77565b946020939093013593505050565b6000815180845260005b81811015610de357602081850181015186830182015201610dc7565b506000602082860101526020601f19601f83011685010191505092915050565b60006020808301818452808551808352604092508286019150828160051b87010184880160005b83811015610e7d57888303603f19018552815180516001600160a01b0316845287810151888501528601516060878501819052610e6981860183610dbd565b968901969450505090860190600101610e2a565b509098975050505050505050565b600060208284031215610e9d57600080fd5b610ea682610d77565b9392505050565b60008060008060608587031215610ec357600080fd5b610ecc85610d77565b935060208501359250604085013567ffffffffffffffff80821115610ef057600080fd5b818701915087601f830112610f0457600080fd5b813581811115610f1357600080fd5b886020828501011115610f2557600080fd5b95989497505060200194505050565b600060208284031215610f4657600080fd5b5035919050565b600080600060608486031215610f6257600080fd5b610f6b84610d77565b95602085013595506040909401359392505050565b60018060a01b0384168152826020820152606060408201526000610fa76060830184610dbd565b95945050505050565b600181811c90821680610fc457607f821691505b602082108103610fe457634e487b7160e01b600052602260045260246000fd5b50919050565b634e487b7160e01b600052604160045260246000fd5b601f82111561104a57600081815260208120601f850160051c810160208610156110275750805b601f850160051c820191505b8181101561104657828155600101611033565b5050505b505050565b815167ffffffffffffffff81111561106957611069610fea565b61107d816110778454610fb0565b84611000565b602080601f8311600181146110b2576000841561109a5750858301515b600019600386901b1c1916600185901b178555611046565b600085815260208120601f198616915b828110156110e1578886015182559484019460019091019084016110c2565b50858210156110ff5787850151600019600388901b60f8161c191681555b5050505050600190811b01905550565b83815260406020820152816040820152818360608301376000818301606090810191909152601f909201601f1916010192915050565b60006020828403121561115757600080fd5b5051919050565b60006020828403121561117057600080fd5b81518015158114610ea657600080fd5b634e487b7160e01b600052603260045260246000fd5b6020808252602b908201527f496e697469616c697a61626c653a20636f6e7472616374206973206e6f74206960408201526a6e697469616c697a696e6760a81b60608201526080019056fea2646970667358221220f418a2e3f398a56e6ac50feed3835df68adb5f0ff83eb08cbc52ec004707bb0264736f6c63430008110033",
  "immutableReferences": {},
  "source": "// SPDX-License-Identifier: MIT\n// OpenZeppelin Contracts (last updated v4.9.0) (utils/Address.sol)\n\npragma solidity ^0.8.1;\n\n/**\n * @dev Collection of functions related to the address type\n */\nlibrary AddressUpgradeable {\n    /**\n     * @dev Returns true if `account` is a contract.\n     *\n     * [IMPORTANT]\n     * ====\n     * It is unsafe to assume that an address for which this function returns\n     * false is an externally-owned account (EOA) and not a contract.\n     *\n     * Among others, `isContract` will return false for the following\n     * types of addresses:\n     *\n     *  - an externally-owned account\n     *  - a contract in construction\n     *  - an address where a contract will be created\n     *  - an address where a contract lived, but was destroyed\n     *\n     * Furthermore, `isContract` will also return true if the target contract within\n     * the same transaction is already scheduled for destruction by `SELFDESTRUCT`,\n     * which only has an effect at the end of a transaction.\n     * ====\n     *\n     * [IMPORTANT]\n     * ====\n     * You shouldn't rely on `isContract` to protect against flash loan attacks!\n     *\n     * Preventing calls from contracts is highly discouraged. It breaks composability, breaks support for smart wallets\n     * like Gnosis Safe, and does not provide security since it can be circumvented by calling from a contract\n     * constructor.\n     * ====\n     */\n    function isContract(address account) internal view returns (bool) {\n        // This method relies on extcodesize/address.code.length, which returns 0\n        // for contracts in construction, since the code is only stored at the end\n        // of the constructor execution.\n\n        return account.code.length > 0;\n    }\n\n    /**\n     * @dev Replacement for Solidity's `transfer`: sends `amount` wei to\n     * `recipient`, forwarding all available gas and reverting on errors.\n     *\n     * https://eips.ethereum.org/EIPS/eip-1884[EIP1884] increases the gas cost\n     * of certain opcodes, possibly making contracts go over the 2300 gas limit\n     * imposed by `transfer`, making them unable to receive funds via\n     * `transfer`. {sendValue} removes this limitation.\n     *\n     * https://consensys.net/diligence/blog/2019/09/stop-using-soliditys-transfer-now/[Learn more].\n     *\n     * IMPORTANT: because control is transferred to `recipient`, care must be\n     * taken to not create reentrancy vulnerabilities. Consider using\n     * {ReentrancyGuard} or the\n     * https://solidity.readthedocs.io/en/v0.8.0/security-considerations.html#use-the-checks-effects-interactions-pattern[checks-effects-interactions pattern].\n     */\n    function sendValue(address payable recipient, uint256 amount) internal {\n        require(\n            address(this).balance >= amount,\n            \"Address: insufficient balance\"\n        );\n\n        (bool success, ) = recipient.call{value: amount}(\"\");\n        require(\n            success,\n            \"Address: unable to send value, recipient may have reverted\"\n        );\n    }\n\n    /**\n     * @dev Performs a Solidity function call using a low level `call`. A\n     * plain `call` is an unsafe replacement for a function call: use this\n     * function instead.\n     *\n     * If `target` reverts with a revert reason, it is bubbled up by this\n     * function (like regular Solidity function calls).\n     *\n     * Returns the raw returned data. To convert to the expected return value,\n     * use https://solidity.readthedocs.io/en/latest/units-and-global-variables.html?highlight=abi.decode#abi-encoding-and-decoding-functions[`abi.decode`].\n     *\n     * Requirements:\n     *\n     * - `target` must be a contract.\n     * - calling `target` with `data` must not revert.\n     *\n     * _Available since v3.1._\n     */\n    function functionCall(\n        address target,\n        bytes memory data\n    ) internal returns (bytes memory) {\n        return\n            functionCallWithValue(\n                target,\n                data,\n                0,\n                \"Address: low-level call failed\"\n            );\n    }\n\n    /**\n     * @dev Same as {xref-Address-functionCall-address-bytes-}[`functionCall`], but with\n     * `errorMessage` as a fallback revert reason when `target` reverts.\n     *\n     * _Available since v3.1._\n     */\n    function functionCall(\n        address target,\n        bytes memory data,\n        string memory errorMessage\n    ) internal returns (bytes memory) {\n        return functionCallWithValue(target, data, 0, errorMessage);\n    }\n\n    /**\n     * @dev Same as {xref-Address-functionCall-address-bytes-}[`functionCall`],\n     * but also transferring `value` wei to `target`.\n     *\n     * Requirements:\n     *\n     * - the calling contract must have an ETH balance of at least `value`.\n     * - the called Solidity function must be `payable`.\n     *\n     * _Available since v3.1._\n     */\n    function functionCallWithValue(\n        address target,\n        bytes memory data,\n        uint256 value\n    ) internal returns (bytes memory) {\n        return\n            functionCallWithValue(\n                target,\n                data,\n                value,\n                \"Address: low-level call with value failed\"\n            );\n    }\n\n    /**\n     * @dev Same as {xref-Address-functionCallWithValue-address-bytes-uint256-}[`functionCallWithValue`], but\n     * with `errorMessage` as a fallback revert reason when `target` reverts.\n     *\n     * _Available since v3.1._\n     */\n    function functionCallWithValue(\n        address target,\n        bytes memory data,\n        uint256 value,\n        string memory errorMessage\n    ) internal returns (bytes memory) {\n        require(\n            address(this).balance >= value,\n            \"Address: insufficient balance for call\"\n        );\n        (bool success, bytes memory returndata) = target.call{value: value}(\n            data\n        );\n        return\n            verifyCallResultFromTarget(\n                target,\n                success,\n                returndata,\n                errorMessage\n            );\n    }\n\n    /**\n     * @dev Same as {xref-Address-functionCall-address-bytes-}[`functionCall`],\n     * but performing a static call.\n     *\n     * _Available since v3.3._\n     */\n    function functionStaticCall(\n        address target,\n        bytes memory data\n    ) internal view returns (bytes memory) {\n        return\n            functionStaticCall(\n                target,\n                data,\n                \"Address: low-level static call failed\"\n            );\n    }\n\n    /**\n     * @dev Same as {xref-Address-functionCall-address-bytes-string-}[`functionCall`],\n     * but performing a static call.\n     *\n     * _Available since v3.3._\n     */\n    function functionStaticCall(\n        address target,\n        bytes memory data,\n        string memory errorMessage\n    ) internal view returns (bytes memory) {\n        (bool success, bytes memory returndata) = target.staticcall(data);\n        return\n            verifyCallResultFromTarget(\n                target,\n                success,\n                returndata,\n                errorMessage\n            );\n    }\n\n    /**\n     * @dev Same as {xref-Address-functionCall-address-bytes-}[`functionCall`],\n     * but performing a delegate call.\n     *\n     * _Available since v3.4._\n     */\n    function functionDelegateCall(\n        address target,\n        bytes memory data\n    ) internal returns (bytes memory) {\n        return\n            functionDelegateCall(\n                target,\n                data,\n                \"Address: low-level delegate call failed\"\n            );\n    }\n\n    /**\n     * @dev Same as {xref-Address-functionCall-address-bytes-string-}[`functionCall`],\n     * but performing a delegate call.\n     *\n     * _Available since v3.4._\n     */\n    function functionDelegateCall(\n        address target,\n        bytes memory data,\n        string memory errorMessage\n    ) internal returns (bytes memory) {\n        (bool success, bytes memory returndata) = target.delegatecall(data);\n        return\n            verifyCallResultFromTarget(\n                target,\n                success,\n                returndata,\n                errorMessage\n            );\n    }\n\n    /**\n     * @dev Tool to verify that a low level call to smart-contract was successful, and revert (either by bubbling\n     * the revert reason or using the provided one) in case of unsuccessful call or if target was not a contract.\n     *\n     * _Available since v4.8._\n     */\n    function verifyCallResultFromTarget(\n        address target,\n        bool success,\n        bytes memory returndata,\n        string memory errorMessage\n    ) internal view returns (bytes memory) {\n        if (success) {\n            if (returndata.length == 0) {\n                // only check isContract if the call was successful and the return data is empty\n                // otherwise we already know that it was a contract\n                require(isContract(target), \"Address: call to non-contract\");\n            }\n            return returndata;\n        } else {\n            _revert(returndata, errorMessage);\n        }\n    }\n\n    /**\n     * @dev Tool to verify that a low level call was successful, and revert if it wasn't, either by bubbling the\n     * revert reason or using the provided one.\n     *\n     * _Available since v4.3._\n     */\n    function verifyCallResult(\n        bool success,\n        bytes memory returndata,\n        string memory errorMessage\n    ) internal pure returns (bytes memory) {\n        if (success) {\n            return returndata;\n        } else {\n            _revert(returndata, errorMessage);\n        }\n    }\n\n    function _revert(\n        bytes memory returndata,\n        string memory errorMessage\n    ) private pure {\n        // Look for revert reason and bubble it up if present\n        if (returndata.length > 0) {\n            // The easiest way to bubble the revert reason is using memory via assembly\n            /// @solidity memory-safe-assembly\n            assembly {\n                let returndata_size := mload(returndata)\n                revert(add(32, returndata), returndata_size)\n            }\n        } else {\n            revert(errorMessage);\n        }\n    }\n}\n\n/**\n * @dev This is a base contract to aid in writing upgradeable contracts, or any kind of contract that will be deployed\n * behind a proxy. Since proxied contracts do not make use of a constructor, it's common to move constructor logic to an\n * external initializer function, usually called `initialize`. It then becomes necessary to protect this initializer\n * function so it can only be called once. The {initializer} modifier provided by this contract will have this effect.\n *\n * The initialization functions use a version number. Once a version number is used, it is consumed and cannot be\n * reused. This mechanism prevents re-execution of each \"step\" but allows the creation of new initialization steps in\n * case an upgrade adds a module that needs to be initialized.\n *\n * For example:\n *\n * [.hljs-theme-light.nopadding]\n * ```solidity\n * contract MyToken is ERC20Upgradeable {\n *     function initialize() initializer public {\n *         __ERC20_init(\"MyToken\", \"MTK\");\n *     }\n * }\n *\n * contract MyTokenV2 is MyToken, ERC20PermitUpgradeable {\n *     function initializeV2() reinitializer(2) public {\n *         __ERC20Permit_init(\"MyToken\");\n *     }\n * }\n * ```\n *\n * TIP: To avoid leaving the proxy in an uninitialized state, the initializer function should be called as early as\n * possible by providing the encoded function call as the `_data` argument to {ERC1967Proxy-constructor}.\n *\n * CAUTION: When used with inheritance, manual care must be taken to not invoke a parent initializer twice, or to ensure\n * that all initializers are idempotent. This is not verified automatically as constructors are by Solidity.\n *\n * [CAUTION]\n * ====\n * Avoid leaving a contract uninitialized.\n *\n * An uninitialized contract can be taken over by an attacker. This applies to both a proxy and its implementation\n * contract, which may impact the proxy. To prevent the implementation contract from being used, you should invoke\n * the {_disableInitializers} function in the constructor to automatically lock it when it is deployed:\n *\n * [.hljs-theme-light.nopadding]\n * ```\n * /// @custom:oz-upgrades-unsafe-allow constructor\n * constructor() {\n *     _disableInitializers();\n * }\n * ```\n * ====\n */\nabstract contract Initializable {\n    /**\n     * @dev Indicates that the contract has been initialized.\n     * @custom:oz-retyped-from bool\n     */\n    uint8 private _initialized;\n\n    /**\n     * @dev Indicates that the contract is in the process of being initialized.\n     */\n    bool private _initializing;\n\n    /**\n     * @dev Triggered when the contract has been initialized or reinitialized.\n     */\n    event Initialized(uint8 version);\n\n    /**\n     * @dev A modifier that defines a protected initializer function that can be invoked at most once. In its scope,\n     * `onlyInitializing` functions can be used to initialize parent contracts.\n     *\n     * Similar to `reinitializer(1)`, except that functions marked with `initializer` can be nested in the context of a\n     * constructor.\n     *\n     * Emits an {Initialized} event.\n     */\n    modifier initializer() {\n        bool isTopLevelCall = !_initializing;\n        require(\n            (isTopLevelCall && _initialized < 1) ||\n                (!AddressUpgradeable.isContract(address(this)) &&\n                    _initialized == 1),\n            \"Initializable: contract is already initialized\"\n        );\n        _initialized = 1;\n        if (isTopLevelCall) {\n            _initializing = true;\n        }\n        _;\n        if (isTopLevelCall) {\n            _initializing = false;\n            emit Initialized(1);\n        }\n    }\n\n    /**\n     * @dev A modifier that defines a protected reinitializer function that can be invoked at most once, and only if the\n     * contract hasn't been initialized to a greater version before. In its scope, `onlyInitializing` functions can be\n     * used to initialize parent contracts.\n     *\n     * A reinitializer may be used after the original initialization step. This is essential to configure modules that\n     * are added through upgrades and that require initialization.\n     *\n     * When `version` is 1, this modifier is similar to `initializer`, except that functions marked with `reinitializer`\n     * cannot be nested. If one is invoked in the context of another, execution will revert.\n     *\n     * Note that versions can jump in increments greater than 1; this implies that if multiple reinitializers coexist in\n     * a contract, executing them in the right order is up to the developer or operator.\n     *\n     * WARNING: setting the version to 255 will prevent any future reinitialization.\n     *\n     * Emits an {Initialized} event.\n     */\n    modifier reinitializer(uint8 version) {\n        require(\n            !_initializing && _initialized < version,\n            \"Initializable: contract is already initialized\"\n        );\n        _initialized = version;\n        _initializing = true;\n        _;\n        _initializing = false;\n        emit Initialized(version);\n    }\n\n    /**\n     * @dev Modifier to protect an initialization function so that it can only be invoked by functions with the\n     * {initializer} and {reinitializer} modifiers, directly or indirectly.\n     */\n    modifier onlyInitializing() {\n        require(_initializing, \"Initializable: contract is not initializing\");\n        _;\n    }\n\n    /**\n     * @dev Locks the contract, preventing any future reinitialization. This cannot be part of an initializer call.\n     * Calling this in the constructor of a contract will prevent that contract from being initialized or reinitialized\n     * to any version. It is recommended to use this to lock implementation contracts that are designed to be called\n     * through proxies.\n     *\n     * Emits an {Initialized} event the first time it is successfully executed.\n     */\n    function _disableInitializers() internal virtual {\n        require(!_initializing, \"Initializable: contract is initializing\");\n        if (_initialized != type(uint8).max) {\n            _initialized = type(uint8).max;\n            emit Initialized(type(uint8).max);\n        }\n    }\n\n    /**\n     * @dev Returns the highest version that has been initialized. See {reinitializer}.\n     */\n    function _getInitializedVersion() internal view returns (uint8) {\n        return _initialized;\n    }\n\n    /**\n     * @dev Returns `true` if the contract is currently initializing. See {onlyInitializing}.\n     */\n    function _isInitializing() internal view returns (bool) {\n        return _initializing;\n    }\n}\n\n/**\n * @dev Provides information about the current execution context, including the\n * sender of the transaction and its data. While these are generally available\n * via msg.sender and msg.data, they should not be accessed in such a direct\n * manner, since when dealing with meta-transactions the account sending and\n * paying for execution may not be the actual sender (as far as an application\n * is concerned).\n *\n * This contract is only required for intermediate, library-like contracts.\n */\nabstract contract ContextUpgradeable is Initializable {\n    function __Context_init() internal onlyInitializing {}\n\n    function __Context_init_unchained() internal onlyInitializing {}\n\n    function _msgSender() internal view virtual returns (address) {\n        return msg.sender;\n    }\n\n    function _msgData() internal view virtual returns (bytes calldata) {\n        return msg.data;\n    }\n\n    /**\n     * @dev This empty reserved space is put in place to allow future versions to add new\n     * variables without shifting down storage in the inheritance chain.\n     * See https://docs.openzeppelin.com/contracts/4.x/upgradeable#storage_gaps\n     */\n    uint256[50] private __gap;\n}\n\n/**\n * @dev Contract module which provides a basic access control mechanism, where\n * there is an account (an owner) that can be granted exclusive access to\n * specific functions.\n *\n * By default, the owner account will be the one that deploys the contract. This\n * can later be changed with {transferOwnership}.\n *\n * This module is used through inheritance. It will make available the modifier\n * `onlyOwner`, which can be applied to your functions to restrict their use to\n * the owner.\n */\nabstract contract OwnableUpgradeable is Initializable, ContextUpgradeable {\n    address private _owner;\n\n    event OwnershipTransferred(\n        address indexed previousOwner,\n        address indexed newOwner\n    );\n\n    /**\n     * @dev Initializes the contract setting the deployer as the initial owner.\n     */\n    function __Ownable_init() internal onlyInitializing {\n        __Ownable_init_unchained();\n    }\n\n    function __Ownable_init_unchained() internal onlyInitializing {\n        _transferOwnership(_msgSender());\n    }\n\n    /**\n     * @dev Throws if called by any account other than the owner.\n     */\n    modifier onlyOwner() {\n        _checkOwner();\n        _;\n    }\n\n    /**\n     * @dev Returns the address of the current owner.\n     */\n    function owner() public view virtual returns (address) {\n        return _owner;\n    }\n\n    /**\n     * @dev Throws if the sender is not the owner.\n     */\n    function _checkOwner() internal view virtual {\n        require(owner() == _msgSender(), \"Ownable: caller is not the owner\");\n    }\n\n    /**\n     * @dev Leaves the contract without owner. It will not be possible to call\n     * `onlyOwner` functions. Can only be called by the current owner.\n     *\n     * NOTE: Renouncing ownership will leave the contract without an owner,\n     * thereby disabling any functionality that is only available to the owner.\n     */\n    function renounceOwnership() public virtual onlyOwner {\n        _transferOwnership(address(0));\n    }\n\n    /**\n     * @dev Transfers ownership of the contract to a new account (`newOwner`).\n     * Can only be called by the current owner.\n     */\n    function transferOwnership(address newOwner) public virtual onlyOwner {\n        require(\n            newOwner != address(0),\n            \"Ownable: new owner is the zero address\"\n        );\n        _transferOwnership(newOwner);\n    }\n\n    /**\n     * @dev Transfers ownership of the contract to a new account (`newOwner`).\n     * Internal function without access restriction.\n     */\n    function _transferOwnership(address newOwner) internal virtual {\n        address oldOwner = _owner;\n        _owner = newOwner;\n        emit OwnershipTransferred(oldOwner, newOwner);\n    }\n\n    /**\n     * @dev This empty reserved space is put in place to allow future versions to add new\n     * variables without shifting down storage in the inheritance chain.\n     * See https://docs.openzeppelin.com/contracts/4.x/upgradeable#storage_gaps\n     */\n    uint256[49] private __gap;\n}\n\n/**\n * @dev Interface of the ERC20 standard as defined in the EIP.\n */\ninterface IERC20Upgradeable {\n    /**\n     * @dev Emitted when `value` tokens are moved from one account (`from`) to\n     * another (`to`).\n     *\n     * Note that `value` may be zero.\n     */\n    event Transfer(address indexed from, address indexed to, uint256 value);\n\n    /**\n     * @dev Emitted when the allowance of a `spender` for an `owner` is set by\n     * a call to {approve}. `value` is the new allowance.\n     */\n    event Approval(\n        address indexed owner,\n        address indexed spender,\n        uint256 value\n    );\n\n    /**\n     * @dev Returns the amount of tokens in existence.\n     */\n    function totalSupply() external view returns (uint256);\n\n    /**\n     * @dev Returns the amount of tokens owned by `account`.\n     */\n    function balanceOf(address account) external view returns (uint256);\n\n    /**\n     * @dev Moves `amount` tokens from the caller's account to `to`.\n     *\n     * Returns a boolean value indicating whether the operation succeeded.\n     *\n     * Emits a {Transfer} event.\n     */\n    function transfer(address to, uint256 amount) external returns (bool);\n\n    /**\n     * @dev Returns the remaining number of tokens that `spender` will be\n     * allowed to spend on behalf of `owner` through {transferFrom}. This is\n     * zero by default.\n     *\n     * This value changes when {approve} or {transferFrom} are called.\n     */\n    function allowance(\n        address owner,\n        address spender\n    ) external view returns (uint256);\n\n    /**\n     * @dev Sets `amount` as the allowance of `spender` over the caller's tokens.\n     *\n     * Returns a boolean value indicating whether the operation succeeded.\n     *\n     * IMPORTANT: Beware that changing an allowance with this method brings the risk\n     * that someone may use both the old and the new allowance by unfortunate\n     * transaction ordering. One possible solution to mitigate this race\n     * condition is to first reduce the spender's allowance to 0 and set the\n     * desired value afterwards:\n     * https://github.com/ethereum/EIPs/issues/20#issuecomment-263524729\n     *\n     * Emits an {Approval} event.\n     */\n    function approve(address spender, uint256 amount) external returns (bool);\n\n    /**\n     * @dev Moves `amount` tokens from `from` to `to` using the\n     * allowance mechanism. `amount` is then deducted from the caller's\n     * allowance.\n     *\n     * Returns a boolean value indicating whether the operation succeeded.\n     *\n     * Emits a {Transfer} event.\n     */\n    function transferFrom(\n        address from,\n        address to,\n        uint256 amount\n    ) external returns (bool);\n}\n\n/**\n * @dev Simple on-chain storage for NFT commenting.\n * @author Omsify\n */\ncontract NFTCommentsUpgradeableFLAT is Initializable, OwnableUpgradeable {\n    IERC20Upgradeable public erc20Token;\n    struct Comment {\n        address commenter;\n        uint256 timestamp;\n        string contents;\n    }\n\n    error WrongValue();\n    error WithdrawError();\n    error LowBalance();\n    error SpendingNotApproved();\n\n    uint256 public commentFee;\n\n    event NFTCommentPosted(\n        address indexed collectionAddress,\n        uint256 indexed tokenId,\n        address indexed senderAddress,\n        uint256 timestamp,\n        string comment\n    );\n\n    function init(address token) public initializer {\n        __Ownable_init();\n        erc20Token = IERC20Upgradeable(token);\n        commentFee = 1 ether; //1 TFuel\n    }\n\n    // Mapping from NFT collection address => mapping from tokenId => comments related to this specific token.\n    mapping(address => mapping(uint256 => Comment[]))\n        private NFTCommentsByIdAtNFTAddress;\n\n    /**\n     * @dev Stores a comment with text `contents` related to\n     * NFT with address `nftAddress` and token id `tokenId` in the contract.\n     * Transaction value should equal current commentFee.\n     */\n    function addComment_native(\n        address nftAddress,\n        uint256 tokenId,\n        string calldata contents\n    ) public payable {\n        if (msg.value != commentFee) revert WrongValue();\n\n        NFTCommentsByIdAtNFTAddress[nftAddress][tokenId].push(\n            Comment(msg.sender, block.timestamp, contents)\n        );\n        emit NFTCommentPosted(\n            nftAddress,\n            tokenId,\n            msg.sender,\n            block.timestamp,\n            contents\n        );\n    }\n\n    function addComment_erc20(\n        address nftAddress,\n        uint256 tokenId,\n        string calldata contents\n    ) public {\n        if (erc20Token.balanceOf(msg.sender) < commentFee) revert LowBalance();\n        if (erc20Token.allowance(msg.sender, address(this)) < commentFee)\n            revert SpendingNotApproved();\n\n        NFTCommentsByIdAtNFTAddress[nftAddress][tokenId].push(\n            Comment(msg.sender, block.timestamp, contents)\n        );\n        emit NFTCommentPosted(\n            nftAddress,\n            tokenId,\n            msg.sender,\n            block.timestamp,\n            contents\n        );\n        erc20Token.transferFrom(msg.sender, address(this), commentFee);\n    }\n\n    /**\n     * @dev Withdraws fee to the contract owner address.\n     */\n    function withdrawFees() public onlyOwner {\n        (bool sent, ) = msg.sender.call{value: address(this).balance}(\"\");\n        if (!sent) revert WithdrawError();\n    }\n\n    /**\n     * @dev Withdraws fee to the contract owner address.\n     */\n    function withdrawFeesERC20() public onlyOwner {\n        erc20Token.transfer(owner(), erc20Token.balanceOf(address(this)));\n    }\n\n    /**\n     * @dev changes erc20 fee token.\n     */\n    function changeERC20FeeToken(address newToken) public onlyOwner {\n        erc20Token = IERC20Upgradeable(newToken);\n    }\n\n    /**\n     * @dev Updates commentFee amount.\n     */\n    function updateFee(uint256 newCommentFee) public onlyOwner {\n        commentFee = newCommentFee;\n    }\n\n    /**\n     * @dev Returns a comment related to\n     * NFT with address `nftAddress` and token id `tokenId` at `index` from the contract.\n     */\n    function getComment(\n        address nftAddress,\n        uint256 tokenId,\n        uint256 index\n    )\n        external\n        view\n        returns (address commenter, uint256 timestamp, string memory contents)\n    {\n        Comment storage comment = NFTCommentsByIdAtNFTAddress[nftAddress][\n            tokenId\n        ][index];\n        return (comment.commenter, comment.timestamp, comment.contents);\n    }\n\n    /**\n     * @dev Returns a comment array related to\n     * NFT with address `nftAddress` and token id `tokenId` from the contract.\n     */\n    function getAllCommentsOf(\n        address nftAddress,\n        uint256 tokenId\n    ) external view returns (Comment[] memory) {\n        return NFTCommentsByIdAtNFTAddress[nftAddress][tokenId];\n    }\n}\n",
  "sourcePath": "/Users/shivam/github/contracts-upgradable/contracts/flat/DiscussionsUpgradeable.sol",
  "compiler": {
    "name": "solc",
    "version": "0.8.17+commit.8df45f5f.Emscripten.clang"
  },
  "schemaVersion": "3.4.7",
  "updatedAt": "2023-11-25T08:17:58.469Z",
  "devdoc": {
    "author": "Omsify",
    "details": "Simple on-chain storage for NFT commenting.",
    "kind": "dev",
    "methods": {
      "addComment_native(address,uint256,string)": {
        "details": "Stores a comment with text `contents` related to NFT with address `nftAddress` and token id `tokenId` in the contract. Transaction value should equal current commentFee."
      },
      "changeERC20FeeToken(address)": {
        "details": "changes erc20 fee token."
      },
      "getAllCommentsOf(address,uint256)": {
        "details": "Returns a comment array related to NFT with address `nftAddress` and token id `tokenId` from the contract."
      },
      "getComment(address,uint256,uint256)": {
        "details": "Returns a comment related to NFT with address `nftAddress` and token id `tokenId` at `index` from the contract."
      },
      "owner()": {
        "details": "Returns the address of the current owner."
      },
      "renounceOwnership()": {
        "details": "Leaves the contract without owner. It will not be possible to call `onlyOwner` functions. Can only be called by the current owner. NOTE: Renouncing ownership will leave the contract without an owner, thereby disabling any functionality that is only available to the owner."
      },
      "transferOwnership(address)": {
        "details": "Transfers ownership of the contract to a new account (`newOwner`). Can only be called by the current owner."
      },
      "updateFee(uint256)": {
        "details": "Updates commentFee amount."
      },
      "withdrawFees()": {
        "details": "Withdraws fee to the contract owner address."
      },
      "withdrawFeesERC20()": {
        "details": "Withdraws fee to the contract owner address."
      }
    },
    "version": 1
  },
  "userdoc": {
    "kind": "user",
    "methods": {},
    "version": 1
  }
}