{
  "contractName": "OctoplaceMarketUpgradeable",
  "abi": [
    {
      "anonymous": false,
      "inputs": [
        {
          "indexed": true,
          "internalType": "address",
          "name": "nftContract",
          "type": "address"
        },
        {
          "indexed": true,
          "internalType": "address",
          "name": "creatorAddress",
          "type": "address"
        },
        {
          "indexed": false,
          "internalType": "uint256",
          "name": "BasisFeePoints",
          "type": "uint256"
        }
      ],
      "name": "CreatorFeeChanged",
      "type": "event"
    },
    {
      "anonymous": false,
      "inputs": [
        {
          "indexed": false,
          "internalType": "uint256",
          "name": "userPayout",
          "type": "uint256"
        },
        {
          "indexed": true,
          "internalType": "address",
          "name": "userAddress",
          "type": "address"
        },
        {
          "indexed": false,
          "internalType": "uint256",
          "name": "feePayout",
          "type": "uint256"
        },
        {
          "indexed": true,
          "internalType": "address",
          "name": "feeAddress",
          "type": "address"
        },
        {
          "indexed": false,
          "internalType": "uint256",
          "name": "creatorPayout",
          "type": "uint256"
        },
        {
          "indexed": true,
          "internalType": "address",
          "name": "creatorAddress",
          "type": "address"
        }
      ],
      "name": "FeeSplit",
      "type": "event"
    },
    {
      "anonymous": false,
      "inputs": [
        {
          "indexed": false,
          "internalType": "uint8",
          "name": "version",
          "type": "uint8"
        }
      ],
      "name": "Initialized",
      "type": "event"
    },
    {
      "anonymous": false,
      "inputs": [
        {
          "indexed": true,
          "internalType": "uint256",
          "name": "itemId",
          "type": "uint256"
        },
        {
          "indexed": true,
          "internalType": "address",
          "name": "nftContract",
          "type": "address"
        },
        {
          "indexed": false,
          "internalType": "uint256",
          "name": "tokenId",
          "type": "uint256"
        },
        {
          "indexed": true,
          "internalType": "address",
          "name": "seller",
          "type": "address"
        },
        {
          "indexed": false,
          "internalType": "address",
          "name": "owner",
          "type": "address"
        },
        {
          "indexed": false,
          "internalType": "string",
          "name": "category",
          "type": "string"
        },
        {
          "indexed": false,
          "internalType": "uint256",
          "name": "price",
          "type": "uint256"
        },
        {
          "indexed": false,
          "internalType": "bool",
          "name": "isSold",
          "type": "bool"
        }
      ],
      "name": "MarketItemCreated",
      "type": "event"
    },
    {
      "anonymous": false,
      "inputs": [
        {
          "indexed": true,
          "internalType": "uint256",
          "name": "itemId",
          "type": "uint256"
        },
        {
          "indexed": false,
          "internalType": "address",
          "name": "nftContract",
          "type": "address"
        },
        {
          "indexed": false,
          "internalType": "uint256",
          "name": "tokenId",
          "type": "uint256"
        },
        {
          "indexed": true,
          "internalType": "address",
          "name": "seller",
          "type": "address"
        },
        {
          "indexed": true,
          "internalType": "address",
          "name": "owner",
          "type": "address"
        },
        {
          "indexed": false,
          "internalType": "string",
          "name": "category",
          "type": "string"
        },
        {
          "indexed": false,
          "internalType": "uint256",
          "name": "price",
          "type": "uint256"
        },
        {
          "indexed": false,
          "internalType": "bool",
          "name": "isSold",
          "type": "bool"
        }
      ],
      "name": "MarketItemSale",
      "type": "event"
    },
    {
      "anonymous": false,
      "inputs": [
        {
          "indexed": true,
          "internalType": "uint256",
          "name": "itemId",
          "type": "uint256"
        },
        {
          "indexed": true,
          "internalType": "address",
          "name": "nftContract",
          "type": "address"
        },
        {
          "indexed": false,
          "internalType": "uint256",
          "name": "tokenId",
          "type": "uint256"
        },
        {
          "indexed": true,
          "internalType": "address",
          "name": "seller",
          "type": "address"
        },
        {
          "indexed": false,
          "internalType": "address",
          "name": "owner",
          "type": "address"
        },
        {
          "indexed": false,
          "internalType": "string",
          "name": "category",
          "type": "string"
        },
        {
          "indexed": false,
          "internalType": "uint256",
          "name": "price",
          "type": "uint256"
        },
        {
          "indexed": false,
          "internalType": "bool",
          "name": "isSold",
          "type": "bool"
        }
      ],
      "name": "MarketItemUpdated",
      "type": "event"
    },
    {
      "anonymous": false,
      "inputs": [
        {
          "indexed": true,
          "internalType": "uint256",
          "name": "itemId",
          "type": "uint256"
        },
        {
          "indexed": false,
          "internalType": "address",
          "name": "nftContract",
          "type": "address"
        },
        {
          "indexed": false,
          "internalType": "uint256",
          "name": "tokenId",
          "type": "uint256"
        },
        {
          "indexed": true,
          "internalType": "address",
          "name": "seller",
          "type": "address"
        },
        {
          "indexed": true,
          "internalType": "address",
          "name": "previousBidder",
          "type": "address"
        },
        {
          "indexed": false,
          "internalType": "uint256",
          "name": "price",
          "type": "uint256"
        }
      ],
      "name": "OfferCanceled",
      "type": "event"
    },
    {
      "anonymous": false,
      "inputs": [
        {
          "indexed": true,
          "internalType": "uint256",
          "name": "itemId",
          "type": "uint256"
        },
        {
          "indexed": false,
          "internalType": "address",
          "name": "nftContract",
          "type": "address"
        },
        {
          "indexed": false,
          "internalType": "uint256",
          "name": "tokenId",
          "type": "uint256"
        },
        {
          "indexed": true,
          "internalType": "address",
          "name": "seller",
          "type": "address"
        },
        {
          "indexed": false,
          "internalType": "uint256",
          "name": "highestOffer",
          "type": "uint256"
        },
        {
          "indexed": true,
          "internalType": "address",
          "name": "bidder",
          "type": "address"
        },
        {
          "indexed": false,
          "internalType": "string",
          "name": "category",
          "type": "string"
        },
        {
          "indexed": false,
          "internalType": "uint256",
          "name": "price",
          "type": "uint256"
        }
      ],
      "name": "OfferPlaced",
      "type": "event"
    },
    {
      "anonymous": false,
      "inputs": [
        {
          "indexed": true,
          "internalType": "uint256",
          "name": "BasisFeePoints",
          "type": "uint256"
        }
      ],
      "name": "PlatformFeeChanged",
      "type": "event"
    },
    {
      "stateMutability": "payable",
      "type": "fallback"
    },
    {
      "inputs": [],
      "name": "admin",
      "outputs": [
        {
          "internalType": "address",
          "name": "",
          "type": "address"
        }
      ],
      "stateMutability": "view",
      "type": "function"
    },
    {
      "inputs": [],
      "name": "feeAddress",
      "outputs": [
        {
          "internalType": "address",
          "name": "",
          "type": "address"
        }
      ],
      "stateMutability": "view",
      "type": "function"
    },
    {
      "inputs": [],
      "name": "listingIsActive",
      "outputs": [
        {
          "internalType": "bool",
          "name": "",
          "type": "bool"
        }
      ],
      "stateMutability": "view",
      "type": "function"
    },
    {
      "inputs": [],
      "name": "pendingSuperAdmin",
      "outputs": [
        {
          "internalType": "address",
          "name": "",
          "type": "address"
        }
      ],
      "stateMutability": "view",
      "type": "function"
    },
    {
      "inputs": [],
      "name": "superAdmin",
      "outputs": [
        {
          "internalType": "address",
          "name": "",
          "type": "address"
        }
      ],
      "stateMutability": "view",
      "type": "function"
    },
    {
      "stateMutability": "payable",
      "type": "receive"
    },
    {
      "inputs": [
        {
          "internalType": "address",
          "name": "feeAddress_",
          "type": "address"
        }
      ],
      "name": "init",
      "outputs": [],
      "stateMutability": "nonpayable",
      "type": "function"
    },
    {
      "inputs": [
        {
          "internalType": "uint256",
          "name": "amount",
          "type": "uint256"
        }
      ],
      "name": "retrieveMoney",
      "outputs": [],
      "stateMutability": "nonpayable",
      "type": "function"
    },
    {
      "inputs": [
        {
          "internalType": "uint256",
          "name": "feeBasisPoints",
          "type": "uint256"
        }
      ],
      "name": "setSalesFeeBasisPoints",
      "outputs": [],
      "stateMutability": "nonpayable",
      "type": "function"
    },
    {
      "inputs": [
        {
          "internalType": "address",
          "name": "feeAddress_",
          "type": "address"
        }
      ],
      "name": "setFeeAddress",
      "outputs": [],
      "stateMutability": "nonpayable",
      "type": "function"
    },
    {
      "inputs": [
        {
          "internalType": "address",
          "name": "pendingSuperAdmin_",
          "type": "address"
        }
      ],
      "name": "setPendingSuperAdmin",
      "outputs": [],
      "stateMutability": "nonpayable",
      "type": "function"
    },
    {
      "inputs": [],
      "name": "approvePendingSuperAdmin",
      "outputs": [],
      "stateMutability": "nonpayable",
      "type": "function"
    },
    {
      "inputs": [
        {
          "internalType": "address",
          "name": "admin_",
          "type": "address"
        }
      ],
      "name": "setAdmin",
      "outputs": [],
      "stateMutability": "nonpayable",
      "type": "function"
    },
    {
      "inputs": [
        {
          "internalType": "address",
          "name": "nftContract",
          "type": "address"
        },
        {
          "internalType": "uint256",
          "name": "tokenId",
          "type": "uint256"
        },
        {
          "internalType": "uint256",
          "name": "price",
          "type": "uint256"
        },
        {
          "internalType": "string",
          "name": "category",
          "type": "string"
        }
      ],
      "name": "createMarketItem",
      "outputs": [],
      "stateMutability": "nonpayable",
      "type": "function"
    },
    {
      "inputs": [
        {
          "internalType": "address",
          "name": "nftContract",
          "type": "address"
        },
        {
          "internalType": "uint256",
          "name": "tokenId",
          "type": "uint256"
        },
        {
          "internalType": "uint256",
          "name": "price",
          "type": "uint256"
        },
        {
          "internalType": "uint256",
          "name": "itemId",
          "type": "uint256"
        }
      ],
      "name": "updateMarketItem",
      "outputs": [],
      "stateMutability": "nonpayable",
      "type": "function"
    },
    {
      "inputs": [
        {
          "internalType": "address",
          "name": "nftContract",
          "type": "address"
        },
        {
          "internalType": "uint256",
          "name": "itemId",
          "type": "uint256"
        }
      ],
      "name": "createMarketSale",
      "outputs": [],
      "stateMutability": "payable",
      "type": "function"
    },
    {
      "inputs": [
        {
          "internalType": "address",
          "name": "nftContract",
          "type": "address"
        },
        {
          "internalType": "uint256",
          "name": "itemId",
          "type": "uint256"
        }
      ],
      "name": "createMarketCancel",
      "outputs": [],
      "stateMutability": "nonpayable",
      "type": "function"
    },
    {
      "inputs": [
        {
          "internalType": "address",
          "name": "nftContract",
          "type": "address"
        },
        {
          "internalType": "uint256",
          "name": "itemId",
          "type": "uint256"
        }
      ],
      "name": "createMarketCancelAdmin",
      "outputs": [],
      "stateMutability": "nonpayable",
      "type": "function"
    },
    {
      "inputs": [],
      "name": "flipListingState",
      "outputs": [],
      "stateMutability": "nonpayable",
      "type": "function"
    },
    {
      "inputs": [
        {
          "internalType": "uint256",
          "name": "feeBasisPoints",
          "type": "uint256"
        },
        {
          "internalType": "address",
          "name": "creatorAddress",
          "type": "address"
        },
        {
          "internalType": "address",
          "name": "NFTAddress",
          "type": "address"
        }
      ],
      "name": "setCreatorFeeBasisPoints",
      "outputs": [],
      "stateMutability": "nonpayable",
      "type": "function"
    },
    {
      "inputs": [
        {
          "internalType": "uint256",
          "name": "feeBasisPoints",
          "type": "uint256"
        },
        {
          "internalType": "address",
          "name": "creatorAddress",
          "type": "address"
        },
        {
          "internalType": "address",
          "name": "NFTAddress",
          "type": "address"
        }
      ],
      "name": "setCreatorFeeBasisPointsByCreator",
      "outputs": [],
      "stateMutability": "nonpayable",
      "type": "function"
    },
    {
      "inputs": [
        {
          "internalType": "address",
          "name": "NFTAddress",
          "type": "address"
        }
      ],
      "name": "getCreatorFeeBasisPoints",
      "outputs": [
        {
          "components": [
            {
              "internalType": "address",
              "name": "creator",
              "type": "address"
            },
            {
              "internalType": "uint256",
              "name": "feeBasisPoints",
              "type": "uint256"
            }
          ],
          "internalType": "struct OctoplaceMarketUpgradeable.Creator",
          "name": "",
          "type": "tuple"
        }
      ],
      "stateMutability": "view",
      "type": "function"
    },
    {
      "inputs": [
        {
          "internalType": "uint256",
          "name": "id",
          "type": "uint256"
        }
      ],
      "name": "getByMarketId",
      "outputs": [
        {
          "components": [
            {
              "internalType": "uint256",
              "name": "itemId",
              "type": "uint256"
            },
            {
              "internalType": "address",
              "name": "nftContract",
              "type": "address"
            },
            {
              "internalType": "uint256",
              "name": "tokenId",
              "type": "uint256"
            },
            {
              "internalType": "address payable",
              "name": "seller",
              "type": "address"
            },
            {
              "internalType": "address payable",
              "name": "owner",
              "type": "address"
            },
            {
              "internalType": "uint256",
              "name": "highestOffer",
              "type": "uint256"
            },
            {
              "internalType": "address",
              "name": "bidder",
              "type": "address"
            },
            {
              "internalType": "string",
              "name": "category",
              "type": "string"
            },
            {
              "internalType": "uint256",
              "name": "price",
              "type": "uint256"
            },
            {
              "internalType": "bool",
              "name": "isSold",
              "type": "bool"
            }
          ],
          "internalType": "struct OctoplaceMarketUpgradeable.MarketItem",
          "name": "",
          "type": "tuple"
        }
      ],
      "stateMutability": "view",
      "type": "function"
    },
    {
      "inputs": [],
      "name": "getSalesFee",
      "outputs": [
        {
          "internalType": "uint256",
          "name": "",
          "type": "uint256"
        }
      ],
      "stateMutability": "view",
      "type": "function"
    },
    {
      "inputs": [
        {
          "internalType": "address",
          "name": "contract_",
          "type": "address"
        }
      ],
      "name": "getContractOwner",
      "outputs": [
        {
          "internalType": "address",
          "name": "",
          "type": "address"
        }
      ],
      "stateMutability": "view",
      "type": "function"
    },
    {
      "inputs": [],
      "name": "getLastMarketId",
      "outputs": [
        {
          "internalType": "uint256",
          "name": "",
          "type": "uint256"
        }
      ],
      "stateMutability": "view",
      "type": "function"
    }
  ],
  "bytecode": "0x608060405234801561001057600080fd5b50612679806100206000396000f3fe60806040526004361061015b5760003560e01c8063704b6c02116100c8578063c23b139e11610084578063d59d995011610061578063d59d995014610471578063ee45a711146104aa578063f851a440146104ca578063fdf98dc3146104ea57005b8063c23b139e1461041e578063c522c13d14610431578063d39ca7de1461045157005b8063704b6c02146102f7578063731aa6fa146103175780638705fcd41461039f57806391681214146103bf578063b3451eac146103d4578063bd943d95146103fe57005b806331aff94d1161011757806331aff94d14610242578063412753581461026257806348028d63146102825780635e878711146102a257806368e6c628146102c25780636c3ba611146102e257005b806319ab453c14610164578063274ebb131461018457806329575f6a146101a45780632d9e8c67146101e15780632f5ab972146101f657806330317f071461021557005b3661016257005b005b34801561017057600080fd5b5061016261017f366004611e6b565b61050a565b34801561019057600080fd5b5061016261019f366004611e88565b61065d565b3480156101b057600080fd5b506035546101c4906001600160a01b031681565b6040516001600160a01b0390911681526020015b60405180910390f35b3480156101ed57600080fd5b50610162610727565b34801561020257600080fd5b50603a545b6040519081526020016101d8565b34801561022157600080fd5b50610235610230366004611e88565b6107a0565b6040516101d89190611ef1565b34801561024e57600080fd5b5061016261025d366004611fb7565b61095d565b34801561026e57600080fd5b506038546101c4906001600160a01b031681565b34801561028e57600080fd5b506036546101c4906001600160a01b031681565b3480156102ae57600080fd5b506101626102bd366004611ff9565b610a2b565b3480156102ce57600080fd5b506101626102dd366004612034565b610c91565b3480156102ee57600080fd5b50610162610e4f565b34801561030357600080fd5b50610162610312366004611e6b565b610e8d565b34801561032357600080fd5b5061037b610332366004611e6b565b604080518082018252600080825260209182018190526001600160a01b039384168152603d82528290208251808401909352805490931682526001909201549181019190915290565b6040805182516001600160a01b0316815260209283015192810192909252016101d8565b3480156103ab57600080fd5b506101626103ba366004611e6b565b610ed9565b3480156103cb57600080fd5b50610207610f25565b3480156103e057600080fd5b50603b546103ee9060ff1681565b60405190151581526020016101d8565b34801561040a57600080fd5b50610162610419366004612034565b610f35565b61016261042c366004612034565b610fb2565b34801561043d57600080fd5b5061016261044c366004611e88565b6117a5565b34801561045d57600080fd5b5061016261046c366004611e6b565b611824565b34801561047d57600080fd5b506101c461048c366004611e6b565b6001600160a01b039081166000908152603960205260409020541690565b3480156104b657600080fd5b506101626104c5366004612060565b611896565b3480156104d657600080fd5b506037546101c4906001600160a01b031681565b3480156104f657600080fd5b50610162610505366004611fb7565b611ca2565b600054610100900460ff161580801561052a5750600054600160ff909116105b806105445750303b158015610544575060005460ff166001145b6105ac5760405162461bcd60e51b815260206004820152602e60248201527f496e697469616c697a61626c653a20636f6e747261637420697320616c72656160448201526d191e481a5b9a5d1a585b1a5e995960921b60648201526084015b60405180910390fd5b6000805460ff1916600117905580156105cf576000805461ff0019166101001790555b6105d7611d21565b60358054336001600160a01b031991821617909155603880549091166001600160a01b038416179055610190603a55603b805460ff191660011790558015610659576000805461ff0019169055604051600181527f7f26b83ff96e1f2b6a682f133852f6798a09c465da95921460cefb38474024989060200160405180910390a15b5050565b6035546001600160a01b031633146106875760405162461bcd60e51b81526004016105a3906120f6565b478111156106ed5760405162461bcd60e51b815260206004820152602d60248201527f596f752063616e206e6f74207769746864726177206d6f7265206d6f6e65792060448201526c7468616e20746865726520697360981b60648201526084016105a3565b6038546040516001600160a01b039091169082156108fc029083906000818181858888f19350505050158015610659573d6000803e3d6000fd5b6035546001600160a01b031633146107515760405162461bcd60e51b81526004016105a3906120f6565b6036546001600160a01b03166107795760405162461bcd60e51b81526004016105a390612142565b60368054603580546001600160a01b03199081166001600160a01b03841617909155169055565b604080516101408101825260008082526020820181905291810182905260608082018390526080820183905260a0820183905260c0820183905260e082015261010081018290526101208101919091526033548211156108355760405162461bcd60e51b815260206004820152601060248201526f1a5908191bd95cdb89dd08195e1a5cdd60821b60448201526064016105a3565b6000828152603c60209081526040918290208251610140810184528154815260018201546001600160a01b0390811693820193909352600282015493810193909352600381015482166060840152600481015482166080840152600581015460a0840152600681015490911660c083015260078101805460e0840191906108bb9061218b565b80601f01602080910402602001604051908101604052809291908181526020018280546108e79061218b565b80156109345780601f1061090957610100808354040283529160200191610934565b820191906000526020600020905b81548152906001019060200180831161091757829003601f168201915b50505091835250506008820154602082015260099091015460ff16151560409091015292915050565b6037546001600160a01b031633148061098057506035546001600160a01b031633145b61099c5760405162461bcd60e51b81526004016105a3906121c5565b6103e88311156109be5760405162461bcd60e51b81526004016105a39061220b565b6001600160a01b038181166000818152603d60209081526040918290206001810188905580546001600160a01b031916948716948517905590518681527f14029b2a500a1561bbe08c538f86c05a18ca270a8ec4786185fd69dde6230120910160405180910390a3505050565b610a33611d52565b603b5460ff161515600114610a7d5760405162461bcd60e51b815260206004820152601060248201526f131a5cdd1a5b99c8191a5cd8589b195960821b60448201526064016105a3565b60008211610ac55760405162461bcd60e51b81526020600482015260156024820152744e6f206974656d20666f722066726565206865726560581b60448201526064016105a3565b6000818152603c602052604090206009015460ff1615610af75760405162461bcd60e51b81526004016105a39061224c565b6000818152603c60205260409020600101546001600160a01b03858116911614610b5d5760405162461bcd60e51b81526020600482015260176024820152764e6f7420636f7272656374204e4654206164647265737360481b60448201526064016105a3565b6000818152603c60205260409020600201548314610bb35760405162461bcd60e51b8152602060048201526013602482015272139bdd0818dbdc9c9958dd081d1bdad95b9259606a1b60448201526064016105a3565b6000818152603c60205260409020600301546001600160a01b03163314610c1c5760405162461bcd60e51b815260206004820152601b60248201527f4f6e6c792073656c6c65722063616e20757064617465204974656d000000000060448201526064016105a3565b6000818152603c602052604080822060088101859055905133926001600160a01b0388169285927f74afb23ef53a4083f1bdad10c6c15d0aaf884c99cff7c59febfa6659a543cc6192610c7a928a926007909101908a9083906122f7565b60405180910390a4610c8b60018055565b50505050565b610c99611d52565b6037546001600160a01b0316331480610cbc57506035546001600160a01b031633145b610cd85760405162461bcd60e51b81526004016105a3906121c5565b6000818152603c602052604090206009015460ff1615610d0a5760405162461bcd60e51b81526004016105a39061224c565b6000818152603c60205260408082206002810154600882019390935560098101805460ff191660011790556003810154600491820180546001600160a01b0319166001600160a01b0392831690811790915592516323b872dd60e01b81523092810192909252602482019290925260448101839052908416906323b872dd90606401600060405180830381600087803b158015610da657600080fd5b505af1158015610dba573d6000803e3d6000fd5b50505050610dcc603480546001019055565b6000828152603c602052604080822060048101546003820154600180840154600285015495516001600160a01b0394851697938516968a967f895a96f6ac8d73df2b06b1075893880803453f7110c94f09757b5e9864cfee6796610e3d96941694919360079091019290919061233a565b60405180910390a45061065960018055565b6035546001600160a01b03163314610e795760405162461bcd60e51b81526004016105a3906120f6565b603b805460ff19811660ff90911615179055565b6035546001600160a01b03163314610eb75760405162461bcd60e51b81526004016105a3906120f6565b603780546001600160a01b0319166001600160a01b0392909216919091179055565b6035546001600160a01b03163314610f035760405162461bcd60e51b81526004016105a3906120f6565b603880546001600160a01b0319166001600160a01b0392909216919091179055565b6000610f3060335490565b905090565b610f3d611d52565b6000818152603c60205260409020600301546001600160a01b03163314610cd85760405162461bcd60e51b815260206004820152602360248201527f596f75206861766520746f206265207468652073656c6c657220746f2063616e60448201526218d95b60ea1b60648201526084016105a3565b610fba611d52565b6000818152603c602052604090206009015460ff1615610fec5760405162461bcd60e51b81526004016105a39061224c565b6000818152603c60205260409020600881015460028201546001909201549091906001600160a01b0390811690851681146110635760405162461bcd60e51b81526020600482015260176024820152764e6f7420636f7272656374204e4654206164647265737360481b60448201526064016105a3565b8234146110cc5760405162461bcd60e51b815260206004820152603160248201527f506c65617365206d616b652074686520707269636520746f2062652073616d65604482015270206173206c697374696e6720707269636560781b60648201526084016105a3565b6000831161111c5760405162461bcd60e51b815260206004820152601860248201527f4974656d20697320616c72656164792063616e63656c6564000000000000000060448201526064016105a3565b6000848152603c60209081526040808320600301546001600160a01b038581168552603d90935290832054908216926064928392168015611240576001600160a01b0386166000908152603d6020526040902060010154606490849061118461271034612377565b61118e9190612399565b6111989190612399565b6111a29190612377565b91506000816001600160a01b03168360405160006040518083038185875af1925050503d80600081146111f1576040519150601f19603f3d011682016040523d82523d6000602084013e6111f6565b606091505b505090508061123a5760405162461bcd60e51b815260206004820152601060248201526f2a3930b739b332b9103330b4b632b21760811b60448201526064016105a3565b50611365565b61124986611db1565b156113655760405163152a902d60e11b81526004810188905234602482015260009081906001600160a01b03891690632a55205a906044016040805180830381865afa15801561129d573d6000803e3d6000fd5b505050506040513d601f19601f820116820180604052508101906112c191906123b6565b915091506000826001600160a01b03168260405160006040518083038185875af1925050503d8060008114611312576040519150601f19603f3d011682016040523d82523d6000602084013e611317565b606091505b50509050819450829350806113615760405162461bcd60e51b815260206004820152601060248201526f2a3930b739b332b9103330b4b632b21760811b60448201526064016105a3565b5050505b6000898152603c6020526040902060098101805460ff1916600117905560040180546001600160a01b031916331790556113a3603480546001019055565b6040516323b872dd60e01b8152306004820152336024820152604481018890526001600160a01b038b16906323b872dd90606401600060405180830381600087803b1580156113f157600080fd5b505af1158015611405573d6000803e3d6000fd5b505050506000606485603a546127103461141f9190612377565b6114299190612399565b6114339190612399565b61143d9190612377565b905060008161144c85346123e4565b61145691906123e4565b90506000876001600160a01b03168260405160006040518083038185875af1925050503d80600081146114a5576040519150601f19603f3d011682016040523d82523d6000602084013e6114aa565b606091505b50509050806114fb5760405162461bcd60e51b815260206004820152601a60248201527f5472616e7366657220746f2073656c6c6572206661696c65642e00000000000060448201526064016105a3565b6038546040516000916001600160a01b03169085908381818185875af1925050503d8060008114611548576040519150601f19603f3d011682016040523d82523d6000602084013e61154d565b606091505b50509050806115955760405162461bcd60e51b81526020600482015260146024820152732a3930b739b332b9102332b2903330b4b632b21760611b60448201526064016105a3565b60008d8152603c602090815260408083208151610140810183528154815260018201546001600160a01b0390811694820194909452600282015492810192909252600381015483166060830152600481015483166080830152600581015460a0830152600681015490921660c082015260078201805491929160e08401919061161d9061218b565b80601f01602080910402602001604051908101604052809291908181526020018280546116499061218b565b80156116965780601f1061166b57610100808354040283529160200191611696565b820191906000526020600020905b81548152906001019060200180831161167957829003601f168201915b50505050508152602001600882015481526020016009820160009054906101000a900460ff161515151581525050905080608001516001600160a01b031681606001516001600160a01b031682600001517f895a96f6ac8d73df2b06b1075893880803453f7110c94f09757b5e9864cfee67846020015185604001518660e0015187610100015160016040516117309594939291906123f7565b60405180910390a460385460408051868152602081018890529081018990526001600160a01b0388811692811691908d16907f7e06111c2f996dd70140b09a1b769e48e2e8fffbd0179a6e24552f65d25b8b169060600160405180910390a45050505050505050505050505061065960018055565b6035546001600160a01b031633146117cf5760405162461bcd60e51b81526004016105a3906120f6565b6103e88111156117f15760405162461bcd60e51b81526004016105a39061220b565b603a81905560405181907f72b05fd7e6e407beabebd17ae121166880efdc19a2a9b08063eafc0c001e470a90600090a250565b6035546001600160a01b0316331461184e5760405162461bcd60e51b81526004016105a3906120f6565b6001600160a01b0381166118745760405162461bcd60e51b81526004016105a390612142565b603680546001600160a01b0319166001600160a01b0392909216919091179055565b61189e611d52565b603b5460ff1615156001146118e85760405162461bcd60e51b815260206004820152601060248201526f131a5cdd1a5b99c8191a5cd8589b195960821b60448201526064016105a3565b600083116119305760405162461bcd60e51b81526020600482015260156024820152744e6f206974656d20666f722066726565206865726560581b60448201526064016105a3565b60408051600481526024810182526020810180516001600160e01b0316638da5cb5b60e01b17905290516000916001600160a01b03881691611972919061241e565b6000604051808303816000865af19150503d80600081146119af576040519150601f19603f3d011682016040523d82523d6000602084013e6119b4565b606091505b505090508015611a5057856001600160a01b0316638da5cb5b6040518163ffffffff1660e01b8152600401602060405180830381865afa1580156119fc573d6000803e3d6000fd5b505050506040513d601f19601f82011682018060405250810190611a20919061243a565b6001600160a01b03878116600090815260396020526040902080546001600160a01b031916929091169190911790555b611a5e603380546001019055565b6000611a6960335490565b9050604051806101400160405280828152602001886001600160a01b03168152602001878152602001336001600160a01b0316815260200160006001600160a01b031681526020016000815260200160006001600160a01b0316815260200185858080601f016020809104026020016040519081016040528093929190818152602001838380828437600092018290525093855250505060208083018990526040928301829052848252603c81529082902083518155908301516001820180546001600160a01b03199081166001600160a01b0393841617909155928401516002830155606084015160038301805485169183169190911790556080840151600483018054851691831691909117905560a0840151600583015560c084015160068301805490941691161790915560e08201516007820190611bab90826124bc565b506101008201516008820155610120909101516009909101805460ff19169115159190911790556040516323b872dd60e01b8152336004820152306024820152604481018790526001600160a01b038816906323b872dd90606401600060405180830381600087803b158015611c2057600080fd5b505af1158015611c34573d6000803e3d6000fd5b50505050336001600160a01b0316876001600160a01b0316827f058ba5dd04a75d8581491c06ed3308197306a78713282c4d1bdeef5bde9ba83389600089898c6000604051611c889695949392919061257c565b60405180910390a45050611c9b60018055565b5050505050565b6103e8831115611cc45760405162461bcd60e51b81526004016105a39061220b565b6001600160a01b038181166000908152603960205260409020541633146109be5760405162461bcd60e51b81526020600482015260116024820152702737ba103b30b634b21031b932b0ba37b960791b60448201526064016105a3565b600054610100900460ff16611d485760405162461bcd60e51b81526004016105a3906125d6565b611d50611e2c565b565b600260015403611da45760405162461bcd60e51b815260206004820152601f60248201527f5265656e7472616e637947756172643a207265656e7472616e742063616c6c0060448201526064016105a3565b6002600155565b60018055565b6040516301ffc9a760e01b815263152a902d60e11b600482015260009081906001600160a01b038416906301ffc9a790602401602060405180830381865afa158015611e01573d6000803e3d6000fd5b505050506040513d601f19601f82011682018060405250810190611e259190612621565b9392505050565b600054610100900460ff16611dab5760405162461bcd60e51b81526004016105a3906125d6565b6001600160a01b0381168114611e6857600080fd5b50565b600060208284031215611e7d57600080fd5b8135611e2581611e53565b600060208284031215611e9a57600080fd5b5035919050565b60005b83811015611ebc578181015183820152602001611ea4565b50506000910152565b60008151808452611edd816020860160208601611ea1565b601f01601f19169290920160200192915050565b602081528151602082015260006020830151611f1860408401826001600160a01b03169052565b50604083015160608301526060830151611f3d60808401826001600160a01b03169052565b5060808301516001600160a01b03811660a08401525060a083015160c083015260c0830151611f7760e08401826001600160a01b03169052565b5060e08301516101406101008181860152611f96610160860184611ec5565b90860151610120868101919091529095015115159301929092525090919050565b600080600060608486031215611fcc57600080fd5b833592506020840135611fde81611e53565b91506040840135611fee81611e53565b809150509250925092565b6000806000806080858703121561200f57600080fd5b843561201a81611e53565b966020860135965060408601359560600135945092505050565b6000806040838503121561204757600080fd5b823561205281611e53565b946020939093013593505050565b60008060008060006080868803121561207857600080fd5b853561208381611e53565b94506020860135935060408601359250606086013567ffffffffffffffff808211156120ae57600080fd5b818801915088601f8301126120c257600080fd5b8135818111156120d157600080fd5b8960208285010111156120e357600080fd5b9699959850939650602001949392505050565b6020808252602c908201527f6f6e6c79207468652073757065722061646d696e2063616e20706572666f726d60408201526b103a3434b99030b1ba34b7b760a11b606082015260800190565b60208082526029908201527f5a65726f20616464726573732063616e6e6f74206265206d61646520612073756040820152683832b91030b236b4b760b91b606082015260800190565b600181811c9082168061219f57607f821691505b6020821081036121bf57634e487b7160e01b600052602260045260246000fd5b50919050565b60208082526026908201527f6f6e6c79207468652061646d696e2063616e20706572666f726d20746869732060408201526530b1ba34b7b760d11b606082015260800190565b60208082526021908201527f53616c6573204665652063616e7420626520686967686572207468616e2031306040820152602560f81b606082015260800190565b602080825260149082015273125d195b481a5cc8185b1c9958591e481cdbdb1960621b604082015260600190565b600081546122878161218b565b8085526020600183811680156122a457600181146122be576122ec565b60ff1985168884015283151560051b8801830195506122ec565b866000528260002060005b858110156122e45781548a82018601529083019084016122c9565b890184019650505b505050505092915050565b8581526001600160a01b038516602082015260a0604082018190526000906123219083018661227a565b6060830194909452509015156080909101529392505050565b60018060a01b038616815284602082015260a06040820152600061232160a083018661227a565b634e487b7160e01b600052601160045260246000fd5b60008261239457634e487b7160e01b600052601260045260246000fd5b500490565b80820281158282048414176123b0576123b0612361565b92915050565b600080604083850312156123c957600080fd5b82516123d481611e53565b6020939093015192949293505050565b818103818111156123b0576123b0612361565b60018060a01b038616815284602082015260a06040820152600061232160a0830186611ec5565b60008251612430818460208701611ea1565b9190910192915050565b60006020828403121561244c57600080fd5b8151611e2581611e53565b634e487b7160e01b600052604160045260246000fd5b601f8211156124b757600081815260208120601f850160051c810160208610156124945750805b601f850160051c820191505b818110156124b3578281556001016124a0565b5050505b505050565b815167ffffffffffffffff8111156124d6576124d6612457565b6124ea816124e4845461218b565b8461246d565b602080601f83116001811461251f57600084156125075750858301515b600019600386901b1c1916600185901b1785556124b3565b600085815260208120601f198616915b8281101561254e5788860151825594840194600190910190840161252f565b508582101561256c5787850151600019600388901b60f8161c191681555b5050505050600190811b01905550565b8681526001600160a01b038616602082015260a0604082018190528101849052838560c0830137600060c08583010152600060c0601f19601f87011683010190508360608301528215156080830152979650505050505050565b6020808252602b908201527f496e697469616c697a61626c653a20636f6e7472616374206973206e6f74206960408201526a6e697469616c697a696e6760a81b606082015260800190565b60006020828403121561263357600080fd5b81518015158114611e2557600080fdfea264697066735822122058c6be8fb246e44aa5d3a6ff12da0328270f0834b8069fe59e63bd6a7baaa17464736f6c63430008110033",
  "immutableReferences": {},
  "source": "// SPDX-License-Identifier: MIT\n// OpenZeppelin Contracts v4.4.1 (utils/Counters.sol)\n\npragma solidity ^0.8.0;\n\n/**\n * @title Counters\n * @author Matt Condon (@shrugs)\n * @dev Provides counters that can only be incremented, decremented or reset. This can be used e.g. to track the number\n * of elements in a mapping, issuing ERC721 ids, or counting request ids.\n *\n * Include with `using Counters for Counters.Counter;`\n */\nlibrary CountersUpgradeable {\n    struct Counter {\n        // This variable should never be directly accessed by users of the library: interactions must be restricted to\n        // the library's function. As of Solidity v0.5.2, this cannot be enforced, though there is a proposal to add\n        // this feature: see https://github.com/ethereum/solidity/issues/4637\n        uint256 _value; // default: 0\n    }\n\n    function current(Counter storage counter) internal view returns (uint256) {\n        return counter._value;\n    }\n\n    function increment(Counter storage counter) internal {\n        unchecked {\n            counter._value += 1;\n        }\n    }\n\n    function decrement(Counter storage counter) internal {\n        uint256 value = counter._value;\n        require(value > 0, \"Counter: decrement overflow\");\n        unchecked {\n            counter._value = value - 1;\n        }\n    }\n\n    function reset(Counter storage counter) internal {\n        counter._value = 0;\n    }\n}\n\n// File: @openzeppelin/contracts-upgradeable/utils/AddressUpgradeable.sol\n\n\n// OpenZeppelin Contracts (last updated v4.9.0) (utils/Address.sol)\n\n\n/**\n * @dev Collection of functions related to the address type\n */\nlibrary AddressUpgradeable {\n    /**\n     * @dev Returns true if `account` is a contract.\n     *\n     * [IMPORTANT]\n     * ====\n     * It is unsafe to assume that an address for which this function returns\n     * false is an externally-owned account (EOA) and not a contract.\n     *\n     * Among others, `isContract` will return false for the following\n     * types of addresses:\n     *\n     *  - an externally-owned account\n     *  - a contract in construction\n     *  - an address where a contract will be created\n     *  - an address where a contract lived, but was destroyed\n     *\n     * Furthermore, `isContract` will also return true if the target contract within\n     * the same transaction is already scheduled for destruction by `SELFDESTRUCT`,\n     * which only has an effect at the end of a transaction.\n     * ====\n     *\n     * [IMPORTANT]\n     * ====\n     * You shouldn't rely on `isContract` to protect against flash loan attacks!\n     *\n     * Preventing calls from contracts is highly discouraged. It breaks composability, breaks support for smart wallets\n     * like Gnosis Safe, and does not provide security since it can be circumvented by calling from a contract\n     * constructor.\n     * ====\n     */\n    function isContract(address account) internal view returns (bool) {\n        // This method relies on extcodesize/address.code.length, which returns 0\n        // for contracts in construction, since the code is only stored at the end\n        // of the constructor execution.\n\n        return account.code.length > 0;\n    }\n\n    /**\n     * @dev Replacement for Solidity's `transfer`: sends `amount` wei to\n     * `recipient`, forwarding all available gas and reverting on errors.\n     *\n     * https://eips.ethereum.org/EIPS/eip-1884[EIP1884] increases the gas cost\n     * of certain opcodes, possibly making contracts go over the 2300 gas limit\n     * imposed by `transfer`, making them unable to receive funds via\n     * `transfer`. {sendValue} removes this limitation.\n     *\n     * https://consensys.net/diligence/blog/2019/09/stop-using-soliditys-transfer-now/[Learn more].\n     *\n     * IMPORTANT: because control is transferred to `recipient`, care must be\n     * taken to not create reentrancy vulnerabilities. Consider using\n     * {ReentrancyGuard} or the\n     * https://solidity.readthedocs.io/en/v0.8.0/security-considerations.html#use-the-checks-effects-interactions-pattern[checks-effects-interactions pattern].\n     */\n    function sendValue(address payable recipient, uint256 amount) internal {\n        require(address(this).balance >= amount, \"Address: insufficient balance\");\n\n        (bool success, ) = recipient.call{value: amount}(\"\");\n        require(success, \"Address: unable to send value, recipient may have reverted\");\n    }\n\n    /**\n     * @dev Performs a Solidity function call using a low level `call`. A\n     * plain `call` is an unsafe replacement for a function call: use this\n     * function instead.\n     *\n     * If `target` reverts with a revert reason, it is bubbled up by this\n     * function (like regular Solidity function calls).\n     *\n     * Returns the raw returned data. To convert to the expected return value,\n     * use https://solidity.readthedocs.io/en/latest/units-and-global-variables.html?highlight=abi.decode#abi-encoding-and-decoding-functions[`abi.decode`].\n     *\n     * Requirements:\n     *\n     * - `target` must be a contract.\n     * - calling `target` with `data` must not revert.\n     *\n     * _Available since v3.1._\n     */\n    function functionCall(address target, bytes memory data) internal returns (bytes memory) {\n        return functionCallWithValue(target, data, 0, \"Address: low-level call failed\");\n    }\n\n    /**\n     * @dev Same as {xref-Address-functionCall-address-bytes-}[`functionCall`], but with\n     * `errorMessage` as a fallback revert reason when `target` reverts.\n     *\n     * _Available since v3.1._\n     */\n    function functionCall(\n        address target,\n        bytes memory data,\n        string memory errorMessage\n    ) internal returns (bytes memory) {\n        return functionCallWithValue(target, data, 0, errorMessage);\n    }\n\n    /**\n     * @dev Same as {xref-Address-functionCall-address-bytes-}[`functionCall`],\n     * but also transferring `value` wei to `target`.\n     *\n     * Requirements:\n     *\n     * - the calling contract must have an ETH balance of at least `value`.\n     * - the called Solidity function must be `payable`.\n     *\n     * _Available since v3.1._\n     */\n    function functionCallWithValue(address target, bytes memory data, uint256 value) internal returns (bytes memory) {\n        return functionCallWithValue(target, data, value, \"Address: low-level call with value failed\");\n    }\n\n    /**\n     * @dev Same as {xref-Address-functionCallWithValue-address-bytes-uint256-}[`functionCallWithValue`], but\n     * with `errorMessage` as a fallback revert reason when `target` reverts.\n     *\n     * _Available since v3.1._\n     */\n    function functionCallWithValue(\n        address target,\n        bytes memory data,\n        uint256 value,\n        string memory errorMessage\n    ) internal returns (bytes memory) {\n        require(address(this).balance >= value, \"Address: insufficient balance for call\");\n        (bool success, bytes memory returndata) = target.call{value: value}(data);\n        return verifyCallResultFromTarget(target, success, returndata, errorMessage);\n    }\n\n    /**\n     * @dev Same as {xref-Address-functionCall-address-bytes-}[`functionCall`],\n     * but performing a static call.\n     *\n     * _Available since v3.3._\n     */\n    function functionStaticCall(address target, bytes memory data) internal view returns (bytes memory) {\n        return functionStaticCall(target, data, \"Address: low-level static call failed\");\n    }\n\n    /**\n     * @dev Same as {xref-Address-functionCall-address-bytes-string-}[`functionCall`],\n     * but performing a static call.\n     *\n     * _Available since v3.3._\n     */\n    function functionStaticCall(\n        address target,\n        bytes memory data,\n        string memory errorMessage\n    ) internal view returns (bytes memory) {\n        (bool success, bytes memory returndata) = target.staticcall(data);\n        return verifyCallResultFromTarget(target, success, returndata, errorMessage);\n    }\n\n    /**\n     * @dev Same as {xref-Address-functionCall-address-bytes-}[`functionCall`],\n     * but performing a delegate call.\n     *\n     * _Available since v3.4._\n     */\n    function functionDelegateCall(address target, bytes memory data) internal returns (bytes memory) {\n        return functionDelegateCall(target, data, \"Address: low-level delegate call failed\");\n    }\n\n    /**\n     * @dev Same as {xref-Address-functionCall-address-bytes-string-}[`functionCall`],\n     * but performing a delegate call.\n     *\n     * _Available since v3.4._\n     */\n    function functionDelegateCall(\n        address target,\n        bytes memory data,\n        string memory errorMessage\n    ) internal returns (bytes memory) {\n        (bool success, bytes memory returndata) = target.delegatecall(data);\n        return verifyCallResultFromTarget(target, success, returndata, errorMessage);\n    }\n\n    /**\n     * @dev Tool to verify that a low level call to smart-contract was successful, and revert (either by bubbling\n     * the revert reason or using the provided one) in case of unsuccessful call or if target was not a contract.\n     *\n     * _Available since v4.8._\n     */\n    function verifyCallResultFromTarget(\n        address target,\n        bool success,\n        bytes memory returndata,\n        string memory errorMessage\n    ) internal view returns (bytes memory) {\n        if (success) {\n            if (returndata.length == 0) {\n                // only check isContract if the call was successful and the return data is empty\n                // otherwise we already know that it was a contract\n                require(isContract(target), \"Address: call to non-contract\");\n            }\n            return returndata;\n        } else {\n            _revert(returndata, errorMessage);\n        }\n    }\n\n    /**\n     * @dev Tool to verify that a low level call was successful, and revert if it wasn't, either by bubbling the\n     * revert reason or using the provided one.\n     *\n     * _Available since v4.3._\n     */\n    function verifyCallResult(\n        bool success,\n        bytes memory returndata,\n        string memory errorMessage\n    ) internal pure returns (bytes memory) {\n        if (success) {\n            return returndata;\n        } else {\n            _revert(returndata, errorMessage);\n        }\n    }\n\n    function _revert(bytes memory returndata, string memory errorMessage) private pure {\n        // Look for revert reason and bubble it up if present\n        if (returndata.length > 0) {\n            // The easiest way to bubble the revert reason is using memory via assembly\n            /// @solidity memory-safe-assembly\n            assembly {\n                let returndata_size := mload(returndata)\n                revert(add(32, returndata), returndata_size)\n            }\n        } else {\n            revert(errorMessage);\n        }\n    }\n}\n\n// File: @openzeppelin/contracts-upgradeable/utils/math/MathUpgradeable.sol\n\n\n// OpenZeppelin Contracts (last updated v4.9.0) (utils/math/Math.sol)\n\n\n\n/**\n * @dev Standard math utilities missing in the Solidity language.\n */\nlibrary MathUpgradeable {\n    enum Rounding {\n        Down, // Toward negative infinity\n        Up, // Toward infinity\n        Zero // Toward zero\n    }\n\n    /**\n     * @dev Returns the largest of two numbers.\n     */\n    function max(uint256 a, uint256 b) internal pure returns (uint256) {\n        return a > b ? a : b;\n    }\n\n    /**\n     * @dev Returns the smallest of two numbers.\n     */\n    function min(uint256 a, uint256 b) internal pure returns (uint256) {\n        return a < b ? a : b;\n    }\n\n    /**\n     * @dev Returns the average of two numbers. The result is rounded towards\n     * zero.\n     */\n    function average(uint256 a, uint256 b) internal pure returns (uint256) {\n        // (a + b) / 2 can overflow.\n        return (a & b) + (a ^ b) / 2;\n    }\n\n    /**\n     * @dev Returns the ceiling of the division of two numbers.\n     *\n     * This differs from standard division with `/` in that it rounds up instead\n     * of rounding down.\n     */\n    function ceilDiv(uint256 a, uint256 b) internal pure returns (uint256) {\n        // (a + b - 1) / b can overflow on addition, so we distribute.\n        return a == 0 ? 0 : (a - 1) / b + 1;\n    }\n\n    /**\n     * @notice Calculates floor(x * y / denominator) with full precision. Throws if result overflows a uint256 or denominator == 0\n     * @dev Original credit to Remco Bloemen under MIT license (https://xn--2-umb.com/21/muldiv)\n     * with further edits by Uniswap Labs also under MIT license.\n     */\n    function mulDiv(uint256 x, uint256 y, uint256 denominator) internal pure returns (uint256 result) {\n        unchecked {\n            // 512-bit multiply [prod1 prod0] = x * y. Compute the product mod 2^256 and mod 2^256 - 1, then use\n            // use the Chinese Remainder Theorem to reconstruct the 512 bit result. The result is stored in two 256\n            // variables such that product = prod1 * 2^256 + prod0.\n            uint256 prod0; // Least significant 256 bits of the product\n            uint256 prod1; // Most significant 256 bits of the product\n            assembly {\n                let mm := mulmod(x, y, not(0))\n                prod0 := mul(x, y)\n                prod1 := sub(sub(mm, prod0), lt(mm, prod0))\n            }\n\n            // Handle non-overflow cases, 256 by 256 division.\n            if (prod1 == 0) {\n                // Solidity will revert if denominator == 0, unlike the div opcode on its own.\n                // The surrounding unchecked block does not change this fact.\n                // See https://docs.soliditylang.org/en/latest/control-structures.html#checked-or-unchecked-arithmetic.\n                return prod0 / denominator;\n            }\n\n            // Make sure the result is less than 2^256. Also prevents denominator == 0.\n            require(denominator > prod1, \"Math: mulDiv overflow\");\n\n            ///////////////////////////////////////////////\n            // 512 by 256 division.\n            ///////////////////////////////////////////////\n\n            // Make division exact by subtracting the remainder from [prod1 prod0].\n            uint256 remainder;\n            assembly {\n                // Compute remainder using mulmod.\n                remainder := mulmod(x, y, denominator)\n\n                // Subtract 256 bit number from 512 bit number.\n                prod1 := sub(prod1, gt(remainder, prod0))\n                prod0 := sub(prod0, remainder)\n            }\n\n            // Factor powers of two out of denominator and compute largest power of two divisor of denominator. Always >= 1.\n            // See https://cs.stackexchange.com/q/138556/92363.\n\n            // Does not overflow because the denominator cannot be zero at this stage in the function.\n            uint256 twos = denominator & (~denominator + 1);\n            assembly {\n                // Divide denominator by twos.\n                denominator := div(denominator, twos)\n\n                // Divide [prod1 prod0] by twos.\n                prod0 := div(prod0, twos)\n\n                // Flip twos such that it is 2^256 / twos. If twos is zero, then it becomes one.\n                twos := add(div(sub(0, twos), twos), 1)\n            }\n\n            // Shift in bits from prod1 into prod0.\n            prod0 |= prod1 * twos;\n\n            // Invert denominator mod 2^256. Now that denominator is an odd number, it has an inverse modulo 2^256 such\n            // that denominator * inv = 1 mod 2^256. Compute the inverse by starting with a seed that is correct for\n            // four bits. That is, denominator * inv = 1 mod 2^4.\n            uint256 inverse = (3 * denominator) ^ 2;\n\n            // Use the Newton-Raphson iteration to improve the precision. Thanks to Hensel's lifting lemma, this also works\n            // in modular arithmetic, doubling the correct bits in each step.\n            inverse *= 2 - denominator * inverse; // inverse mod 2^8\n            inverse *= 2 - denominator * inverse; // inverse mod 2^16\n            inverse *= 2 - denominator * inverse; // inverse mod 2^32\n            inverse *= 2 - denominator * inverse; // inverse mod 2^64\n            inverse *= 2 - denominator * inverse; // inverse mod 2^128\n            inverse *= 2 - denominator * inverse; // inverse mod 2^256\n\n            // Because the division is now exact we can divide by multiplying with the modular inverse of denominator.\n            // This will give us the correct result modulo 2^256. Since the preconditions guarantee that the outcome is\n            // less than 2^256, this is the final result. We don't need to compute the high bits of the result and prod1\n            // is no longer required.\n            result = prod0 * inverse;\n            return result;\n        }\n    }\n\n    /**\n     * @notice Calculates x * y / denominator with full precision, following the selected rounding direction.\n     */\n    function mulDiv(uint256 x, uint256 y, uint256 denominator, Rounding rounding) internal pure returns (uint256) {\n        uint256 result = mulDiv(x, y, denominator);\n        if (rounding == Rounding.Up && mulmod(x, y, denominator) > 0) {\n            result += 1;\n        }\n        return result;\n    }\n\n    /**\n     * @dev Returns the square root of a number. If the number is not a perfect square, the value is rounded down.\n     *\n     * Inspired by Henry S. Warren, Jr.'s \"Hacker's Delight\" (Chapter 11).\n     */\n    function sqrt(uint256 a) internal pure returns (uint256) {\n        if (a == 0) {\n            return 0;\n        }\n\n        // For our first guess, we get the biggest power of 2 which is smaller than the square root of the target.\n        //\n        // We know that the \"msb\" (most significant bit) of our target number `a` is a power of 2 such that we have\n        // `msb(a) <= a < 2*msb(a)`. This value can be written `msb(a)=2**k` with `k=log2(a)`.\n        //\n        // This can be rewritten `2**log2(a) <= a < 2**(log2(a) + 1)`\n        //  `sqrt(2**k) <= sqrt(a) < sqrt(2**(k+1))`\n        //  `2**(k/2) <= sqrt(a) < 2**((k+1)/2) <= 2**(k/2 + 1)`\n        //\n        // Consequently, `2**(log2(a) / 2)` is a good first approximation of `sqrt(a)` with at least 1 correct bit.\n        uint256 result = 1 << (log2(a) >> 1);\n\n        // At this point `result` is an estimation with one bit of precision. We know the true value is a uint128,\n        // since it is the square root of a uint256. Newton's method converges quadratically (precision doubles at\n        // every iteration). We thus need at most 7 iteration to turn our partial result with one bit of precision\n        // into the expected uint128 result.\n        unchecked {\n            result = (result + a / result) >> 1;\n            result = (result + a / result) >> 1;\n            result = (result + a / result) >> 1;\n            result = (result + a / result) >> 1;\n            result = (result + a / result) >> 1;\n            result = (result + a / result) >> 1;\n            result = (result + a / result) >> 1;\n            return min(result, a / result);\n        }\n    }\n\n    /**\n     * @notice Calculates sqrt(a), following the selected rounding direction.\n     */\n    function sqrt(uint256 a, Rounding rounding) internal pure returns (uint256) {\n        unchecked {\n            uint256 result = sqrt(a);\n            return result + (rounding == Rounding.Up && result * result < a ? 1 : 0);\n        }\n    }\n\n    /**\n     * @dev Return the log in base 2, rounded down, of a positive value.\n     * Returns 0 if given 0.\n     */\n    function log2(uint256 value) internal pure returns (uint256) {\n        uint256 result = 0;\n        unchecked {\n            if (value >> 128 > 0) {\n                value >>= 128;\n                result += 128;\n            }\n            if (value >> 64 > 0) {\n                value >>= 64;\n                result += 64;\n            }\n            if (value >> 32 > 0) {\n                value >>= 32;\n                result += 32;\n            }\n            if (value >> 16 > 0) {\n                value >>= 16;\n                result += 16;\n            }\n            if (value >> 8 > 0) {\n                value >>= 8;\n                result += 8;\n            }\n            if (value >> 4 > 0) {\n                value >>= 4;\n                result += 4;\n            }\n            if (value >> 2 > 0) {\n                value >>= 2;\n                result += 2;\n            }\n            if (value >> 1 > 0) {\n                result += 1;\n            }\n        }\n        return result;\n    }\n\n    /**\n     * @dev Return the log in base 2, following the selected rounding direction, of a positive value.\n     * Returns 0 if given 0.\n     */\n    function log2(uint256 value, Rounding rounding) internal pure returns (uint256) {\n        unchecked {\n            uint256 result = log2(value);\n            return result + (rounding == Rounding.Up && 1 << result < value ? 1 : 0);\n        }\n    }\n\n    /**\n     * @dev Return the log in base 10, rounded down, of a positive value.\n     * Returns 0 if given 0.\n     */\n    function log10(uint256 value) internal pure returns (uint256) {\n        uint256 result = 0;\n        unchecked {\n            if (value >= 10 ** 64) {\n                value /= 10 ** 64;\n                result += 64;\n            }\n            if (value >= 10 ** 32) {\n                value /= 10 ** 32;\n                result += 32;\n            }\n            if (value >= 10 ** 16) {\n                value /= 10 ** 16;\n                result += 16;\n            }\n            if (value >= 10 ** 8) {\n                value /= 10 ** 8;\n                result += 8;\n            }\n            if (value >= 10 ** 4) {\n                value /= 10 ** 4;\n                result += 4;\n            }\n            if (value >= 10 ** 2) {\n                value /= 10 ** 2;\n                result += 2;\n            }\n            if (value >= 10 ** 1) {\n                result += 1;\n            }\n        }\n        return result;\n    }\n\n    /**\n     * @dev Return the log in base 10, following the selected rounding direction, of a positive value.\n     * Returns 0 if given 0.\n     */\n    function log10(uint256 value, Rounding rounding) internal pure returns (uint256) {\n        unchecked {\n            uint256 result = log10(value);\n            return result + (rounding == Rounding.Up && 10 ** result < value ? 1 : 0);\n        }\n    }\n\n    /**\n     * @dev Return the log in base 256, rounded down, of a positive value.\n     * Returns 0 if given 0.\n     *\n     * Adding one to the result gives the number of pairs of hex symbols needed to represent `value` as a hex string.\n     */\n    function log256(uint256 value) internal pure returns (uint256) {\n        uint256 result = 0;\n        unchecked {\n            if (value >> 128 > 0) {\n                value >>= 128;\n                result += 16;\n            }\n            if (value >> 64 > 0) {\n                value >>= 64;\n                result += 8;\n            }\n            if (value >> 32 > 0) {\n                value >>= 32;\n                result += 4;\n            }\n            if (value >> 16 > 0) {\n                value >>= 16;\n                result += 2;\n            }\n            if (value >> 8 > 0) {\n                result += 1;\n            }\n        }\n        return result;\n    }\n\n    /**\n     * @dev Return the log in base 256, following the selected rounding direction, of a positive value.\n     * Returns 0 if given 0.\n     */\n    function log256(uint256 value, Rounding rounding) internal pure returns (uint256) {\n        unchecked {\n            uint256 result = log256(value);\n            return result + (rounding == Rounding.Up && 1 << (result << 3) < value ? 1 : 0);\n        }\n    }\n}\n\n// File: @openzeppelin/contracts-upgradeable/utils/math/SignedMathUpgradeable.sol\n\n\n// OpenZeppelin Contracts (last updated v4.8.0) (utils/math/SignedMath.sol)\n\n\n\n/**\n * @dev Standard signed math utilities missing in the Solidity language.\n */\nlibrary SignedMathUpgradeable {\n    /**\n     * @dev Returns the largest of two signed numbers.\n     */\n    function max(int256 a, int256 b) internal pure returns (int256) {\n        return a > b ? a : b;\n    }\n\n    /**\n     * @dev Returns the smallest of two signed numbers.\n     */\n    function min(int256 a, int256 b) internal pure returns (int256) {\n        return a < b ? a : b;\n    }\n\n    /**\n     * @dev Returns the average of two signed numbers without overflow.\n     * The result is rounded towards zero.\n     */\n    function average(int256 a, int256 b) internal pure returns (int256) {\n        // Formula from the book \"Hacker's Delight\"\n        int256 x = (a & b) + ((a ^ b) >> 1);\n        return x + (int256(uint256(x) >> 255) & (a ^ b));\n    }\n\n    /**\n     * @dev Returns the absolute unsigned value of a signed value.\n     */\n    function abs(int256 n) internal pure returns (uint256) {\n        unchecked {\n            // must be unchecked in order to support `n = type(int256).min`\n            return uint256(n >= 0 ? n : -n);\n        }\n    }\n}\n\n// File: @openzeppelin/contracts-upgradeable/utils/StringsUpgradeable.sol\n\n\n// OpenZeppelin Contracts (last updated v4.9.0) (utils/Strings.sol)\n\n\n\n\n/**\n * @dev String operations.\n */\nlibrary StringsUpgradeable {\n    bytes16 private constant _SYMBOLS = \"0123456789abcdef\";\n    uint8 private constant _ADDRESS_LENGTH = 20;\n\n    /**\n     * @dev Converts a `uint256` to its ASCII `string` decimal representation.\n     */\n    function toString(uint256 value) internal pure returns (string memory) {\n        unchecked {\n            uint256 length = MathUpgradeable.log10(value) + 1;\n            string memory buffer = new string(length);\n            uint256 ptr;\n            /// @solidity memory-safe-assembly\n            assembly {\n                ptr := add(buffer, add(32, length))\n            }\n            while (true) {\n                ptr--;\n                /// @solidity memory-safe-assembly\n                assembly {\n                    mstore8(ptr, byte(mod(value, 10), _SYMBOLS))\n                }\n                value /= 10;\n                if (value == 0) break;\n            }\n            return buffer;\n        }\n    }\n\n    /**\n     * @dev Converts a `int256` to its ASCII `string` decimal representation.\n     */\n    function toString(int256 value) internal pure returns (string memory) {\n        return string(abi.encodePacked(value < 0 ? \"-\" : \"\", toString(SignedMathUpgradeable.abs(value))));\n    }\n\n    /**\n     * @dev Converts a `uint256` to its ASCII `string` hexadecimal representation.\n     */\n    function toHexString(uint256 value) internal pure returns (string memory) {\n        unchecked {\n            return toHexString(value, MathUpgradeable.log256(value) + 1);\n        }\n    }\n\n    /**\n     * @dev Converts a `uint256` to its ASCII `string` hexadecimal representation with fixed length.\n     */\n    function toHexString(uint256 value, uint256 length) internal pure returns (string memory) {\n        bytes memory buffer = new bytes(2 * length + 2);\n        buffer[0] = \"0\";\n        buffer[1] = \"x\";\n        for (uint256 i = 2 * length + 1; i > 1; --i) {\n            buffer[i] = _SYMBOLS[value & 0xf];\n            value >>= 4;\n        }\n        require(value == 0, \"Strings: hex length insufficient\");\n        return string(buffer);\n    }\n\n    /**\n     * @dev Converts an `address` with fixed length of 20 bytes to its not checksummed ASCII `string` hexadecimal representation.\n     */\n    function toHexString(address addr) internal pure returns (string memory) {\n        return toHexString(uint256(uint160(addr)), _ADDRESS_LENGTH);\n    }\n\n    /**\n     * @dev Returns true if the two strings are equal.\n     */\n    function equal(string memory a, string memory b) internal pure returns (bool) {\n        return keccak256(bytes(a)) == keccak256(bytes(b));\n    }\n}\n\n// File: @openzeppelin/contracts-upgradeable/utils/introspection/IERC165Upgradeable.sol\n\n\n// OpenZeppelin Contracts v4.4.1 (utils/introspection/IERC165.sol)\n\n\n\n/**\n * @dev Interface of the ERC165 standard, as defined in the\n * https://eips.ethereum.org/EIPS/eip-165[EIP].\n *\n * Implementers can declare support of contract interfaces, which can then be\n * queried by others ({ERC165Checker}).\n *\n * For an implementation, see {ERC165}.\n */\ninterface IERC165Upgradeable {\n    /**\n     * @dev Returns true if this contract implements the interface defined by\n     * `interfaceId`. See the corresponding\n     * https://eips.ethereum.org/EIPS/eip-165#how-interfaces-are-identified[EIP section]\n     * to learn more about how these ids are created.\n     *\n     * This function call must use less than 30 000 gas.\n     */\n    function supportsInterface(bytes4 interfaceId) external view returns (bool);\n}\n\n// File: @openzeppelin/contracts-upgradeable/token/ERC721/IERC721ReceiverUpgradeable.sol\n\n\n// OpenZeppelin Contracts (last updated v4.6.0) (token/ERC721/IERC721Receiver.sol)\n\n\n\n/**\n * @title ERC721 token receiver interface\n * @dev Interface for any contract that wants to support safeTransfers\n * from ERC721 asset contracts.\n */\ninterface IERC721ReceiverUpgradeable {\n    /**\n     * @dev Whenever an {IERC721} `tokenId` token is transferred to this contract via {IERC721-safeTransferFrom}\n     * by `operator` from `from`, this function is called.\n     *\n     * It must return its Solidity selector to confirm the token transfer.\n     * If any other value is returned or the interface is not implemented by the recipient, the transfer will be reverted.\n     *\n     * The selector can be obtained in Solidity with `IERC721Receiver.onERC721Received.selector`.\n     */\n    function onERC721Received(\n        address operator,\n        address from,\n        uint256 tokenId,\n        bytes calldata data\n    ) external returns (bytes4);\n}\n\n// File: @openzeppelin/contracts-upgradeable/token/ERC721/IERC721Upgradeable.sol\n\n\n// OpenZeppelin Contracts (last updated v4.9.0) (token/ERC721/IERC721.sol)\n\n\n\n/**\n * @dev Required interface of an ERC721 compliant contract.\n */\ninterface IERC721Upgradeable is IERC165Upgradeable {\n    /**\n     * @dev Emitted when `tokenId` token is transferred from `from` to `to`.\n     */\n    event Transfer(address indexed from, address indexed to, uint256 indexed tokenId);\n\n    /**\n     * @dev Emitted when `owner` enables `approved` to manage the `tokenId` token.\n     */\n    event Approval(address indexed owner, address indexed approved, uint256 indexed tokenId);\n\n    /**\n     * @dev Emitted when `owner` enables or disables (`approved`) `operator` to manage all of its assets.\n     */\n    event ApprovalForAll(address indexed owner, address indexed operator, bool approved);\n\n    /**\n     * @dev Returns the number of tokens in ``owner``'s account.\n     */\n    function balanceOf(address owner) external view returns (uint256 balance);\n\n    /**\n     * @dev Returns the owner of the `tokenId` token.\n     *\n     * Requirements:\n     *\n     * - `tokenId` must exist.\n     */\n    function ownerOf(uint256 tokenId) external view returns (address owner);\n\n    /**\n     * @dev Safely transfers `tokenId` token from `from` to `to`.\n     *\n     * Requirements:\n     *\n     * - `from` cannot be the zero address.\n     * - `to` cannot be the zero address.\n     * - `tokenId` token must exist and be owned by `from`.\n     * - If the caller is not `from`, it must be approved to move this token by either {approve} or {setApprovalForAll}.\n     * - If `to` refers to a smart contract, it must implement {IERC721Receiver-onERC721Received}, which is called upon a safe transfer.\n     *\n     * Emits a {Transfer} event.\n     */\n    function safeTransferFrom(address from, address to, uint256 tokenId, bytes calldata data) external;\n\n    /**\n     * @dev Safely transfers `tokenId` token from `from` to `to`, checking first that contract recipients\n     * are aware of the ERC721 protocol to prevent tokens from being forever locked.\n     *\n     * Requirements:\n     *\n     * - `from` cannot be the zero address.\n     * - `to` cannot be the zero address.\n     * - `tokenId` token must exist and be owned by `from`.\n     * - If the caller is not `from`, it must have been allowed to move this token by either {approve} or {setApprovalForAll}.\n     * - If `to` refers to a smart contract, it must implement {IERC721Receiver-onERC721Received}, which is called upon a safe transfer.\n     *\n     * Emits a {Transfer} event.\n     */\n    function safeTransferFrom(address from, address to, uint256 tokenId) external;\n\n    /**\n     * @dev Transfers `tokenId` token from `from` to `to`.\n     *\n     * WARNING: Note that the caller is responsible to confirm that the recipient is capable of receiving ERC721\n     * or else they may be permanently lost. Usage of {safeTransferFrom} prevents loss, though the caller must\n     * understand this adds an external call which potentially creates a reentrancy vulnerability.\n     *\n     * Requirements:\n     *\n     * - `from` cannot be the zero address.\n     * - `to` cannot be the zero address.\n     * - `tokenId` token must be owned by `from`.\n     * - If the caller is not `from`, it must be approved to move this token by either {approve} or {setApprovalForAll}.\n     *\n     * Emits a {Transfer} event.\n     */\n    function transferFrom(address from, address to, uint256 tokenId) external;\n\n    /**\n     * @dev Gives permission to `to` to transfer `tokenId` token to another account.\n     * The approval is cleared when the token is transferred.\n     *\n     * Only a single account can be approved at a time, so approving the zero address clears previous approvals.\n     *\n     * Requirements:\n     *\n     * - The caller must own the token or be an approved operator.\n     * - `tokenId` must exist.\n     *\n     * Emits an {Approval} event.\n     */\n    function approve(address to, uint256 tokenId) external;\n\n    /**\n     * @dev Approve or remove `operator` as an operator for the caller.\n     * Operators can call {transferFrom} or {safeTransferFrom} for any token owned by the caller.\n     *\n     * Requirements:\n     *\n     * - The `operator` cannot be the caller.\n     *\n     * Emits an {ApprovalForAll} event.\n     */\n    function setApprovalForAll(address operator, bool approved) external;\n\n    /**\n     * @dev Returns the account approved for `tokenId` token.\n     *\n     * Requirements:\n     *\n     * - `tokenId` must exist.\n     */\n    function getApproved(uint256 tokenId) external view returns (address operator);\n\n    /**\n     * @dev Returns if the `operator` is allowed to manage all of the assets of `owner`.\n     *\n     * See {setApprovalForAll}\n     */\n    function isApprovedForAll(address owner, address operator) external view returns (bool);\n}\n\n// File: @openzeppelin/contracts-upgradeable/proxy/utils/Initializable.sol\n\n\n// OpenZeppelin Contracts (last updated v4.9.0) (proxy/utils/Initializable.sol)\n\n\n\n/**\n * @dev This is a base contract to aid in writing upgradeable contracts, or any kind of contract that will be deployed\n * behind a proxy. Since proxied contracts do not make use of a constructor, it's common to move constructor logic to an\n * external initializer function, usually called `initialize`. It then becomes necessary to protect this initializer\n * function so it can only be called once. The {initializer} modifier provided by this contract will have this effect.\n *\n * The initialization functions use a version number. Once a version number is used, it is consumed and cannot be\n * reused. This mechanism prevents re-execution of each \"step\" but allows the creation of new initialization steps in\n * case an upgrade adds a module that needs to be initialized.\n *\n * For example:\n *\n * [.hljs-theme-light.nopadding]\n * ```solidity\n * contract MyToken is ERC20Upgradeable {\n *     function initialize() initializer public {\n *         __ERC20_init(\"MyToken\", \"MTK\");\n *     }\n * }\n *\n * contract MyTokenV2 is MyToken, ERC20PermitUpgradeable {\n *     function initializeV2() reinitializer(2) public {\n *         __ERC20Permit_init(\"MyToken\");\n *     }\n * }\n * ```\n *\n * TIP: To avoid leaving the proxy in an uninitialized state, the initializer function should be called as early as\n * possible by providing the encoded function call as the `_data` argument to {ERC1967Proxy-constructor}.\n *\n * CAUTION: When used with inheritance, manual care must be taken to not invoke a parent initializer twice, or to ensure\n * that all initializers are idempotent. This is not verified automatically as constructors are by Solidity.\n *\n * [CAUTION]\n * ====\n * Avoid leaving a contract uninitialized.\n *\n * An uninitialized contract can be taken over by an attacker. This applies to both a proxy and its implementation\n * contract, which may impact the proxy. To prevent the implementation contract from being used, you should invoke\n * the {_disableInitializers} function in the constructor to automatically lock it when it is deployed:\n *\n * [.hljs-theme-light.nopadding]\n * ```\n * /// @custom:oz-upgrades-unsafe-allow constructor\n * constructor() {\n *     _disableInitializers();\n * }\n * ```\n * ====\n */\nabstract contract Initializable {\n    /**\n     * @dev Indicates that the contract has been initialized.\n     * @custom:oz-retyped-from bool\n     */\n    uint8 private _initialized;\n\n    /**\n     * @dev Indicates that the contract is in the process of being initialized.\n     */\n    bool private _initializing;\n\n    /**\n     * @dev Triggered when the contract has been initialized or reinitialized.\n     */\n    event Initialized(uint8 version);\n\n    /**\n     * @dev A modifier that defines a protected initializer function that can be invoked at most once. In its scope,\n     * `onlyInitializing` functions can be used to initialize parent contracts.\n     *\n     * Similar to `reinitializer(1)`, except that functions marked with `initializer` can be nested in the context of a\n     * constructor.\n     *\n     * Emits an {Initialized} event.\n     */\n    modifier initializer() {\n        bool isTopLevelCall = !_initializing;\n        require(\n            (isTopLevelCall && _initialized < 1) || (!AddressUpgradeable.isContract(address(this)) && _initialized == 1),\n            \"Initializable: contract is already initialized\"\n        );\n        _initialized = 1;\n        if (isTopLevelCall) {\n            _initializing = true;\n        }\n        _;\n        if (isTopLevelCall) {\n            _initializing = false;\n            emit Initialized(1);\n        }\n    }\n\n    /**\n     * @dev A modifier that defines a protected reinitializer function that can be invoked at most once, and only if the\n     * contract hasn't been initialized to a greater version before. In its scope, `onlyInitializing` functions can be\n     * used to initialize parent contracts.\n     *\n     * A reinitializer may be used after the original initialization step. This is essential to configure modules that\n     * are added through upgrades and that require initialization.\n     *\n     * When `version` is 1, this modifier is similar to `initializer`, except that functions marked with `reinitializer`\n     * cannot be nested. If one is invoked in the context of another, execution will revert.\n     *\n     * Note that versions can jump in increments greater than 1; this implies that if multiple reinitializers coexist in\n     * a contract, executing them in the right order is up to the developer or operator.\n     *\n     * WARNING: setting the version to 255 will prevent any future reinitialization.\n     *\n     * Emits an {Initialized} event.\n     */\n    modifier reinitializer(uint8 version) {\n        require(!_initializing && _initialized < version, \"Initializable: contract is already initialized\");\n        _initialized = version;\n        _initializing = true;\n        _;\n        _initializing = false;\n        emit Initialized(version);\n    }\n\n    /**\n     * @dev Modifier to protect an initialization function so that it can only be invoked by functions with the\n     * {initializer} and {reinitializer} modifiers, directly or indirectly.\n     */\n    modifier onlyInitializing() {\n        require(_initializing, \"Initializable: contract is not initializing\");\n        _;\n    }\n\n    /**\n     * @dev Locks the contract, preventing any future reinitialization. This cannot be part of an initializer call.\n     * Calling this in the constructor of a contract will prevent that contract from being initialized or reinitialized\n     * to any version. It is recommended to use this to lock implementation contracts that are designed to be called\n     * through proxies.\n     *\n     * Emits an {Initialized} event the first time it is successfully executed.\n     */\n    function _disableInitializers() internal virtual {\n        require(!_initializing, \"Initializable: contract is initializing\");\n        if (_initialized != type(uint8).max) {\n            _initialized = type(uint8).max;\n            emit Initialized(type(uint8).max);\n        }\n    }\n\n    /**\n     * @dev Returns the highest version that has been initialized. See {reinitializer}.\n     */\n    function _getInitializedVersion() internal view returns (uint8) {\n        return _initialized;\n    }\n\n    /**\n     * @dev Returns `true` if the contract is currently initializing. See {onlyInitializing}.\n     */\n    function _isInitializing() internal view returns (bool) {\n        return _initializing;\n    }\n}\n\n// File: @openzeppelin/contracts-upgradeable/utils/ContextUpgradeable.sol\n\n\n// OpenZeppelin Contracts v4.4.1 (utils/Context.sol)\n\n\n\n/**\n * @dev Provides information about the current execution context, including the\n * sender of the transaction and its data. While these are generally available\n * via msg.sender and msg.data, they should not be accessed in such a direct\n * manner, since when dealing with meta-transactions the account sending and\n * paying for execution may not be the actual sender (as far as an application\n * is concerned).\n *\n * This contract is only required for intermediate, library-like contracts.\n */\nabstract contract ContextUpgradeable is Initializable {\n    function __Context_init() internal onlyInitializing {\n    }\n\n    function __Context_init_unchained() internal onlyInitializing {\n    }\n    function _msgSender() internal view virtual returns (address) {\n        return msg.sender;\n    }\n\n    function _msgData() internal view virtual returns (bytes calldata) {\n        return msg.data;\n    }\n\n    /**\n     * @dev This empty reserved space is put in place to allow future versions to add new\n     * variables without shifting down storage in the inheritance chain.\n     * See https://docs.openzeppelin.com/contracts/4.x/upgradeable#storage_gaps\n     */\n    uint256[50] private __gap;\n}\n\n// File: @openzeppelin/contracts-upgradeable/token/ERC721/extensions/IERC721MetadataUpgradeable.sol\n\n\n// OpenZeppelin Contracts v4.4.1 (token/ERC721/extensions/IERC721Metadata.sol)\n\n\n\n/**\n * @title ERC-721 Non-Fungible Token Standard, optional metadata extension\n * @dev See https://eips.ethereum.org/EIPS/eip-721\n */\ninterface IERC721MetadataUpgradeable is IERC721Upgradeable {\n    /**\n     * @dev Returns the token collection name.\n     */\n    function name() external view returns (string memory);\n\n    /**\n     * @dev Returns the token collection symbol.\n     */\n    function symbol() external view returns (string memory);\n\n    /**\n     * @dev Returns the Uniform Resource Identifier (URI) for `tokenId` token.\n     */\n    function tokenURI(uint256 tokenId) external view returns (string memory);\n}\n\n// File: @openzeppelin/contracts-upgradeable/security/ReentrancyGuardUpgradeable.sol\n\n\n// OpenZeppelin Contracts (last updated v4.9.0) (security/ReentrancyGuard.sol)\n\n\n\n/**\n * @dev Contract module that helps prevent reentrant calls to a function.\n *\n * Inheriting from `ReentrancyGuard` will make the {nonReentrant} modifier\n * available, which can be applied to functions to make sure there are no nested\n * (reentrant) calls to them.\n *\n * Note that because there is a single `nonReentrant` guard, functions marked as\n * `nonReentrant` may not call one another. This can be worked around by making\n * those functions `private`, and then adding `external` `nonReentrant` entry\n * points to them.\n *\n * TIP: If you would like to learn more about reentrancy and alternative ways\n * to protect against it, check out our blog post\n * https://blog.openzeppelin.com/reentrancy-after-istanbul/[Reentrancy After Istanbul].\n */\nabstract contract ReentrancyGuardUpgradeable is Initializable {\n    // Booleans are more expensive than uint256 or any type that takes up a full\n    // word because each write operation emits an extra SLOAD to first read the\n    // slot's contents, replace the bits taken up by the boolean, and then write\n    // back. This is the compiler's defense against contract upgrades and\n    // pointer aliasing, and it cannot be disabled.\n\n    // The values being non-zero value makes deployment a bit more expensive,\n    // but in exchange the refund on every call to nonReentrant will be lower in\n    // amount. Since refunds are capped to a percentage of the total\n    // transaction's gas, it is best to keep them low in cases like this one, to\n    // increase the likelihood of the full refund coming into effect.\n    uint256 private constant _NOT_ENTERED = 1;\n    uint256 private constant _ENTERED = 2;\n\n    uint256 private _status;\n\n    function __ReentrancyGuard_init() internal onlyInitializing {\n        __ReentrancyGuard_init_unchained();\n    }\n\n    function __ReentrancyGuard_init_unchained() internal onlyInitializing {\n        _status = _NOT_ENTERED;\n    }\n\n    /**\n     * @dev Prevents a contract from calling itself, directly or indirectly.\n     * Calling a `nonReentrant` function from another `nonReentrant`\n     * function is not supported. It is possible to prevent this from happening\n     * by making the `nonReentrant` function external, and making it call a\n     * `private` function that does the actual work.\n     */\n    modifier nonReentrant() {\n        _nonReentrantBefore();\n        _;\n        _nonReentrantAfter();\n    }\n\n    function _nonReentrantBefore() private {\n        // On the first call to nonReentrant, _status will be _NOT_ENTERED\n        require(_status != _ENTERED, \"ReentrancyGuard: reentrant call\");\n\n        // Any calls to nonReentrant after this point will fail\n        _status = _ENTERED;\n    }\n\n    function _nonReentrantAfter() private {\n        // By storing the original value once again, a refund is triggered (see\n        // https://eips.ethereum.org/EIPS/eip-2200)\n        _status = _NOT_ENTERED;\n    }\n\n    /**\n     * @dev Returns true if the reentrancy guard is currently set to \"entered\", which indicates there is a\n     * `nonReentrant` function in the call stack.\n     */\n    function _reentrancyGuardEntered() internal view returns (bool) {\n        return _status == _ENTERED;\n    }\n\n    /**\n     * @dev This empty reserved space is put in place to allow future versions to add new\n     * variables without shifting down storage in the inheritance chain.\n     * See https://docs.openzeppelin.com/contracts/4.x/upgradeable#storage_gaps\n     */\n    uint256[49] private __gap;\n}\n\n// File: @openzeppelin/contracts-upgradeable/interfaces/IERC2981Upgradeable.sol\n\n\n// OpenZeppelin Contracts (last updated v4.9.0) (interfaces/IERC2981.sol)\n\n\n\n/**\n * @dev Interface for the NFT Royalty Standard.\n *\n * A standardized way to retrieve royalty payment information for non-fungible tokens (NFTs) to enable universal\n * support for royalty payments across all NFT marketplaces and ecosystem participants.\n *\n * _Available since v4.5._\n */\ninterface IERC2981Upgradeable is IERC165Upgradeable {\n    /**\n     * @dev Returns how much royalty is owed and to whom, based on a sale price that may be denominated in any unit of\n     * exchange. The royalty amount is denominated and should be paid in that same unit of exchange.\n     */\n    function royaltyInfo(\n        uint256 tokenId,\n        uint256 salePrice\n    ) external view returns (address receiver, uint256 royaltyAmount);\n}\n\ninterface IOwnable {\n    function owner() external view  returns (address);\n}\n\ncontract OctoplaceMarketUpgradeable is Initializable, ReentrancyGuardUpgradeable {\n    using CountersUpgradeable for CountersUpgradeable.Counter;\n    CountersUpgradeable.Counter private _itemIds; // Id for each individual item\n    CountersUpgradeable.Counter private _itemsSold; // Number of items sold\n\n    bytes4 private constant _INTERFACE_ID_ERC2981 = 0x2a55205a;\n\n    /// @notice The super admin address / owner\n    address public superAdmin;\n    address public pendingSuperAdmin;\n\n    /// @notice The admin address\n    address public admin;\n\n    address public feeAddress;\n\n    mapping(address => address) private contractOwners;\n\n    uint256 salesFeeBasisPoints ;\n    bool public listingIsActive ;\n\n    struct MarketItem {\n        uint256 itemId;\n        address nftContract;\n        uint256 tokenId;\n        address payable seller;\n        address payable owner;\n        uint256 highestOffer;\n        address bidder;\n        string category;\n        uint256 price;\n        bool isSold;\n    }\n\n    struct Creator {\n        address creator;\n        uint256 feeBasisPoints;\n    }\n\n    //    mapping that keeps all items ever placed on the marketplace\n    mapping(uint256 => MarketItem) private idToMarketItem;\n\n    //    mapping NFT address to creators address\n    mapping(address => Creator) private AddressToCreatorFeeItem;\n\n    function init(address feeAddress_) public initializer() {\n\n        __ReentrancyGuard_init();\n        superAdmin = payable(msg.sender);\n        feeAddress = payable(feeAddress_);\n        salesFeeBasisPoints= 400;\n        listingIsActive = true;\n    }\n\n    fallback() external payable {}\n\n    receive() external payable {}\n\n    // Event called when a new Item is created\n    event MarketItemCreated(\n        uint256 indexed itemId,\n        address indexed nftContract,\n        uint256 tokenId,\n        address indexed seller,\n        address owner,\n        string category,\n        uint256 price,\n        bool isSold\n    );\n\n    // Event called when a new Item is updated\n    event MarketItemUpdated(\n        uint256 indexed itemId,\n        address indexed nftContract,\n        uint256 tokenId,\n        address indexed seller,\n        address owner,\n        string category,\n        uint256 price,\n        bool isSold\n    );\n\n    // Event called when an Item is sold\n    event MarketItemSale(\n        uint256 indexed itemId,\n        address nftContract,\n        uint256 tokenId,\n        address indexed seller,\n        address indexed owner,\n        string category,\n        uint256 price,\n        bool isSold\n    );\n\n    // Event when someone places a offer\n    event OfferPlaced(\n        uint256 indexed itemId,\n        address nftContract,\n        uint256 tokenId,\n        address indexed seller,\n        uint256 highestOffer,\n        address indexed bidder,\n        string category,\n        uint256 price\n    );\n\n    // Event when someone cancels a offer\n    event OfferCanceled(\n        uint256 indexed itemId,\n        address nftContract,\n        uint256 tokenId,\n        address indexed seller,\n        address indexed previousBidder,\n        uint256 price\n    );\n\n    // Event called TFuel is spit into creator fee, opentheta fee and payment to seller\n    event FeeSplit(\n        uint256 userPayout,\n        address indexed userAddress,\n        uint256 feePayout,\n        address indexed feeAddress,\n        uint256 creatorPayout,\n        address indexed creatorAddress\n    );\n\n    // Event called when creator base fee points are changed or set\n    event CreatorFeeChanged(\n        address indexed nftContract,\n        address indexed creatorAddress,\n        uint256 BasisFeePoints\n    );\n    // Event called when platform fee changes\n    event PlatformFeeChanged(uint256 indexed BasisFeePoints);\n    \n\n    /**\n     * @notice modifiers\n     */\n    modifier onlySuperAdmin() {\n        require(\n            msg.sender == superAdmin,\n            \"only the super admin can perform this action\"\n        );\n        _;\n    }\n\n    modifier onlyAdmin() {\n        require(\n            msg.sender == admin || msg.sender == superAdmin,\n            \"only the admin can perform this action\"\n        );\n        _;\n    }\n    \n    function retrieveMoney(uint256 amount) external onlySuperAdmin {\n        require(\n            amount <= address(this).balance,\n            \"You can not withdraw more money than there is\"\n        );\n        payable(feeAddress).transfer(amount);\n    }\n\n    function setSalesFeeBasisPoints(\n        uint256 feeBasisPoints\n    ) external onlySuperAdmin {\n        require(feeBasisPoints <= 1000, \"Sales Fee cant be higher than 10%\");\n        salesFeeBasisPoints = feeBasisPoints;\n        emit PlatformFeeChanged(salesFeeBasisPoints);\n    }\n\n    /**\n     * @notice Change the fee address\n     * @param feeAddress_ The address of the new fee address\n     */\n    function setFeeAddress(address feeAddress_) external onlySuperAdmin {\n        feeAddress = feeAddress_;\n    }\n\n    /**\n     * @notice Change the admin address\n     * @param pendingSuperAdmin_ The address of the new super admin\n     */\n    function setPendingSuperAdmin(address pendingSuperAdmin_) onlySuperAdmin external {\n        require(pendingSuperAdmin_ != address(0), \"Zero address cannot be made a super admin\");\n\t    pendingSuperAdmin = pendingSuperAdmin_;\n\t}\n\n    /**\n     * @notice approve the admin address change\n     */\n    function approvePendingSuperAdmin() onlySuperAdmin external {\n        require(pendingSuperAdmin != address(0), \"Zero address cannot be made a super admin\");\n\t    superAdmin = pendingSuperAdmin;\n\t    pendingSuperAdmin = address(0);\n\t}\n\n    /**\n     * @notice Change the admin address\n     * @param admin_ The address of the new admin\n     */\n    function setAdmin(address admin_) external onlySuperAdmin {\n        admin = admin_;\n    }\n\n    /// Check EIP2981 supported contracts fro royalties\n    function checkRoyalties(address _contract) internal view returns (bool) {\n        bool success = IERC165Upgradeable(_contract).supportsInterface(\n            _INTERFACE_ID_ERC2981\n        );\n        return success;\n    }\n\n    // Marketplace functions\n    function createMarketItem(\n        address nftContract,\n        uint256 tokenId,\n        uint256 price,\n        string calldata category\n    ) public nonReentrant {\n        require(listingIsActive == true, \"Listing disabled\");\n        require(price > 0, \"No item for free here\");\n        (bool isOwnerSupported, ) = nftContract.call(\n            abi.encodeWithSignature(\"owner()\")\n        );\n        if (isOwnerSupported) {\n            contractOwners[nftContract] = IOwnable(nftContract).owner();\n        }\n        _itemIds.increment();\n        uint256 itemId = _itemIds.current();\n        idToMarketItem[itemId] = MarketItem(\n            itemId,\n            nftContract,\n            tokenId,\n            payable(msg.sender),\n            payable(address(0)), // No owner for the item\n            0, // No offer\n            payable(address(0)), // No bidder\n            category,\n            price,\n            false\n        );\n        IERC721Upgradeable(nftContract).transferFrom(msg.sender, address(this), tokenId);\n        emit MarketItemCreated(\n            itemId,\n            nftContract,\n            tokenId,\n            msg.sender,\n            address(0),\n            category,\n            price,\n            false\n        );\n    }\n\n    function updateMarketItem(\n        address nftContract,\n        uint256 tokenId,\n        uint256 price,\n        uint256 itemId\n    ) public nonReentrant {\n        require(listingIsActive == true, \"Listing disabled\");\n        require(price > 0, \"No item for free here\");\n        require(idToMarketItem[itemId].isSold == false, \"Item is already sold\");\n        require(\n            idToMarketItem[itemId].nftContract == nftContract,\n            \"Not correct NFT address\"\n        );\n        require(\n            idToMarketItem[itemId].tokenId == tokenId,\n            \"Not correct tokenId\"\n        );\n        require(\n            idToMarketItem[itemId].seller == msg.sender,\n            \"Only seller can update Item\"\n        );\n        idToMarketItem[itemId].price = price;\n        emit MarketItemUpdated(\n            itemId,\n            nftContract,\n            tokenId,\n            msg.sender,\n            address(0),\n            idToMarketItem[itemId].category,\n            price,\n            false\n        );\n    }\n\n    function createMarketSale(\n        address nftContract,\n        uint256 itemId\n    ) public payable nonReentrant {\n        require(idToMarketItem[itemId].isSold == false, \"Item is already sold\");\n        uint256 price = idToMarketItem[itemId].price;\n        uint256 tokenId = idToMarketItem[itemId].tokenId;\n        address addressNFT = idToMarketItem[itemId].nftContract;\n        require(addressNFT == nftContract, \"Not correct NFT address\");\n        require(\n            msg.value == price,\n            \"Please make the price to be same as listing price\"\n        );\n        require(price > 0, \"Item is already canceled\");\n        address sellerAddress = idToMarketItem[itemId].seller;\n        uint marketFeeMultiplier=100;\n        uint creatorFeeMultiplier = 100;\n        uint256 creatorPayout = 0;\n        address creator = address(0);\n        // Read data from mappings\n        creator = AddressToCreatorFeeItem[addressNFT].creator;\n        if (creator != address(0x0)) {\n            // if creator is set\n            creatorPayout =\n                ((msg.value / 10000) *\n                    AddressToCreatorFeeItem[addressNFT].feeBasisPoints *\n                    creatorFeeMultiplier) /\n                100;\n            //            payable(creator).transfer(creatorPayout);\n            (bool success, ) = payable(creator).call{value: creatorPayout}(\"\");\n            require(success, \"Transfer failed.\");\n        } else {\n            if (checkRoyalties(addressNFT)) {\n                (address creatorAddr, uint256 royalityAmt) = IERC2981Upgradeable(\n                    addressNFT\n                ).royaltyInfo(tokenId, msg.value);\n                (bool success, ) = payable(creatorAddr).call{\n                    value: royalityAmt\n                }(\"\");\n                creatorPayout = royalityAmt;\n                creator = creatorAddr;\n                require(success, \"Transfer failed.\");\n            }\n        }\n        // set in marketItem\n        idToMarketItem[itemId].isSold = true;\n        idToMarketItem[itemId].owner = payable(msg.sender);\n        _itemsSold.increment();\n\n        IERC721Upgradeable(nftContract).transferFrom(address(this), msg.sender, tokenId);\n\n        // Calculate Payouts\n        uint256 feePayout = ((msg.value / 10000) *\n            salesFeeBasisPoints *\n            marketFeeMultiplier) / 100;\n        uint256 userPayout = msg.value - creatorPayout - feePayout;\n        // Payout to user and owner (opentheta)\n        //        payable(sellerAddress).transfer(userPayout);\n        //        payable(feeAddress).transfer(feePayout);\n        (bool successSeller, ) = payable(sellerAddress).call{value: userPayout}(\n            \"\"\n        );\n        require(successSeller, \"Transfer to seller failed.\");\n        (bool successOwner, ) = payable(feeAddress).call{value: feePayout}(\"\");\n        require(successOwner, \"Transfer Fee failed.\");\n        MarketItem memory item = idToMarketItem[itemId];\n        // Through events\n        emit MarketItemSale(\n            item.itemId,\n            item.nftContract,\n            item.tokenId,\n            item.seller,\n            item.owner,\n            item.category,\n            item.price,\n            true\n        );\n        emit FeeSplit(\n            userPayout,\n            sellerAddress,\n            feePayout,\n            feeAddress,\n            creatorPayout,\n            creator\n        );\n    }\n\n    function createMarketCancel(\n        address nftContract,\n        uint256 itemId\n    ) public nonReentrant {\n        require(\n            msg.sender == idToMarketItem[itemId].seller,\n            \"You have to be the seller to cancel\"\n        );\n        require(idToMarketItem[itemId].isSold == false, \"Item is already sold\");\n        // Read data from mappings\n        uint256 tokenId = idToMarketItem[itemId].tokenId;\n        // set in marketItem\n        idToMarketItem[itemId].price = 0;\n        idToMarketItem[itemId].isSold = true;\n        idToMarketItem[itemId].owner = payable(idToMarketItem[itemId].seller);\n        IERC721Upgradeable(nftContract).transferFrom(\n            address(this),\n            idToMarketItem[itemId].seller,\n            tokenId\n        );\n\n        _itemsSold.increment();\n\n        // Through event\n        emit MarketItemSale(\n            itemId,\n            idToMarketItem[itemId].nftContract,\n            idToMarketItem[itemId].tokenId,\n            idToMarketItem[itemId].seller,\n            idToMarketItem[itemId].owner,\n            idToMarketItem[itemId].category,\n            0,\n            true\n        );\n    }\n\n    function createMarketCancelAdmin(\n        address nftContract,\n        uint256 itemId\n    ) public nonReentrant onlyAdmin {\n        require(idToMarketItem[itemId].isSold == false, \"Item is already sold\");\n        // Read data from mappings\n        uint256 tokenId = idToMarketItem[itemId].tokenId;\n        // set in marketItem\n        idToMarketItem[itemId].price = 0;\n        idToMarketItem[itemId].isSold = true;\n        idToMarketItem[itemId].owner = payable(idToMarketItem[itemId].seller);\n        IERC721Upgradeable(nftContract).transferFrom(\n            address(this),\n            idToMarketItem[itemId].seller,\n            tokenId\n        );\n\n\n        _itemsSold.increment();\n\n        // Through event\n        emit MarketItemSale(\n            itemId,\n            idToMarketItem[itemId].nftContract,\n            idToMarketItem[itemId].tokenId,\n            idToMarketItem[itemId].seller,\n            idToMarketItem[itemId].owner,\n            idToMarketItem[itemId].category,\n            0,\n            true\n        );\n    }\n    \n    /*\n     * Pause listings if active\n     */\n    function flipListingState() public onlySuperAdmin {\n        listingIsActive = !listingIsActive;\n    }\n\n    // set creator fee\n    function setCreatorFeeBasisPoints(\n        uint256 feeBasisPoints,\n        address creatorAddress,\n        address NFTAddress\n    ) public onlyAdmin {\n        require(feeBasisPoints <= 1000, \"Sales Fee cant be higher than 10%\");\n        AddressToCreatorFeeItem[NFTAddress].feeBasisPoints = feeBasisPoints;\n        AddressToCreatorFeeItem[NFTAddress].creator = payable(creatorAddress);\n        emit CreatorFeeChanged(NFTAddress, creatorAddress, feeBasisPoints);\n    }\n\n    // set creator fee\n    function setCreatorFeeBasisPointsByCreator(\n        uint256 feeBasisPoints,\n        address creatorAddress,\n        address NFTAddress\n    ) public {\n        require(feeBasisPoints <= 1000, \"Sales Fee cant be higher than 10%\");\n        require(contractOwners[NFTAddress] == msg.sender, \"Not valid creator\");\n        AddressToCreatorFeeItem[NFTAddress].feeBasisPoints = feeBasisPoints;\n        AddressToCreatorFeeItem[NFTAddress].creator = payable(creatorAddress);\n        emit CreatorFeeChanged(NFTAddress, creatorAddress, feeBasisPoints);\n    }\n\n    // get creator fee\n    function getCreatorFeeBasisPoints(\n        address NFTAddress\n    ) public view returns (Creator memory) {\n        return AddressToCreatorFeeItem[NFTAddress];\n    }\n\n    function getByMarketId(uint256 id) public view returns (MarketItem memory) {\n        require(id <= _itemIds.current(), \"id doesn't exist\");\n        return idToMarketItem[id];\n    }\n    function getSalesFee() public view returns (uint256) {\n        return salesFeeBasisPoints;\n    }\n    function getContractOwner(address contract_) public view returns (address) {\n        return contractOwners[contract_];\n    }\n    \n    function getLastMarketId() public view returns (uint256) {\n        return _itemIds.current();\n    }\n}\n",
  "sourcePath": "/Users/shivam/github/contracts-upgradable/contracts/flat/OctoplaceUpgradeable.sol",
  "compiler": {
    "name": "solc",
    "version": "0.8.17+commit.8df45f5f.Emscripten.clang"
  },
  "schemaVersion": "3.4.7",
  "updatedAt": "2023-11-25T08:17:58.372Z",
  "devdoc": {
    "kind": "dev",
    "methods": {
      "setAdmin(address)": {
        "params": {
          "admin_": "The address of the new admin"
        }
      },
      "setFeeAddress(address)": {
        "params": {
          "feeAddress_": "The address of the new fee address"
        }
      },
      "setPendingSuperAdmin(address)": {
        "params": {
          "pendingSuperAdmin_": "The address of the new super admin"
        }
      }
    },
    "version": 1
  },
  "userdoc": {
    "kind": "user",
    "methods": {
      "admin()": {
        "notice": "The admin address"
      },
      "approvePendingSuperAdmin()": {
        "notice": "approve the admin address change"
      },
      "setAdmin(address)": {
        "notice": "Change the admin address"
      },
      "setFeeAddress(address)": {
        "notice": "Change the fee address"
      },
      "setPendingSuperAdmin(address)": {
        "notice": "Change the admin address"
      },
      "superAdmin()": {
        "notice": "The super admin address / owner"
      }
    },
    "version": 1
  }
}