{
  "contractName": "SwapDataUpgradeable",
  "abi": [
    {
      "anonymous": false,
      "inputs": [
        {
          "indexed": false,
          "internalType": "uint8",
          "name": "version",
          "type": "uint8"
        }
      ],
      "name": "Initialized",
      "type": "event"
    },
    {
      "anonymous": false,
      "inputs": [
        {
          "indexed": true,
          "internalType": "bytes32",
          "name": "role",
          "type": "bytes32"
        },
        {
          "indexed": true,
          "internalType": "bytes32",
          "name": "previousAdminRole",
          "type": "bytes32"
        },
        {
          "indexed": true,
          "internalType": "bytes32",
          "name": "newAdminRole",
          "type": "bytes32"
        }
      ],
      "name": "RoleAdminChanged",
      "type": "event"
    },
    {
      "anonymous": false,
      "inputs": [
        {
          "indexed": true,
          "internalType": "bytes32",
          "name": "role",
          "type": "bytes32"
        },
        {
          "indexed": true,
          "internalType": "address",
          "name": "account",
          "type": "address"
        },
        {
          "indexed": true,
          "internalType": "address",
          "name": "sender",
          "type": "address"
        }
      ],
      "name": "RoleGranted",
      "type": "event"
    },
    {
      "anonymous": false,
      "inputs": [
        {
          "indexed": true,
          "internalType": "bytes32",
          "name": "role",
          "type": "bytes32"
        },
        {
          "indexed": true,
          "internalType": "address",
          "name": "account",
          "type": "address"
        },
        {
          "indexed": true,
          "internalType": "address",
          "name": "sender",
          "type": "address"
        }
      ],
      "name": "RoleRevoked",
      "type": "event"
    },
    {
      "anonymous": false,
      "inputs": [
        {
          "components": [
            {
              "internalType": "uint256",
              "name": "listingId",
              "type": "uint256"
            },
            {
              "internalType": "contract IERC721Upgradeable",
              "name": "tokenAddress",
              "type": "address"
            },
            {
              "internalType": "uint256",
              "name": "tokenId",
              "type": "uint256"
            },
            {
              "internalType": "address",
              "name": "tokenOwner",
              "type": "address"
            },
            {
              "internalType": "uint256",
              "name": "transactionChargeBips",
              "type": "uint256"
            },
            {
              "internalType": "bool",
              "name": "isCompleted",
              "type": "bool"
            },
            {
              "internalType": "bool",
              "name": "isCancelled",
              "type": "bool"
            },
            {
              "internalType": "uint256",
              "name": "transactionCharge",
              "type": "uint256"
            }
          ],
          "indexed": false,
          "internalType": "struct SwapDataUpgradeable.SwapListing",
          "name": "listing",
          "type": "tuple"
        }
      ],
      "name": "SwapListingAdded",
      "type": "event"
    },
    {
      "anonymous": false,
      "inputs": [
        {
          "indexed": false,
          "internalType": "uint256",
          "name": "listingId",
          "type": "uint256"
        }
      ],
      "name": "SwapListingRemoved",
      "type": "event"
    },
    {
      "anonymous": false,
      "inputs": [
        {
          "components": [
            {
              "internalType": "uint256",
              "name": "listingId",
              "type": "uint256"
            },
            {
              "internalType": "contract IERC721Upgradeable",
              "name": "tokenAddress",
              "type": "address"
            },
            {
              "internalType": "uint256",
              "name": "tokenId",
              "type": "uint256"
            },
            {
              "internalType": "address",
              "name": "tokenOwner",
              "type": "address"
            },
            {
              "internalType": "uint256",
              "name": "transactionChargeBips",
              "type": "uint256"
            },
            {
              "internalType": "bool",
              "name": "isCompleted",
              "type": "bool"
            },
            {
              "internalType": "bool",
              "name": "isCancelled",
              "type": "bool"
            },
            {
              "internalType": "uint256",
              "name": "transactionCharge",
              "type": "uint256"
            }
          ],
          "indexed": false,
          "internalType": "struct SwapDataUpgradeable.SwapListing",
          "name": "listing",
          "type": "tuple"
        }
      ],
      "name": "SwapListingUpdated",
      "type": "event"
    },
    {
      "anonymous": false,
      "inputs": [
        {
          "components": [
            {
              "internalType": "uint256",
              "name": "offerId",
              "type": "uint256"
            },
            {
              "internalType": "uint256",
              "name": "listingId",
              "type": "uint256"
            },
            {
              "internalType": "contract IERC721Upgradeable",
              "name": "offerTokenAddress",
              "type": "address"
            },
            {
              "internalType": "uint256",
              "name": "offerTokenId",
              "type": "uint256"
            },
            {
              "internalType": "address",
              "name": "offerTokenOwner",
              "type": "address"
            },
            {
              "internalType": "contract IERC721Upgradeable",
              "name": "listingTokenAddress",
              "type": "address"
            },
            {
              "internalType": "uint256",
              "name": "listingTokenId",
              "type": "uint256"
            },
            {
              "internalType": "address",
              "name": "listingTokenOwner",
              "type": "address"
            },
            {
              "internalType": "uint256",
              "name": "transactionChargeBips",
              "type": "uint256"
            },
            {
              "internalType": "bool",
              "name": "isCompleted",
              "type": "bool"
            },
            {
              "internalType": "bool",
              "name": "isCancelled",
              "type": "bool"
            },
            {
              "internalType": "bool",
              "name": "isDeclined",
              "type": "bool"
            },
            {
              "internalType": "uint256",
              "name": "transactionCharge",
              "type": "uint256"
            }
          ],
          "indexed": false,
          "internalType": "struct SwapDataUpgradeable.SwapOffer",
          "name": "offer",
          "type": "tuple"
        }
      ],
      "name": "SwapOfferAdded",
      "type": "event"
    },
    {
      "anonymous": false,
      "inputs": [
        {
          "indexed": false,
          "internalType": "uint256",
          "name": "id",
          "type": "uint256"
        }
      ],
      "name": "SwapOfferRemoved",
      "type": "event"
    },
    {
      "anonymous": false,
      "inputs": [
        {
          "components": [
            {
              "internalType": "uint256",
              "name": "offerId",
              "type": "uint256"
            },
            {
              "internalType": "uint256",
              "name": "listingId",
              "type": "uint256"
            },
            {
              "internalType": "contract IERC721Upgradeable",
              "name": "offerTokenAddress",
              "type": "address"
            },
            {
              "internalType": "uint256",
              "name": "offerTokenId",
              "type": "uint256"
            },
            {
              "internalType": "address",
              "name": "offerTokenOwner",
              "type": "address"
            },
            {
              "internalType": "contract IERC721Upgradeable",
              "name": "listingTokenAddress",
              "type": "address"
            },
            {
              "internalType": "uint256",
              "name": "listingTokenId",
              "type": "uint256"
            },
            {
              "internalType": "address",
              "name": "listingTokenOwner",
              "type": "address"
            },
            {
              "internalType": "uint256",
              "name": "transactionChargeBips",
              "type": "uint256"
            },
            {
              "internalType": "bool",
              "name": "isCompleted",
              "type": "bool"
            },
            {
              "internalType": "bool",
              "name": "isCancelled",
              "type": "bool"
            },
            {
              "internalType": "bool",
              "name": "isDeclined",
              "type": "bool"
            },
            {
              "internalType": "uint256",
              "name": "transactionCharge",
              "type": "uint256"
            }
          ],
          "indexed": false,
          "internalType": "struct SwapDataUpgradeable.SwapOffer",
          "name": "offer",
          "type": "tuple"
        }
      ],
      "name": "SwapOfferUpdated",
      "type": "event"
    },
    {
      "anonymous": false,
      "inputs": [
        {
          "components": [
            {
              "internalType": "uint256",
              "name": "tradeId",
              "type": "uint256"
            },
            {
              "internalType": "uint256",
              "name": "listingId",
              "type": "uint256"
            },
            {
              "internalType": "uint256",
              "name": "offerId",
              "type": "uint256"
            }
          ],
          "indexed": false,
          "internalType": "struct SwapDataUpgradeable.Trade",
          "name": "trade",
          "type": "tuple"
        }
      ],
      "name": "TradeAdded",
      "type": "event"
    },
    {
      "inputs": [],
      "name": "DATA_MIGRATOR",
      "outputs": [
        {
          "internalType": "bytes32",
          "name": "",
          "type": "bytes32"
        }
      ],
      "stateMutability": "view",
      "type": "function"
    },
    {
      "inputs": [],
      "name": "DATA_WRITER",
      "outputs": [
        {
          "internalType": "bytes32",
          "name": "",
          "type": "bytes32"
        }
      ],
      "stateMutability": "view",
      "type": "function"
    },
    {
      "inputs": [],
      "name": "DEFAULT_ADMIN_ROLE",
      "outputs": [
        {
          "internalType": "bytes32",
          "name": "",
          "type": "bytes32"
        }
      ],
      "stateMutability": "view",
      "type": "function"
    },
    {
      "inputs": [
        {
          "internalType": "bytes32",
          "name": "role",
          "type": "bytes32"
        }
      ],
      "name": "getRoleAdmin",
      "outputs": [
        {
          "internalType": "bytes32",
          "name": "",
          "type": "bytes32"
        }
      ],
      "stateMutability": "view",
      "type": "function"
    },
    {
      "inputs": [
        {
          "internalType": "bytes32",
          "name": "role",
          "type": "bytes32"
        },
        {
          "internalType": "address",
          "name": "account",
          "type": "address"
        }
      ],
      "name": "grantRole",
      "outputs": [],
      "stateMutability": "nonpayable",
      "type": "function"
    },
    {
      "inputs": [
        {
          "internalType": "bytes32",
          "name": "role",
          "type": "bytes32"
        },
        {
          "internalType": "address",
          "name": "account",
          "type": "address"
        }
      ],
      "name": "hasRole",
      "outputs": [
        {
          "internalType": "bool",
          "name": "",
          "type": "bool"
        }
      ],
      "stateMutability": "view",
      "type": "function"
    },
    {
      "inputs": [
        {
          "internalType": "bytes32",
          "name": "role",
          "type": "bytes32"
        },
        {
          "internalType": "address",
          "name": "account",
          "type": "address"
        }
      ],
      "name": "renounceRole",
      "outputs": [],
      "stateMutability": "nonpayable",
      "type": "function"
    },
    {
      "inputs": [
        {
          "internalType": "bytes32",
          "name": "role",
          "type": "bytes32"
        },
        {
          "internalType": "address",
          "name": "account",
          "type": "address"
        }
      ],
      "name": "revokeRole",
      "outputs": [],
      "stateMutability": "nonpayable",
      "type": "function"
    },
    {
      "inputs": [
        {
          "internalType": "bytes4",
          "name": "interfaceId",
          "type": "bytes4"
        }
      ],
      "name": "supportsInterface",
      "outputs": [
        {
          "internalType": "bool",
          "name": "",
          "type": "bool"
        }
      ],
      "stateMutability": "view",
      "type": "function"
    },
    {
      "inputs": [
        {
          "internalType": "address",
          "name": "admin",
          "type": "address"
        },
        {
          "internalType": "address",
          "name": "writer",
          "type": "address"
        }
      ],
      "name": "init",
      "outputs": [],
      "stateMutability": "nonpayable",
      "type": "function"
    },
    {
      "inputs": [
        {
          "components": [
            {
              "internalType": "uint256",
              "name": "listingId",
              "type": "uint256"
            },
            {
              "internalType": "contract IERC721Upgradeable",
              "name": "tokenAddress",
              "type": "address"
            },
            {
              "internalType": "uint256",
              "name": "tokenId",
              "type": "uint256"
            },
            {
              "internalType": "address",
              "name": "tokenOwner",
              "type": "address"
            },
            {
              "internalType": "uint256",
              "name": "transactionChargeBips",
              "type": "uint256"
            },
            {
              "internalType": "bool",
              "name": "isCompleted",
              "type": "bool"
            },
            {
              "internalType": "bool",
              "name": "isCancelled",
              "type": "bool"
            },
            {
              "internalType": "uint256",
              "name": "transactionCharge",
              "type": "uint256"
            }
          ],
          "internalType": "struct SwapDataUpgradeable.SwapListing",
          "name": "listing",
          "type": "tuple"
        }
      ],
      "name": "addListing",
      "outputs": [
        {
          "internalType": "bool",
          "name": "",
          "type": "bool"
        }
      ],
      "stateMutability": "nonpayable",
      "type": "function"
    },
    {
      "inputs": [
        {
          "internalType": "uint256",
          "name": "id",
          "type": "uint256"
        }
      ],
      "name": "removeListingById",
      "outputs": [
        {
          "internalType": "bool",
          "name": "",
          "type": "bool"
        }
      ],
      "stateMutability": "nonpayable",
      "type": "function"
    },
    {
      "inputs": [
        {
          "components": [
            {
              "internalType": "uint256",
              "name": "listingId",
              "type": "uint256"
            },
            {
              "internalType": "contract IERC721Upgradeable",
              "name": "tokenAddress",
              "type": "address"
            },
            {
              "internalType": "uint256",
              "name": "tokenId",
              "type": "uint256"
            },
            {
              "internalType": "address",
              "name": "tokenOwner",
              "type": "address"
            },
            {
              "internalType": "uint256",
              "name": "transactionChargeBips",
              "type": "uint256"
            },
            {
              "internalType": "bool",
              "name": "isCompleted",
              "type": "bool"
            },
            {
              "internalType": "bool",
              "name": "isCancelled",
              "type": "bool"
            },
            {
              "internalType": "uint256",
              "name": "transactionCharge",
              "type": "uint256"
            }
          ],
          "internalType": "struct SwapDataUpgradeable.SwapListing",
          "name": "listing",
          "type": "tuple"
        }
      ],
      "name": "updateListing",
      "outputs": [
        {
          "internalType": "bool",
          "name": "",
          "type": "bool"
        }
      ],
      "stateMutability": "nonpayable",
      "type": "function"
    },
    {
      "inputs": [
        {
          "internalType": "uint256",
          "name": "id",
          "type": "uint256"
        }
      ],
      "name": "readListingById",
      "outputs": [
        {
          "components": [
            {
              "internalType": "uint256",
              "name": "listingId",
              "type": "uint256"
            },
            {
              "internalType": "contract IERC721Upgradeable",
              "name": "tokenAddress",
              "type": "address"
            },
            {
              "internalType": "uint256",
              "name": "tokenId",
              "type": "uint256"
            },
            {
              "internalType": "address",
              "name": "tokenOwner",
              "type": "address"
            },
            {
              "internalType": "uint256",
              "name": "transactionChargeBips",
              "type": "uint256"
            },
            {
              "internalType": "bool",
              "name": "isCompleted",
              "type": "bool"
            },
            {
              "internalType": "bool",
              "name": "isCancelled",
              "type": "bool"
            },
            {
              "internalType": "uint256",
              "name": "transactionCharge",
              "type": "uint256"
            }
          ],
          "internalType": "struct SwapDataUpgradeable.SwapListing",
          "name": "",
          "type": "tuple"
        }
      ],
      "stateMutability": "view",
      "type": "function"
    },
    {
      "inputs": [
        {
          "components": [
            {
              "internalType": "uint256",
              "name": "offerId",
              "type": "uint256"
            },
            {
              "internalType": "uint256",
              "name": "listingId",
              "type": "uint256"
            },
            {
              "internalType": "contract IERC721Upgradeable",
              "name": "offerTokenAddress",
              "type": "address"
            },
            {
              "internalType": "uint256",
              "name": "offerTokenId",
              "type": "uint256"
            },
            {
              "internalType": "address",
              "name": "offerTokenOwner",
              "type": "address"
            },
            {
              "internalType": "contract IERC721Upgradeable",
              "name": "listingTokenAddress",
              "type": "address"
            },
            {
              "internalType": "uint256",
              "name": "listingTokenId",
              "type": "uint256"
            },
            {
              "internalType": "address",
              "name": "listingTokenOwner",
              "type": "address"
            },
            {
              "internalType": "uint256",
              "name": "transactionChargeBips",
              "type": "uint256"
            },
            {
              "internalType": "bool",
              "name": "isCompleted",
              "type": "bool"
            },
            {
              "internalType": "bool",
              "name": "isCancelled",
              "type": "bool"
            },
            {
              "internalType": "bool",
              "name": "isDeclined",
              "type": "bool"
            },
            {
              "internalType": "uint256",
              "name": "transactionCharge",
              "type": "uint256"
            }
          ],
          "internalType": "struct SwapDataUpgradeable.SwapOffer",
          "name": "offer",
          "type": "tuple"
        }
      ],
      "name": "addOffer",
      "outputs": [
        {
          "internalType": "bool",
          "name": "",
          "type": "bool"
        }
      ],
      "stateMutability": "nonpayable",
      "type": "function"
    },
    {
      "inputs": [
        {
          "internalType": "uint256",
          "name": "id",
          "type": "uint256"
        }
      ],
      "name": "removeOfferById",
      "outputs": [
        {
          "internalType": "bool",
          "name": "",
          "type": "bool"
        }
      ],
      "stateMutability": "nonpayable",
      "type": "function"
    },
    {
      "inputs": [
        {
          "components": [
            {
              "internalType": "uint256",
              "name": "offerId",
              "type": "uint256"
            },
            {
              "internalType": "uint256",
              "name": "listingId",
              "type": "uint256"
            },
            {
              "internalType": "contract IERC721Upgradeable",
              "name": "offerTokenAddress",
              "type": "address"
            },
            {
              "internalType": "uint256",
              "name": "offerTokenId",
              "type": "uint256"
            },
            {
              "internalType": "address",
              "name": "offerTokenOwner",
              "type": "address"
            },
            {
              "internalType": "contract IERC721Upgradeable",
              "name": "listingTokenAddress",
              "type": "address"
            },
            {
              "internalType": "uint256",
              "name": "listingTokenId",
              "type": "uint256"
            },
            {
              "internalType": "address",
              "name": "listingTokenOwner",
              "type": "address"
            },
            {
              "internalType": "uint256",
              "name": "transactionChargeBips",
              "type": "uint256"
            },
            {
              "internalType": "bool",
              "name": "isCompleted",
              "type": "bool"
            },
            {
              "internalType": "bool",
              "name": "isCancelled",
              "type": "bool"
            },
            {
              "internalType": "bool",
              "name": "isDeclined",
              "type": "bool"
            },
            {
              "internalType": "uint256",
              "name": "transactionCharge",
              "type": "uint256"
            }
          ],
          "internalType": "struct SwapDataUpgradeable.SwapOffer",
          "name": "offer",
          "type": "tuple"
        }
      ],
      "name": "updateOffer",
      "outputs": [
        {
          "internalType": "bool",
          "name": "",
          "type": "bool"
        }
      ],
      "stateMutability": "nonpayable",
      "type": "function"
    },
    {
      "inputs": [
        {
          "internalType": "uint256",
          "name": "id",
          "type": "uint256"
        }
      ],
      "name": "readOfferById",
      "outputs": [
        {
          "components": [
            {
              "internalType": "uint256",
              "name": "offerId",
              "type": "uint256"
            },
            {
              "internalType": "uint256",
              "name": "listingId",
              "type": "uint256"
            },
            {
              "internalType": "contract IERC721Upgradeable",
              "name": "offerTokenAddress",
              "type": "address"
            },
            {
              "internalType": "uint256",
              "name": "offerTokenId",
              "type": "uint256"
            },
            {
              "internalType": "address",
              "name": "offerTokenOwner",
              "type": "address"
            },
            {
              "internalType": "contract IERC721Upgradeable",
              "name": "listingTokenAddress",
              "type": "address"
            },
            {
              "internalType": "uint256",
              "name": "listingTokenId",
              "type": "uint256"
            },
            {
              "internalType": "address",
              "name": "listingTokenOwner",
              "type": "address"
            },
            {
              "internalType": "uint256",
              "name": "transactionChargeBips",
              "type": "uint256"
            },
            {
              "internalType": "bool",
              "name": "isCompleted",
              "type": "bool"
            },
            {
              "internalType": "bool",
              "name": "isCancelled",
              "type": "bool"
            },
            {
              "internalType": "bool",
              "name": "isDeclined",
              "type": "bool"
            },
            {
              "internalType": "uint256",
              "name": "transactionCharge",
              "type": "uint256"
            }
          ],
          "internalType": "struct SwapDataUpgradeable.SwapOffer",
          "name": "",
          "type": "tuple"
        }
      ],
      "stateMutability": "view",
      "type": "function"
    },
    {
      "inputs": [
        {
          "components": [
            {
              "internalType": "uint256",
              "name": "tradeId",
              "type": "uint256"
            },
            {
              "internalType": "uint256",
              "name": "listingId",
              "type": "uint256"
            },
            {
              "internalType": "uint256",
              "name": "offerId",
              "type": "uint256"
            }
          ],
          "internalType": "struct SwapDataUpgradeable.Trade",
          "name": "trade",
          "type": "tuple"
        }
      ],
      "name": "addTrade",
      "outputs": [
        {
          "internalType": "bool",
          "name": "",
          "type": "bool"
        }
      ],
      "stateMutability": "nonpayable",
      "type": "function"
    },
    {
      "inputs": [
        {
          "internalType": "uint256",
          "name": "id",
          "type": "uint256"
        }
      ],
      "name": "readTradeById",
      "outputs": [
        {
          "components": [
            {
              "internalType": "uint256",
              "name": "tradeId",
              "type": "uint256"
            },
            {
              "internalType": "uint256",
              "name": "listingId",
              "type": "uint256"
            },
            {
              "internalType": "uint256",
              "name": "offerId",
              "type": "uint256"
            }
          ],
          "internalType": "struct SwapDataUpgradeable.Trade",
          "name": "",
          "type": "tuple"
        }
      ],
      "stateMutability": "view",
      "type": "function"
    },
    {
      "inputs": [],
      "name": "readAllListings",
      "outputs": [
        {
          "components": [
            {
              "internalType": "uint256",
              "name": "listingId",
              "type": "uint256"
            },
            {
              "internalType": "contract IERC721Upgradeable",
              "name": "tokenAddress",
              "type": "address"
            },
            {
              "internalType": "uint256",
              "name": "tokenId",
              "type": "uint256"
            },
            {
              "internalType": "address",
              "name": "tokenOwner",
              "type": "address"
            },
            {
              "internalType": "uint256",
              "name": "transactionChargeBips",
              "type": "uint256"
            },
            {
              "internalType": "bool",
              "name": "isCompleted",
              "type": "bool"
            },
            {
              "internalType": "bool",
              "name": "isCancelled",
              "type": "bool"
            },
            {
              "internalType": "uint256",
              "name": "transactionCharge",
              "type": "uint256"
            }
          ],
          "internalType": "struct SwapDataUpgradeable.SwapListing[]",
          "name": "",
          "type": "tuple[]"
        }
      ],
      "stateMutability": "view",
      "type": "function"
    },
    {
      "inputs": [
        {
          "internalType": "uint256",
          "name": "start",
          "type": "uint256"
        },
        {
          "internalType": "uint256",
          "name": "end",
          "type": "uint256"
        }
      ],
      "name": "readListingsByIndex",
      "outputs": [
        {
          "components": [
            {
              "internalType": "uint256",
              "name": "listingId",
              "type": "uint256"
            },
            {
              "internalType": "contract IERC721Upgradeable",
              "name": "tokenAddress",
              "type": "address"
            },
            {
              "internalType": "uint256",
              "name": "tokenId",
              "type": "uint256"
            },
            {
              "internalType": "address",
              "name": "tokenOwner",
              "type": "address"
            },
            {
              "internalType": "uint256",
              "name": "transactionChargeBips",
              "type": "uint256"
            },
            {
              "internalType": "bool",
              "name": "isCompleted",
              "type": "bool"
            },
            {
              "internalType": "bool",
              "name": "isCancelled",
              "type": "bool"
            },
            {
              "internalType": "uint256",
              "name": "transactionCharge",
              "type": "uint256"
            }
          ],
          "internalType": "struct SwapDataUpgradeable.SwapListing[]",
          "name": "list",
          "type": "tuple[]"
        }
      ],
      "stateMutability": "view",
      "type": "function"
    },
    {
      "inputs": [],
      "name": "readAllOffers",
      "outputs": [
        {
          "components": [
            {
              "internalType": "uint256",
              "name": "offerId",
              "type": "uint256"
            },
            {
              "internalType": "uint256",
              "name": "listingId",
              "type": "uint256"
            },
            {
              "internalType": "contract IERC721Upgradeable",
              "name": "offerTokenAddress",
              "type": "address"
            },
            {
              "internalType": "uint256",
              "name": "offerTokenId",
              "type": "uint256"
            },
            {
              "internalType": "address",
              "name": "offerTokenOwner",
              "type": "address"
            },
            {
              "internalType": "contract IERC721Upgradeable",
              "name": "listingTokenAddress",
              "type": "address"
            },
            {
              "internalType": "uint256",
              "name": "listingTokenId",
              "type": "uint256"
            },
            {
              "internalType": "address",
              "name": "listingTokenOwner",
              "type": "address"
            },
            {
              "internalType": "uint256",
              "name": "transactionChargeBips",
              "type": "uint256"
            },
            {
              "internalType": "bool",
              "name": "isCompleted",
              "type": "bool"
            },
            {
              "internalType": "bool",
              "name": "isCancelled",
              "type": "bool"
            },
            {
              "internalType": "bool",
              "name": "isDeclined",
              "type": "bool"
            },
            {
              "internalType": "uint256",
              "name": "transactionCharge",
              "type": "uint256"
            }
          ],
          "internalType": "struct SwapDataUpgradeable.SwapOffer[]",
          "name": "",
          "type": "tuple[]"
        }
      ],
      "stateMutability": "view",
      "type": "function"
    },
    {
      "inputs": [
        {
          "internalType": "uint256",
          "name": "start",
          "type": "uint256"
        },
        {
          "internalType": "uint256",
          "name": "end",
          "type": "uint256"
        }
      ],
      "name": "readOffersByIndex",
      "outputs": [
        {
          "components": [
            {
              "internalType": "uint256",
              "name": "offerId",
              "type": "uint256"
            },
            {
              "internalType": "uint256",
              "name": "listingId",
              "type": "uint256"
            },
            {
              "internalType": "contract IERC721Upgradeable",
              "name": "offerTokenAddress",
              "type": "address"
            },
            {
              "internalType": "uint256",
              "name": "offerTokenId",
              "type": "uint256"
            },
            {
              "internalType": "address",
              "name": "offerTokenOwner",
              "type": "address"
            },
            {
              "internalType": "contract IERC721Upgradeable",
              "name": "listingTokenAddress",
              "type": "address"
            },
            {
              "internalType": "uint256",
              "name": "listingTokenId",
              "type": "uint256"
            },
            {
              "internalType": "address",
              "name": "listingTokenOwner",
              "type": "address"
            },
            {
              "internalType": "uint256",
              "name": "transactionChargeBips",
              "type": "uint256"
            },
            {
              "internalType": "bool",
              "name": "isCompleted",
              "type": "bool"
            },
            {
              "internalType": "bool",
              "name": "isCancelled",
              "type": "bool"
            },
            {
              "internalType": "bool",
              "name": "isDeclined",
              "type": "bool"
            },
            {
              "internalType": "uint256",
              "name": "transactionCharge",
              "type": "uint256"
            }
          ],
          "internalType": "struct SwapDataUpgradeable.SwapOffer[]",
          "name": "list",
          "type": "tuple[]"
        }
      ],
      "stateMutability": "view",
      "type": "function"
    },
    {
      "inputs": [],
      "name": "readAllTrades",
      "outputs": [
        {
          "components": [
            {
              "internalType": "uint256",
              "name": "tradeId",
              "type": "uint256"
            },
            {
              "internalType": "uint256",
              "name": "listingId",
              "type": "uint256"
            },
            {
              "internalType": "uint256",
              "name": "offerId",
              "type": "uint256"
            }
          ],
          "internalType": "struct SwapDataUpgradeable.Trade[]",
          "name": "",
          "type": "tuple[]"
        }
      ],
      "stateMutability": "view",
      "type": "function"
    },
    {
      "inputs": [
        {
          "internalType": "uint256",
          "name": "start",
          "type": "uint256"
        },
        {
          "internalType": "uint256",
          "name": "end",
          "type": "uint256"
        }
      ],
      "name": "readTradesByIndex",
      "outputs": [
        {
          "components": [
            {
              "internalType": "uint256",
              "name": "tradeId",
              "type": "uint256"
            },
            {
              "internalType": "uint256",
              "name": "listingId",
              "type": "uint256"
            },
            {
              "internalType": "uint256",
              "name": "offerId",
              "type": "uint256"
            }
          ],
          "internalType": "struct SwapDataUpgradeable.Trade[]",
          "name": "list",
          "type": "tuple[]"
        }
      ],
      "stateMutability": "view",
      "type": "function"
    },
    {
      "inputs": [
        {
          "internalType": "address",
          "name": "to",
          "type": "address"
        }
      ],
      "name": "grantWriterRole",
      "outputs": [],
      "stateMutability": "nonpayable",
      "type": "function"
    }
  ],
  "bytecode": "0x608060405234801561001057600080fd5b50612309806100206000396000f3fe608060405234801561001057600080fd5b50600436106101a95760003560e01c806391d14854116100f9578063cf28153511610097578063d7aa10fc11610071578063d7aa10fc146103b6578063eadece7d146103d6578063f022e25c146103e9578063f09a40161461040957600080fd5b8063cf2815351461037d578063cff7c90e14610390578063d547741f146103a357600080fd5b8063b81603ba116100d3578063b81603ba14610322578063bf34ebc814610342578063c2c83f9a14610357578063cd07708d1461036a57600080fd5b806391d14854146102f25780639901ff6314610305578063a217fddf1461031a57600080fd5b8063366505c1116101665780635541596b116101405780635541596b146102b1578063636651bb146102c457806367722a22146102d75780639167be62146102df57600080fd5b8063366505c1146102645780634168e8971461027757806353e86fee1461029e57600080fd5b806301ffc9a7146101ae57806306f91841146101d6578063248a9ca3146101f65780632f2ff15d1461022757806331ebe3f91461023c57806336568abe14610251575b600080fd5b6101c16101bc366004611b62565b61041c565b60405190151581526020015b60405180910390f35b6101e96101e4366004611b8c565b610453565b6040516101cd9190611c7a565b610219610204366004611cc9565b60009081526065602052604090206001015490565b6040519081526020016101cd565b61023a610235366004611d07565b61062f565b005b610244610659565b6040516101cd9190611d37565b61023a61025f366004611d07565b61076a565b6101c1610272366004611deb565b6107e8565b6102197f11110fccdbb5d806b8301c3f7f399455c297483f76b3271f762b634da1a660d281565b6102446102ac366004611b8c565b610904565b6101c16102bf366004611eaa565b610a5b565b6101c16102d2366004611deb565b610bc6565b6101e9610cac565b6101c16102ed366004611eaa565b610e29565b6101c1610300366004611d07565b610f71565b6102196000805160206122b483398151915281565b610219600081565b610335610330366004611cc9565b610f9c565b6040516101cd9190611fe0565b61034a61102b565b6040516101cd9190611fef565b6101c1610365366004611cc9565b611167565b61023a610378366004612032565b6111d1565b6101c161038b366004611cc9565b6111ec565b6101c161039e36600461204f565b611256565b61023a6103b1366004611d07565b6112ef565b6103c96103c4366004611cc9565b611314565b6040516101cd91906120b9565b61034a6103e4366004611b8c565b6113e4565b6103fc6103f7366004611cc9565b61156d565b6040516101cd91906120c8565b61023a6104173660046120e9565b6115ca565b60006001600160e01b03198216637965db0b60e01b148061044d57506301ffc9a760e01b6001600160e01b03198316145b92915050565b60608282101561047e5760405162461bcd60e51b815260040161047590612117565b60405180910390fd5b6000600161048b60985490565b6104959190612164565b9050600083828611156104aa5750505061044d565b828511156104b55750815b6104bf8682612164565b6104ca906001612177565b67ffffffffffffffff8111156104e2576104e2611d8d565b60405190808252806020026020018201604052801561051b57816020015b610508611a9b565b8152602001906001900390816105005790505b5093508591505b808211610626576000828152609b602090815260409182902082516101a0810184528154815260018201549281019290925260028101546001600160a01b0390811693830193909352600381015460608301526004810154831660808301526005810154831660a0830152600681015460c0830152600781015490921660e0820152600882015461010080830191909152600983015460ff808216151561012085015291810482161515610140840152620100009004161515610160820152600a90910154610180820152846105f88885612164565b815181106106085761060861218a565b6020026020010181905250818061061e906121a0565b925050610522565b50505092915050565b60008281526065602052604090206001015461064a81611729565b6106548383611733565b505050565b60606000600161066860995490565b6106729190612164565b67ffffffffffffffff81111561068a5761068a611d8d565b6040519080825280602002602001820160405280156106df57816020015b6106cc60405180606001604052806000815260200160008152602001600081525090565b8152602001906001900390816106a85790505b50905060005b815181101561076457609c60006106fd836001612177565b815260200190815260200160002060405180606001604052908160008201548152602001600182015481526020016002820154815250508282815181106107465761074661218a565b6020026020010181905250808061075c906121a0565b9150506106e5565b50919050565b6001600160a01b03811633146107da5760405162461bcd60e51b815260206004820152602f60248201527f416363657373436f6e74726f6c3a2063616e206f6e6c792072656e6f756e636560448201526e103937b632b9903337b91039b2b63360891b6064820152608401610475565b6107e482826117b9565b5050565b60006000805160206122b483398151915261080281611729565b609754835282609a600061081560975490565b8152602080820192909252604090810160002083518155918301516001830180546001600160a01b039283166001600160a01b03199182161790915591840151600284015560608401516003840180549190921692169190911790556080820151600482015560a082015160058201805460c085015115156101000261ff00199315159390931661ffff199091161791909117905560e0909101516006909101556108c4609780546001019055565b7f418cd676c9793f75ba96025aa3d745018dc4edc4b51d104cea0af0fc7b9b0d26836040516108f39190611fe0565b60405180910390a150600192915050565b6060828210156109265760405162461bcd60e51b815260040161047590612117565b6000600161093360995490565b61093d9190612164565b9050600083828611156109525750505061044d565b8285111561095d5750815b6109678682612164565b610972906001612177565b67ffffffffffffffff81111561098a5761098a611d8d565b6040519080825280602002602001820160405280156109df57816020015b6109cc60405180606001604052806000815260200160008152602001600081525090565b8152602001906001900390816109a85790505b5093508591505b808211610626576000828152609c6020908152604091829020825160608101845281548152600182015492810192909252600201549181019190915284610a2d8885612164565b81518110610a3d57610a3d61218a565b60200260200101819052508180610a53906121a0565b9250506109e6565b60006000805160206122b4833981519152610a7581611729565b609854835282609b6000610a8860985490565b81526020808201929092526040908101600020835181559183015160018301558201516002820180546001600160a01b039283166001600160a01b03199182161790915560608401516003840155608084015160048401805491841691831691909117905560a084015160058401805491841691831691909117905560c0840151600684015560e08401516007840180549190931691161790556101008083015160088301556101208301516009830180546101408601516101608701511515620100000262ff00001991151590950261ff00199415159490941661ffff1990921691909117929092179190911691909117905561018090910151600a90910155610b97609880546001019055565b7f421ea47ef6e721c8687eff283e3cae83ec79fb379ac7e5be4285c4f4c68c3e54836040516108f391906120b9565b60006000805160206122b4833981519152610be081611729565b82516000908152609a602090815260409182902085518155908501516001820180546001600160a01b039283166001600160a01b03199182161790915583870151600284015560608701516003840180549190931691161790556080850151600482015560a085015160058201805460c088015115156101000261ff00199315159390931661ffff199091161791909117905560e0850151600690910155517ffac338531d5b0b2165f434d6b3974a2d388f546fee8aae7ce385671015eeaacb906108f3908590611fe0565b606060006001610cbb60985490565b610cc59190612164565b67ffffffffffffffff811115610cdd57610cdd611d8d565b604051908082528060200260200182016040528015610d1657816020015b610d03611a9b565b815260200190600190039081610cfb5790505b50905060005b815181101561076457609b6000610d34836001612177565b8152602080820192909252604090810160002081516101a0810183528154815260018201549381019390935260028101546001600160a01b0390811692840192909252600381015460608401526004810154821660808401526005810154821660a0840152600681015460c0840152600781015490911660e0830152600881015461010080840191909152600982015460ff808216151561012086015291810482161515610140850152620100009004161515610160830152600a01546101808201528251839083908110610e0b57610e0b61218a565b60200260200101819052508080610e21906121a0565b915050610d1c565b60006000805160206122b4833981519152610e4381611729565b82516000908152609b602090815260409182902085518155908501516001820155818501516002820180546001600160a01b03199081166001600160a01b0393841617909155606087015160038401556080870151600484018054831691841691909117905560a0870151600584018054831691841691909117905560c0870151600684015560e087015160078401805490921692169190911790556101008086015160088301556101208601516009830180546101408901516101608a015161ffff1990921693151561ff001916939093179215159093029190911762ff000019166201000092151592909202919091179055610180850151600a90910155517f73bf10f431953401ad4adc876e49289879495ffba6b1e6fcab8499ed4fb1ef57906108f39085906120b9565b60009182526065602090815260408084206001600160a01b0393909316845291905290205460ff1690565b610fa4611b07565b506000908152609a6020908152604091829020825161010080820185528254825260018301546001600160a01b03908116948301949094526002830154948201949094526003820154909216606083015260048101546080830152600581015460ff808216151560a0850152939004909216151560c082015260069091015460e082015290565b60606000600161103a60975490565b6110449190612164565b67ffffffffffffffff81111561105c5761105c611d8d565b60405190808252806020026020018201604052801561109557816020015b611082611b07565b81526020019060019003908161107a5790505b50905060005b815181101561076457609a60006110b3836001612177565b81526020808201929092526040908101600020815161010080820184528254825260018301546001600160a01b03908116958301959095526002830154938201939093526003820154909316606084015260048101546080840152600581015460ff808216151560a0860152929004909116151560c08301526006015460e082015282518390839081106111495761114961218a565b6020026020010181905250808061115f906121a0565b91505061109b565b60006000805160206122b483398151915261118181611729565b6000838152609b602052604090819020600901805461ff001916610100179055517f9658b6b21254e18b2df762ac28da18a17c7d65232a3985638e301b3ee8b1467e906108f39085815260200190565b6111e96000805160206122b48339815191528261062f565b50565b60006000805160206122b483398151915261120681611729565b6000838152609a602052604090819020600501805461ff001916610100179055517f3e93d23e063b84ea7cefd61949968ea1c1f2bfb0b9135599af8044766f7bce88906108f39085815260200190565b60006000805160206122b483398151915261127081611729565b609954835282609c600061128360995490565b81526020019081526020016000206000820151816000015560208201518160010155604082015181600201559050506112c0609980546001019055565b7f3e548515aa4f5661aa8f01438dcebdc27111ecdeedb4e19d9b1974fa7049149b836040516108f391906120c8565b60008281526065602052604090206001015461130a81611729565b61065483836117b9565b61131c611a9b565b506000908152609b602090815260409182902082516101a0810184528154815260018201549281019290925260028101546001600160a01b0390811693830193909352600381015460608301526004810154831660808301526005810154831660a0830152600681015460c0830152600781015490921660e0820152600882015461010080830191909152600983015460ff808216151561012085015291810482161515610140840152620100009004161515610160820152600a9091015461018082015290565b6060828210156114065760405162461bcd60e51b815260040161047590612117565b6000600161141360985490565b61141d9190612164565b9050600083828611156114325750505061044d565b8285111561143d5750815b6114478682612164565b611452906001612177565b67ffffffffffffffff81111561146a5761146a611d8d565b6040519080825280602002602001820160405280156114a357816020015b611490611b07565b8152602001906001900390816114885790505b5093508591505b808211610626576000828152609a6020908152604091829020825161010080820185528254825260018301546001600160a01b03908116948301949094526002830154948201949094526003820154909216606083015260048101546080830152600581015460ff808216151560a0850152939004909216151560c082015260069091015460e08201528461153f8885612164565b8151811061154f5761154f61218a565b60200260200101819052508180611565906121a0565b9250506114aa565b61159160405180606001604052806000815260200160008152602001600081525090565b506000908152609c6020908152604091829020825160608101845281548152600182015492810192909252600201549181019190915290565b600054610100900460ff16158080156115ea5750600054600160ff909116105b806116045750303b158015611604575060005460ff166001145b6116675760405162461bcd60e51b815260206004820152602e60248201527f496e697469616c697a61626c653a20636f6e747261637420697320616c72656160448201526d191e481a5b9a5d1a585b1a5e995960921b6064820152608401610475565b6000805460ff19166001179055801561168a576000805461ff0019166101001790555b611692611820565b61169d600084611733565b6116b56000805160206122b483398151915283611733565b6116c3609780546001019055565b6116d1609880546001019055565b6116df609980546001019055565b8015610654576000805461ff0019169055604051600181527f7f26b83ff96e1f2b6a682f133852f6798a09c465da95921460cefb38474024989060200160405180910390a1505050565b6111e9813361188d565b61173d8282610f71565b6107e45760008281526065602090815260408083206001600160a01b03851684529091529020805460ff191660011790556117753390565b6001600160a01b0316816001600160a01b0316837f2f8788117e7eff1d82e926ec794901d17c78024a50270940304540a733656f0d60405160405180910390a45050565b6117c38282610f71565b156107e45760008281526065602090815260408083206001600160a01b0385168085529252808320805460ff1916905551339285917ff6391f5c32d9c69d2a47ea670b442974b53935d1edc7fd64eb21e047a839171b9190a45050565b600054610100900460ff1661188b5760405162461bcd60e51b815260206004820152602b60248201527f496e697469616c697a61626c653a20636f6e7472616374206973206e6f74206960448201526a6e697469616c697a696e6760a81b6064820152608401610475565b565b6118978282610f71565b6107e4576118a4816118e6565b6118af8360206118f8565b6040516020016118c09291906121dd565b60408051601f198184030181529082905262461bcd60e51b825261047591600401612252565b606061044d6001600160a01b03831660145b60606000611907836002612285565b611912906002612177565b67ffffffffffffffff81111561192a5761192a611d8d565b6040519080825280601f01601f191660200182016040528015611954576020820181803683370190505b509050600360fc1b8160008151811061196f5761196f61218a565b60200101906001600160f81b031916908160001a905350600f60fb1b8160018151811061199e5761199e61218a565b60200101906001600160f81b031916908160001a90535060006119c2846002612285565b6119cd906001612177565b90505b6001811115611a45576f181899199a1a9b1b9c1cb0b131b232b360811b85600f1660108110611a0157611a0161218a565b1a60f81b828281518110611a1757611a1761218a565b60200101906001600160f81b031916908160001a90535060049490941c93611a3e8161229c565b90506119d0565b508315611a945760405162461bcd60e51b815260206004820181905260248201527f537472696e67733a20686578206c656e67746820696e73756666696369656e746044820152606401610475565b9392505050565b604080516101a081018252600080825260208201819052918101829052606081018290526080810182905260a0810182905260c0810182905260e08101829052610100810182905261012081018290526101408101829052610160810182905261018081019190915290565b6040518061010001604052806000815260200160006001600160a01b031681526020016000815260200160006001600160a01b0316815260200160008152602001600015158152602001600015158152602001600081525090565b600060208284031215611b7457600080fd5b81356001600160e01b031981168114611a9457600080fd5b60008060408385031215611b9f57600080fd5b50508035926020909101359150565b80518252602081015160208301526040810151611bd660408401826001600160a01b03169052565b50606081015160608301526080810151611bfb60808401826001600160a01b03169052565b5060a0810151611c1660a08401826001600160a01b03169052565b5060c081015160c083015260e0810151611c3b60e08401826001600160a01b03169052565b50610100818101519083015261012080820151151590830152610140808201511515908301526101608082015115159083015261018090810151910152565b6020808252825182820181905260009190848201906040850190845b81811015611cbd57611ca9838551611bae565b928401926101a09290920191600101611c96565b50909695505050505050565b600060208284031215611cdb57600080fd5b5035919050565b6001600160a01b03811681146111e957600080fd5b8035611d0281611ce2565b919050565b60008060408385031215611d1a57600080fd5b823591506020830135611d2c81611ce2565b809150509250929050565b6020808252825182820181905260009190848201906040850190845b81811015611cbd57611d7a8385518051825260208082015190830152604090810151910152565b9284019260609290920191600101611d53565b634e487b7160e01b600052604160045260246000fd5b6040516101a0810167ffffffffffffffff81118282101715611dd557634e487b7160e01b600052604160045260246000fd5b60405290565b80358015158114611d0257600080fd5b6000610100808385031215611dff57600080fd5b6040519081019067ffffffffffffffff82118183101715611e3057634e487b7160e01b600052604160045260246000fd5b816040528335815260208401359150611e4882611ce2565b81602082015260408401356040820152611e6460608501611cf7565b606082015260808401356080820152611e7f60a08501611ddb565b60a0820152611e9060c08501611ddb565b60c082015260e084013560e0820152809250505092915050565b60006101a08284031215611ebd57600080fd5b611ec5611da3565b8235815260208301356020820152611edf60408401611cf7565b604082015260608301356060820152611efa60808401611cf7565b6080820152611f0b60a08401611cf7565b60a082015260c083013560c0820152611f2660e08401611cf7565b60e08201526101008381013590820152610120611f44818501611ddb565b90820152610140611f56848201611ddb565b90820152610160611f68848201611ddb565b90820152610180928301359281019290925250919050565b80518252602081015160018060a01b0380821660208501526040830151604085015280606084015116606085015250506080810151608083015260a0810151151560a083015260c0810151151560c083015260e081015160e08301525050565b610100810161044d8284611f80565b6020808252825182820181905260009190848201906040850190845b81811015611cbd5761201e838551611f80565b92840192610100929092019160010161200b565b60006020828403121561204457600080fd5b8135611a9481611ce2565b60006060828403121561206157600080fd5b6040516060810181811067ffffffffffffffff8211171561209257634e487b7160e01b600052604160045260246000fd5b80604052508235815260208301356020820152604083013560408201528091505092915050565b6101a0810161044d8284611bae565b8151815260208083015190820152604080830151908201526060810161044d565b600080604083850312156120fc57600080fd5b823561210781611ce2565b91506020830135611d2c81611ce2565b6020808252601f908201527f656e642073686f756c6420626520626967676572207468616e20737461727400604082015260600190565b634e487b7160e01b600052601160045260246000fd5b8181038181111561044d5761044d61214e565b8082018082111561044d5761044d61214e565b634e487b7160e01b600052603260045260246000fd5b6000600182016121b2576121b261214e565b5060010190565b60005b838110156121d45781810151838201526020016121bc565b50506000910152565b7f416363657373436f6e74726f6c3a206163636f756e74200000000000000000008152600083516122158160178501602088016121b9565b7001034b99036b4b9b9b4b733903937b6329607d1b60179184019182015283516122468160288401602088016121b9565b01602801949350505050565b60208152600082518060208401526122718160408501602087016121b9565b601f01601f19169190910160400192915050565b808202811582820484141761044d5761044d61214e565b6000816122ab576122ab61214e565b50600019019056fe4b1f673169b7c165c16c575571c9bb3baf6244b05340a0d0c7d6ecefe1ac055ba26469706673582212207d61cbdab3a9b43d0ed2600c9007b45b8457c8b236f17a5a82db5a7694a2eeff64736f6c63430008110033",
  "immutableReferences": {},
  "source": "// SPDX-License-Identifier: MIT\n// OpenZeppelin Contracts v4.4.1 (access/IAccessControl.sol)\n\npragma solidity ^0.8.0;\n\n/**\n * @dev External interface of AccessControl declared to support ERC165 detection.\n */\ninterface IAccessControlUpgradeable {\n    /**\n     * @dev Emitted when `newAdminRole` is set as ``role``'s admin role, replacing `previousAdminRole`\n     *\n     * `DEFAULT_ADMIN_ROLE` is the starting admin for all roles, despite\n     * {RoleAdminChanged} not being emitted signaling this.\n     *\n     * _Available since v3.1._\n     */\n    event RoleAdminChanged(bytes32 indexed role, bytes32 indexed previousAdminRole, bytes32 indexed newAdminRole);\n\n    /**\n     * @dev Emitted when `account` is granted `role`.\n     *\n     * `sender` is the account that originated the contract call, an admin role\n     * bearer except when using {AccessControl-_setupRole}.\n     */\n    event RoleGranted(bytes32 indexed role, address indexed account, address indexed sender);\n\n    /**\n     * @dev Emitted when `account` is revoked `role`.\n     *\n     * `sender` is the account that originated the contract call:\n     *   - if using `revokeRole`, it is the admin role bearer\n     *   - if using `renounceRole`, it is the role bearer (i.e. `account`)\n     */\n    event RoleRevoked(bytes32 indexed role, address indexed account, address indexed sender);\n\n    /**\n     * @dev Returns `true` if `account` has been granted `role`.\n     */\n    function hasRole(bytes32 role, address account) external view returns (bool);\n\n    /**\n     * @dev Returns the admin role that controls `role`. See {grantRole} and\n     * {revokeRole}.\n     *\n     * To change a role's admin, use {AccessControl-_setRoleAdmin}.\n     */\n    function getRoleAdmin(bytes32 role) external view returns (bytes32);\n\n    /**\n     * @dev Grants `role` to `account`.\n     *\n     * If `account` had not been already granted `role`, emits a {RoleGranted}\n     * event.\n     *\n     * Requirements:\n     *\n     * - the caller must have ``role``'s admin role.\n     */\n    function grantRole(bytes32 role, address account) external;\n\n    /**\n     * @dev Revokes `role` from `account`.\n     *\n     * If `account` had been granted `role`, emits a {RoleRevoked} event.\n     *\n     * Requirements:\n     *\n     * - the caller must have ``role``'s admin role.\n     */\n    function revokeRole(bytes32 role, address account) external;\n\n    /**\n     * @dev Revokes `role` from the calling account.\n     *\n     * Roles are often managed via {grantRole} and {revokeRole}: this function's\n     * purpose is to provide a mechanism for accounts to lose their privileges\n     * if they are compromised (such as when a trusted device is misplaced).\n     *\n     * If the calling account had been granted `role`, emits a {RoleRevoked}\n     * event.\n     *\n     * Requirements:\n     *\n     * - the caller must be `account`.\n     */\n    function renounceRole(bytes32 role, address account) external;\n}\n\n\n/**\n * @dev Collection of functions related to the address type\n */\nlibrary AddressUpgradeable {\n    /**\n     * @dev Returns true if `account` is a contract.\n     *\n     * [IMPORTANT]\n     * ====\n     * It is unsafe to assume that an address for which this function returns\n     * false is an externally-owned account (EOA) and not a contract.\n     *\n     * Among others, `isContract` will return false for the following\n     * types of addresses:\n     *\n     *  - an externally-owned account\n     *  - a contract in construction\n     *  - an address where a contract will be created\n     *  - an address where a contract lived, but was destroyed\n     *\n     * Furthermore, `isContract` will also return true if the target contract within\n     * the same transaction is already scheduled for destruction by `SELFDESTRUCT`,\n     * which only has an effect at the end of a transaction.\n     * ====\n     *\n     * [IMPORTANT]\n     * ====\n     * You shouldn't rely on `isContract` to protect against flash loan attacks!\n     *\n     * Preventing calls from contracts is highly discouraged. It breaks composability, breaks support for smart wallets\n     * like Gnosis Safe, and does not provide security since it can be circumvented by calling from a contract\n     * constructor.\n     * ====\n     */\n    function isContract(address account) internal view returns (bool) {\n        // This method relies on extcodesize/address.code.length, which returns 0\n        // for contracts in construction, since the code is only stored at the end\n        // of the constructor execution.\n\n        return account.code.length > 0;\n    }\n\n    /**\n     * @dev Replacement for Solidity's `transfer`: sends `amount` wei to\n     * `recipient`, forwarding all available gas and reverting on errors.\n     *\n     * https://eips.ethereum.org/EIPS/eip-1884[EIP1884] increases the gas cost\n     * of certain opcodes, possibly making contracts go over the 2300 gas limit\n     * imposed by `transfer`, making them unable to receive funds via\n     * `transfer`. {sendValue} removes this limitation.\n     *\n     * https://consensys.net/diligence/blog/2019/09/stop-using-soliditys-transfer-now/[Learn more].\n     *\n     * IMPORTANT: because control is transferred to `recipient`, care must be\n     * taken to not create reentrancy vulnerabilities. Consider using\n     * {ReentrancyGuard} or the\n     * https://solidity.readthedocs.io/en/v0.8.0/security-considerations.html#use-the-checks-effects-interactions-pattern[checks-effects-interactions pattern].\n     */\n    function sendValue(address payable recipient, uint256 amount) internal {\n        require(address(this).balance >= amount, \"Address: insufficient balance\");\n\n        (bool success, ) = recipient.call{value: amount}(\"\");\n        require(success, \"Address: unable to send value, recipient may have reverted\");\n    }\n\n    /**\n     * @dev Performs a Solidity function call using a low level `call`. A\n     * plain `call` is an unsafe replacement for a function call: use this\n     * function instead.\n     *\n     * If `target` reverts with a revert reason, it is bubbled up by this\n     * function (like regular Solidity function calls).\n     *\n     * Returns the raw returned data. To convert to the expected return value,\n     * use https://solidity.readthedocs.io/en/latest/units-and-global-variables.html?highlight=abi.decode#abi-encoding-and-decoding-functions[`abi.decode`].\n     *\n     * Requirements:\n     *\n     * - `target` must be a contract.\n     * - calling `target` with `data` must not revert.\n     *\n     * _Available since v3.1._\n     */\n    function functionCall(address target, bytes memory data) internal returns (bytes memory) {\n        return functionCallWithValue(target, data, 0, \"Address: low-level call failed\");\n    }\n\n    /**\n     * @dev Same as {xref-Address-functionCall-address-bytes-}[`functionCall`], but with\n     * `errorMessage` as a fallback revert reason when `target` reverts.\n     *\n     * _Available since v3.1._\n     */\n    function functionCall(\n        address target,\n        bytes memory data,\n        string memory errorMessage\n    ) internal returns (bytes memory) {\n        return functionCallWithValue(target, data, 0, errorMessage);\n    }\n\n    /**\n     * @dev Same as {xref-Address-functionCall-address-bytes-}[`functionCall`],\n     * but also transferring `value` wei to `target`.\n     *\n     * Requirements:\n     *\n     * - the calling contract must have an ETH balance of at least `value`.\n     * - the called Solidity function must be `payable`.\n     *\n     * _Available since v3.1._\n     */\n    function functionCallWithValue(address target, bytes memory data, uint256 value) internal returns (bytes memory) {\n        return functionCallWithValue(target, data, value, \"Address: low-level call with value failed\");\n    }\n\n    /**\n     * @dev Same as {xref-Address-functionCallWithValue-address-bytes-uint256-}[`functionCallWithValue`], but\n     * with `errorMessage` as a fallback revert reason when `target` reverts.\n     *\n     * _Available since v3.1._\n     */\n    function functionCallWithValue(\n        address target,\n        bytes memory data,\n        uint256 value,\n        string memory errorMessage\n    ) internal returns (bytes memory) {\n        require(address(this).balance >= value, \"Address: insufficient balance for call\");\n        (bool success, bytes memory returndata) = target.call{value: value}(data);\n        return verifyCallResultFromTarget(target, success, returndata, errorMessage);\n    }\n\n    /**\n     * @dev Same as {xref-Address-functionCall-address-bytes-}[`functionCall`],\n     * but performing a static call.\n     *\n     * _Available since v3.3._\n     */\n    function functionStaticCall(address target, bytes memory data) internal view returns (bytes memory) {\n        return functionStaticCall(target, data, \"Address: low-level static call failed\");\n    }\n\n    /**\n     * @dev Same as {xref-Address-functionCall-address-bytes-string-}[`functionCall`],\n     * but performing a static call.\n     *\n     * _Available since v3.3._\n     */\n    function functionStaticCall(\n        address target,\n        bytes memory data,\n        string memory errorMessage\n    ) internal view returns (bytes memory) {\n        (bool success, bytes memory returndata) = target.staticcall(data);\n        return verifyCallResultFromTarget(target, success, returndata, errorMessage);\n    }\n\n    /**\n     * @dev Same as {xref-Address-functionCall-address-bytes-}[`functionCall`],\n     * but performing a delegate call.\n     *\n     * _Available since v3.4._\n     */\n    function functionDelegateCall(address target, bytes memory data) internal returns (bytes memory) {\n        return functionDelegateCall(target, data, \"Address: low-level delegate call failed\");\n    }\n\n    /**\n     * @dev Same as {xref-Address-functionCall-address-bytes-string-}[`functionCall`],\n     * but performing a delegate call.\n     *\n     * _Available since v3.4._\n     */\n    function functionDelegateCall(\n        address target,\n        bytes memory data,\n        string memory errorMessage\n    ) internal returns (bytes memory) {\n        (bool success, bytes memory returndata) = target.delegatecall(data);\n        return verifyCallResultFromTarget(target, success, returndata, errorMessage);\n    }\n\n    /**\n     * @dev Tool to verify that a low level call to smart-contract was successful, and revert (either by bubbling\n     * the revert reason or using the provided one) in case of unsuccessful call or if target was not a contract.\n     *\n     * _Available since v4.8._\n     */\n    function verifyCallResultFromTarget(\n        address target,\n        bool success,\n        bytes memory returndata,\n        string memory errorMessage\n    ) internal view returns (bytes memory) {\n        if (success) {\n            if (returndata.length == 0) {\n                // only check isContract if the call was successful and the return data is empty\n                // otherwise we already know that it was a contract\n                require(isContract(target), \"Address: call to non-contract\");\n            }\n            return returndata;\n        } else {\n            _revert(returndata, errorMessage);\n        }\n    }\n\n    /**\n     * @dev Tool to verify that a low level call was successful, and revert if it wasn't, either by bubbling the\n     * revert reason or using the provided one.\n     *\n     * _Available since v4.3._\n     */\n    function verifyCallResult(\n        bool success,\n        bytes memory returndata,\n        string memory errorMessage\n    ) internal pure returns (bytes memory) {\n        if (success) {\n            return returndata;\n        } else {\n            _revert(returndata, errorMessage);\n        }\n    }\n\n    function _revert(bytes memory returndata, string memory errorMessage) private pure {\n        // Look for revert reason and bubble it up if present\n        if (returndata.length > 0) {\n            // The easiest way to bubble the revert reason is using memory via assembly\n            /// @solidity memory-safe-assembly\n            assembly {\n                let returndata_size := mload(returndata)\n                revert(add(32, returndata), returndata_size)\n            }\n        } else {\n            revert(errorMessage);\n        }\n    }\n}\n\n\n/**\n * @dev This is a base contract to aid in writing upgradeable contracts, or any kind of contract that will be deployed\n * behind a proxy. Since proxied contracts do not make use of a constructor, it's common to move constructor logic to an\n * external initializer function, usually called `initialize`. It then becomes necessary to protect this initializer\n * function so it can only be called once. The {initializer} modifier provided by this contract will have this effect.\n *\n * The initialization functions use a version number. Once a version number is used, it is consumed and cannot be\n * reused. This mechanism prevents re-execution of each \"step\" but allows the creation of new initialization steps in\n * case an upgrade adds a module that needs to be initialized.\n *\n * For example:\n *\n * [.hljs-theme-light.nopadding]\n * ```solidity\n * contract MyToken is ERC20Upgradeable {\n *     function initialize() initializer public {\n *         __ERC20_init(\"MyToken\", \"MTK\");\n *     }\n * }\n *\n * contract MyTokenV2 is MyToken, ERC20PermitUpgradeable {\n *     function initializeV2() reinitializer(2) public {\n *         __ERC20Permit_init(\"MyToken\");\n *     }\n * }\n * ```\n *\n * TIP: To avoid leaving the proxy in an uninitialized state, the initializer function should be called as early as\n * possible by providing the encoded function call as the `_data` argument to {ERC1967Proxy-constructor}.\n *\n * CAUTION: When used with inheritance, manual care must be taken to not invoke a parent initializer twice, or to ensure\n * that all initializers are idempotent. This is not verified automatically as constructors are by Solidity.\n *\n * [CAUTION]\n * ====\n * Avoid leaving a contract uninitialized.\n *\n * An uninitialized contract can be taken over by an attacker. This applies to both a proxy and its implementation\n * contract, which may impact the proxy. To prevent the implementation contract from being used, you should invoke\n * the {_disableInitializers} function in the constructor to automatically lock it when it is deployed:\n *\n * [.hljs-theme-light.nopadding]\n * ```\n * /// @custom:oz-upgrades-unsafe-allow constructor\n * constructor() {\n *     _disableInitializers();\n * }\n * ```\n * ====\n */\nabstract contract Initializable {\n    /**\n     * @dev Indicates that the contract has been initialized.\n     * @custom:oz-retyped-from bool\n     */\n    uint8 private _initialized;\n\n    /**\n     * @dev Indicates that the contract is in the process of being initialized.\n     */\n    bool private _initializing;\n\n    /**\n     * @dev Triggered when the contract has been initialized or reinitialized.\n     */\n    event Initialized(uint8 version);\n\n    /**\n     * @dev A modifier that defines a protected initializer function that can be invoked at most once. In its scope,\n     * `onlyInitializing` functions can be used to initialize parent contracts.\n     *\n     * Similar to `reinitializer(1)`, except that functions marked with `initializer` can be nested in the context of a\n     * constructor.\n     *\n     * Emits an {Initialized} event.\n     */\n    modifier initializer() {\n        bool isTopLevelCall = !_initializing;\n        require(\n            (isTopLevelCall && _initialized < 1) || (!AddressUpgradeable.isContract(address(this)) && _initialized == 1),\n            \"Initializable: contract is already initialized\"\n        );\n        _initialized = 1;\n        if (isTopLevelCall) {\n            _initializing = true;\n        }\n        _;\n        if (isTopLevelCall) {\n            _initializing = false;\n            emit Initialized(1);\n        }\n    }\n\n    /**\n     * @dev A modifier that defines a protected reinitializer function that can be invoked at most once, and only if the\n     * contract hasn't been initialized to a greater version before. In its scope, `onlyInitializing` functions can be\n     * used to initialize parent contracts.\n     *\n     * A reinitializer may be used after the original initialization step. This is essential to configure modules that\n     * are added through upgrades and that require initialization.\n     *\n     * When `version` is 1, this modifier is similar to `initializer`, except that functions marked with `reinitializer`\n     * cannot be nested. If one is invoked in the context of another, execution will revert.\n     *\n     * Note that versions can jump in increments greater than 1; this implies that if multiple reinitializers coexist in\n     * a contract, executing them in the right order is up to the developer or operator.\n     *\n     * WARNING: setting the version to 255 will prevent any future reinitialization.\n     *\n     * Emits an {Initialized} event.\n     */\n    modifier reinitializer(uint8 version) {\n        require(!_initializing && _initialized < version, \"Initializable: contract is already initialized\");\n        _initialized = version;\n        _initializing = true;\n        _;\n        _initializing = false;\n        emit Initialized(version);\n    }\n\n    /**\n     * @dev Modifier to protect an initialization function so that it can only be invoked by functions with the\n     * {initializer} and {reinitializer} modifiers, directly or indirectly.\n     */\n    modifier onlyInitializing() {\n        require(_initializing, \"Initializable: contract is not initializing\");\n        _;\n    }\n\n    /**\n     * @dev Locks the contract, preventing any future reinitialization. This cannot be part of an initializer call.\n     * Calling this in the constructor of a contract will prevent that contract from being initialized or reinitialized\n     * to any version. It is recommended to use this to lock implementation contracts that are designed to be called\n     * through proxies.\n     *\n     * Emits an {Initialized} event the first time it is successfully executed.\n     */\n    function _disableInitializers() internal virtual {\n        require(!_initializing, \"Initializable: contract is initializing\");\n        if (_initialized != type(uint8).max) {\n            _initialized = type(uint8).max;\n            emit Initialized(type(uint8).max);\n        }\n    }\n\n    /**\n     * @dev Returns the highest version that has been initialized. See {reinitializer}.\n     */\n    function _getInitializedVersion() internal view returns (uint8) {\n        return _initialized;\n    }\n\n    /**\n     * @dev Returns `true` if the contract is currently initializing. See {onlyInitializing}.\n     */\n    function _isInitializing() internal view returns (bool) {\n        return _initializing;\n    }\n}\n\n\n/**\n * @dev Provides information about the current execution context, including the\n * sender of the transaction and its data. While these are generally available\n * via msg.sender and msg.data, they should not be accessed in such a direct\n * manner, since when dealing with meta-transactions the account sending and\n * paying for execution may not be the actual sender (as far as an application\n * is concerned).\n *\n * This contract is only required for intermediate, library-like contracts.\n */\nabstract contract ContextUpgradeable is Initializable {\n    function __Context_init() internal onlyInitializing {\n    }\n\n    function __Context_init_unchained() internal onlyInitializing {\n    }\n    function _msgSender() internal view virtual returns (address) {\n        return msg.sender;\n    }\n\n    function _msgData() internal view virtual returns (bytes calldata) {\n        return msg.data;\n    }\n\n    /**\n     * @dev This empty reserved space is put in place to allow future versions to add new\n     * variables without shifting down storage in the inheritance chain.\n     * See https://docs.openzeppelin.com/contracts/4.x/upgradeable#storage_gaps\n     */\n    uint256[50] private __gap;\n}\n\n\n/**\n * @dev Standard math utilities missing in the Solidity language.\n */\nlibrary MathUpgradeable {\n    enum Rounding {\n        Down, // Toward negative infinity\n        Up, // Toward infinity\n        Zero // Toward zero\n    }\n\n    /**\n     * @dev Returns the largest of two numbers.\n     */\n    function max(uint256 a, uint256 b) internal pure returns (uint256) {\n        return a > b ? a : b;\n    }\n\n    /**\n     * @dev Returns the smallest of two numbers.\n     */\n    function min(uint256 a, uint256 b) internal pure returns (uint256) {\n        return a < b ? a : b;\n    }\n\n    /**\n     * @dev Returns the average of two numbers. The result is rounded towards\n     * zero.\n     */\n    function average(uint256 a, uint256 b) internal pure returns (uint256) {\n        // (a + b) / 2 can overflow.\n        return (a & b) + (a ^ b) / 2;\n    }\n\n    /**\n     * @dev Returns the ceiling of the division of two numbers.\n     *\n     * This differs from standard division with `/` in that it rounds up instead\n     * of rounding down.\n     */\n    function ceilDiv(uint256 a, uint256 b) internal pure returns (uint256) {\n        // (a + b - 1) / b can overflow on addition, so we distribute.\n        return a == 0 ? 0 : (a - 1) / b + 1;\n    }\n\n    /**\n     * @notice Calculates floor(x * y / denominator) with full precision. Throws if result overflows a uint256 or denominator == 0\n     * @dev Original credit to Remco Bloemen under MIT license (https://xn--2-umb.com/21/muldiv)\n     * with further edits by Uniswap Labs also under MIT license.\n     */\n    function mulDiv(uint256 x, uint256 y, uint256 denominator) internal pure returns (uint256 result) {\n        unchecked {\n            // 512-bit multiply [prod1 prod0] = x * y. Compute the product mod 2^256 and mod 2^256 - 1, then use\n            // use the Chinese Remainder Theorem to reconstruct the 512 bit result. The result is stored in two 256\n            // variables such that product = prod1 * 2^256 + prod0.\n            uint256 prod0; // Least significant 256 bits of the product\n            uint256 prod1; // Most significant 256 bits of the product\n            assembly {\n                let mm := mulmod(x, y, not(0))\n                prod0 := mul(x, y)\n                prod1 := sub(sub(mm, prod0), lt(mm, prod0))\n            }\n\n            // Handle non-overflow cases, 256 by 256 division.\n            if (prod1 == 0) {\n                // Solidity will revert if denominator == 0, unlike the div opcode on its own.\n                // The surrounding unchecked block does not change this fact.\n                // See https://docs.soliditylang.org/en/latest/control-structures.html#checked-or-unchecked-arithmetic.\n                return prod0 / denominator;\n            }\n\n            // Make sure the result is less than 2^256. Also prevents denominator == 0.\n            require(denominator > prod1, \"Math: mulDiv overflow\");\n\n            ///////////////////////////////////////////////\n            // 512 by 256 division.\n            ///////////////////////////////////////////////\n\n            // Make division exact by subtracting the remainder from [prod1 prod0].\n            uint256 remainder;\n            assembly {\n                // Compute remainder using mulmod.\n                remainder := mulmod(x, y, denominator)\n\n                // Subtract 256 bit number from 512 bit number.\n                prod1 := sub(prod1, gt(remainder, prod0))\n                prod0 := sub(prod0, remainder)\n            }\n\n            // Factor powers of two out of denominator and compute largest power of two divisor of denominator. Always >= 1.\n            // See https://cs.stackexchange.com/q/138556/92363.\n\n            // Does not overflow because the denominator cannot be zero at this stage in the function.\n            uint256 twos = denominator & (~denominator + 1);\n            assembly {\n                // Divide denominator by twos.\n                denominator := div(denominator, twos)\n\n                // Divide [prod1 prod0] by twos.\n                prod0 := div(prod0, twos)\n\n                // Flip twos such that it is 2^256 / twos. If twos is zero, then it becomes one.\n                twos := add(div(sub(0, twos), twos), 1)\n            }\n\n            // Shift in bits from prod1 into prod0.\n            prod0 |= prod1 * twos;\n\n            // Invert denominator mod 2^256. Now that denominator is an odd number, it has an inverse modulo 2^256 such\n            // that denominator * inv = 1 mod 2^256. Compute the inverse by starting with a seed that is correct for\n            // four bits. That is, denominator * inv = 1 mod 2^4.\n            uint256 inverse = (3 * denominator) ^ 2;\n\n            // Use the Newton-Raphson iteration to improve the precision. Thanks to Hensel's lifting lemma, this also works\n            // in modular arithmetic, doubling the correct bits in each step.\n            inverse *= 2 - denominator * inverse; // inverse mod 2^8\n            inverse *= 2 - denominator * inverse; // inverse mod 2^16\n            inverse *= 2 - denominator * inverse; // inverse mod 2^32\n            inverse *= 2 - denominator * inverse; // inverse mod 2^64\n            inverse *= 2 - denominator * inverse; // inverse mod 2^128\n            inverse *= 2 - denominator * inverse; // inverse mod 2^256\n\n            // Because the division is now exact we can divide by multiplying with the modular inverse of denominator.\n            // This will give us the correct result modulo 2^256. Since the preconditions guarantee that the outcome is\n            // less than 2^256, this is the final result. We don't need to compute the high bits of the result and prod1\n            // is no longer required.\n            result = prod0 * inverse;\n            return result;\n        }\n    }\n\n    /**\n     * @notice Calculates x * y / denominator with full precision, following the selected rounding direction.\n     */\n    function mulDiv(uint256 x, uint256 y, uint256 denominator, Rounding rounding) internal pure returns (uint256) {\n        uint256 result = mulDiv(x, y, denominator);\n        if (rounding == Rounding.Up && mulmod(x, y, denominator) > 0) {\n            result += 1;\n        }\n        return result;\n    }\n\n    /**\n     * @dev Returns the square root of a number. If the number is not a perfect square, the value is rounded down.\n     *\n     * Inspired by Henry S. Warren, Jr.'s \"Hacker's Delight\" (Chapter 11).\n     */\n    function sqrt(uint256 a) internal pure returns (uint256) {\n        if (a == 0) {\n            return 0;\n        }\n\n        // For our first guess, we get the biggest power of 2 which is smaller than the square root of the target.\n        //\n        // We know that the \"msb\" (most significant bit) of our target number `a` is a power of 2 such that we have\n        // `msb(a) <= a < 2*msb(a)`. This value can be written `msb(a)=2**k` with `k=log2(a)`.\n        //\n        // This can be rewritten `2**log2(a) <= a < 2**(log2(a) + 1)`\n        //  `sqrt(2**k) <= sqrt(a) < sqrt(2**(k+1))`\n        //  `2**(k/2) <= sqrt(a) < 2**((k+1)/2) <= 2**(k/2 + 1)`\n        //\n        // Consequently, `2**(log2(a) / 2)` is a good first approximation of `sqrt(a)` with at least 1 correct bit.\n        uint256 result = 1 << (log2(a) >> 1);\n\n        // At this point `result` is an estimation with one bit of precision. We know the true value is a uint128,\n        // since it is the square root of a uint256. Newton's method converges quadratically (precision doubles at\n        // every iteration). We thus need at most 7 iteration to turn our partial result with one bit of precision\n        // into the expected uint128 result.\n        unchecked {\n            result = (result + a / result) >> 1;\n            result = (result + a / result) >> 1;\n            result = (result + a / result) >> 1;\n            result = (result + a / result) >> 1;\n            result = (result + a / result) >> 1;\n            result = (result + a / result) >> 1;\n            result = (result + a / result) >> 1;\n            return min(result, a / result);\n        }\n    }\n\n    /**\n     * @notice Calculates sqrt(a), following the selected rounding direction.\n     */\n    function sqrt(uint256 a, Rounding rounding) internal pure returns (uint256) {\n        unchecked {\n            uint256 result = sqrt(a);\n            return result + (rounding == Rounding.Up && result * result < a ? 1 : 0);\n        }\n    }\n\n    /**\n     * @dev Return the log in base 2, rounded down, of a positive value.\n     * Returns 0 if given 0.\n     */\n    function log2(uint256 value) internal pure returns (uint256) {\n        uint256 result = 0;\n        unchecked {\n            if (value >> 128 > 0) {\n                value >>= 128;\n                result += 128;\n            }\n            if (value >> 64 > 0) {\n                value >>= 64;\n                result += 64;\n            }\n            if (value >> 32 > 0) {\n                value >>= 32;\n                result += 32;\n            }\n            if (value >> 16 > 0) {\n                value >>= 16;\n                result += 16;\n            }\n            if (value >> 8 > 0) {\n                value >>= 8;\n                result += 8;\n            }\n            if (value >> 4 > 0) {\n                value >>= 4;\n                result += 4;\n            }\n            if (value >> 2 > 0) {\n                value >>= 2;\n                result += 2;\n            }\n            if (value >> 1 > 0) {\n                result += 1;\n            }\n        }\n        return result;\n    }\n\n    /**\n     * @dev Return the log in base 2, following the selected rounding direction, of a positive value.\n     * Returns 0 if given 0.\n     */\n    function log2(uint256 value, Rounding rounding) internal pure returns (uint256) {\n        unchecked {\n            uint256 result = log2(value);\n            return result + (rounding == Rounding.Up && 1 << result < value ? 1 : 0);\n        }\n    }\n\n    /**\n     * @dev Return the log in base 10, rounded down, of a positive value.\n     * Returns 0 if given 0.\n     */\n    function log10(uint256 value) internal pure returns (uint256) {\n        uint256 result = 0;\n        unchecked {\n            if (value >= 10 ** 64) {\n                value /= 10 ** 64;\n                result += 64;\n            }\n            if (value >= 10 ** 32) {\n                value /= 10 ** 32;\n                result += 32;\n            }\n            if (value >= 10 ** 16) {\n                value /= 10 ** 16;\n                result += 16;\n            }\n            if (value >= 10 ** 8) {\n                value /= 10 ** 8;\n                result += 8;\n            }\n            if (value >= 10 ** 4) {\n                value /= 10 ** 4;\n                result += 4;\n            }\n            if (value >= 10 ** 2) {\n                value /= 10 ** 2;\n                result += 2;\n            }\n            if (value >= 10 ** 1) {\n                result += 1;\n            }\n        }\n        return result;\n    }\n\n    /**\n     * @dev Return the log in base 10, following the selected rounding direction, of a positive value.\n     * Returns 0 if given 0.\n     */\n    function log10(uint256 value, Rounding rounding) internal pure returns (uint256) {\n        unchecked {\n            uint256 result = log10(value);\n            return result + (rounding == Rounding.Up && 10 ** result < value ? 1 : 0);\n        }\n    }\n\n    /**\n     * @dev Return the log in base 256, rounded down, of a positive value.\n     * Returns 0 if given 0.\n     *\n     * Adding one to the result gives the number of pairs of hex symbols needed to represent `value` as a hex string.\n     */\n    function log256(uint256 value) internal pure returns (uint256) {\n        uint256 result = 0;\n        unchecked {\n            if (value >> 128 > 0) {\n                value >>= 128;\n                result += 16;\n            }\n            if (value >> 64 > 0) {\n                value >>= 64;\n                result += 8;\n            }\n            if (value >> 32 > 0) {\n                value >>= 32;\n                result += 4;\n            }\n            if (value >> 16 > 0) {\n                value >>= 16;\n                result += 2;\n            }\n            if (value >> 8 > 0) {\n                result += 1;\n            }\n        }\n        return result;\n    }\n\n    /**\n     * @dev Return the log in base 256, following the selected rounding direction, of a positive value.\n     * Returns 0 if given 0.\n     */\n    function log256(uint256 value, Rounding rounding) internal pure returns (uint256) {\n        unchecked {\n            uint256 result = log256(value);\n            return result + (rounding == Rounding.Up && 1 << (result << 3) < value ? 1 : 0);\n        }\n    }\n}\n\n\n/**\n * @dev Standard signed math utilities missing in the Solidity language.\n */\nlibrary SignedMathUpgradeable {\n    /**\n     * @dev Returns the largest of two signed numbers.\n     */\n    function max(int256 a, int256 b) internal pure returns (int256) {\n        return a > b ? a : b;\n    }\n\n    /**\n     * @dev Returns the smallest of two signed numbers.\n     */\n    function min(int256 a, int256 b) internal pure returns (int256) {\n        return a < b ? a : b;\n    }\n\n    /**\n     * @dev Returns the average of two signed numbers without overflow.\n     * The result is rounded towards zero.\n     */\n    function average(int256 a, int256 b) internal pure returns (int256) {\n        // Formula from the book \"Hacker's Delight\"\n        int256 x = (a & b) + ((a ^ b) >> 1);\n        return x + (int256(uint256(x) >> 255) & (a ^ b));\n    }\n\n    /**\n     * @dev Returns the absolute unsigned value of a signed value.\n     */\n    function abs(int256 n) internal pure returns (uint256) {\n        unchecked {\n            // must be unchecked in order to support `n = type(int256).min`\n            return uint256(n >= 0 ? n : -n);\n        }\n    }\n}\n\n\n\n/**\n * @dev String operations.\n */\nlibrary StringsUpgradeable {\n    bytes16 private constant _SYMBOLS = \"0123456789abcdef\";\n    uint8 private constant _ADDRESS_LENGTH = 20;\n\n    /**\n     * @dev Converts a `uint256` to its ASCII `string` decimal representation.\n     */\n    function toString(uint256 value) internal pure returns (string memory) {\n        unchecked {\n            uint256 length = MathUpgradeable.log10(value) + 1;\n            string memory buffer = new string(length);\n            uint256 ptr;\n            /// @solidity memory-safe-assembly\n            assembly {\n                ptr := add(buffer, add(32, length))\n            }\n            while (true) {\n                ptr--;\n                /// @solidity memory-safe-assembly\n                assembly {\n                    mstore8(ptr, byte(mod(value, 10), _SYMBOLS))\n                }\n                value /= 10;\n                if (value == 0) break;\n            }\n            return buffer;\n        }\n    }\n\n    /**\n     * @dev Converts a `int256` to its ASCII `string` decimal representation.\n     */\n    function toString(int256 value) internal pure returns (string memory) {\n        return string(abi.encodePacked(value < 0 ? \"-\" : \"\", toString(SignedMathUpgradeable.abs(value))));\n    }\n\n    /**\n     * @dev Converts a `uint256` to its ASCII `string` hexadecimal representation.\n     */\n    function toHexString(uint256 value) internal pure returns (string memory) {\n        unchecked {\n            return toHexString(value, MathUpgradeable.log256(value) + 1);\n        }\n    }\n\n    /**\n     * @dev Converts a `uint256` to its ASCII `string` hexadecimal representation with fixed length.\n     */\n    function toHexString(uint256 value, uint256 length) internal pure returns (string memory) {\n        bytes memory buffer = new bytes(2 * length + 2);\n        buffer[0] = \"0\";\n        buffer[1] = \"x\";\n        for (uint256 i = 2 * length + 1; i > 1; --i) {\n            buffer[i] = _SYMBOLS[value & 0xf];\n            value >>= 4;\n        }\n        require(value == 0, \"Strings: hex length insufficient\");\n        return string(buffer);\n    }\n\n    /**\n     * @dev Converts an `address` with fixed length of 20 bytes to its not checksummed ASCII `string` hexadecimal representation.\n     */\n    function toHexString(address addr) internal pure returns (string memory) {\n        return toHexString(uint256(uint160(addr)), _ADDRESS_LENGTH);\n    }\n\n    /**\n     * @dev Returns true if the two strings are equal.\n     */\n    function equal(string memory a, string memory b) internal pure returns (bool) {\n        return keccak256(bytes(a)) == keccak256(bytes(b));\n    }\n}\n\n\n/**\n * @dev Interface of the ERC165 standard, as defined in the\n * https://eips.ethereum.org/EIPS/eip-165[EIP].\n *\n * Implementers can declare support of contract interfaces, which can then be\n * queried by others ({ERC165Checker}).\n *\n * For an implementation, see {ERC165}.\n */\ninterface IERC165Upgradeable {\n    /**\n     * @dev Returns true if this contract implements the interface defined by\n     * `interfaceId`. See the corresponding\n     * https://eips.ethereum.org/EIPS/eip-165#how-interfaces-are-identified[EIP section]\n     * to learn more about how these ids are created.\n     *\n     * This function call must use less than 30 000 gas.\n     */\n    function supportsInterface(bytes4 interfaceId) external view returns (bool);\n}\n\n\n\n/**\n * @dev Implementation of the {IERC165} interface.\n *\n * Contracts that want to implement ERC165 should inherit from this contract and override {supportsInterface} to check\n * for the additional interface id that will be supported. For example:\n *\n * ```solidity\n * function supportsInterface(bytes4 interfaceId) public view virtual override returns (bool) {\n *     return interfaceId == type(MyInterface).interfaceId || super.supportsInterface(interfaceId);\n * }\n * ```\n *\n * Alternatively, {ERC165Storage} provides an easier to use but more expensive implementation.\n */\nabstract contract ERC165Upgradeable is Initializable, IERC165Upgradeable {\n    function __ERC165_init() internal onlyInitializing {\n    }\n\n    function __ERC165_init_unchained() internal onlyInitializing {\n    }\n    /**\n     * @dev See {IERC165-supportsInterface}.\n     */\n    function supportsInterface(bytes4 interfaceId) public view virtual override returns (bool) {\n        return interfaceId == type(IERC165Upgradeable).interfaceId;\n    }\n\n    /**\n     * @dev This empty reserved space is put in place to allow future versions to add new\n     * variables without shifting down storage in the inheritance chain.\n     * See https://docs.openzeppelin.com/contracts/4.x/upgradeable#storage_gaps\n     */\n    uint256[50] private __gap;\n}\n\n\n\n\n\n\n/**\n * @dev Contract module that allows children to implement role-based access\n * control mechanisms. This is a lightweight version that doesn't allow enumerating role\n * members except through off-chain means by accessing the contract event logs. Some\n * applications may benefit from on-chain enumerability, for those cases see\n * {AccessControlEnumerable}.\n *\n * Roles are referred to by their `bytes32` identifier. These should be exposed\n * in the external API and be unique. The best way to achieve this is by\n * using `public constant` hash digests:\n *\n * ```solidity\n * bytes32 public constant MY_ROLE = keccak256(\"MY_ROLE\");\n * ```\n *\n * Roles can be used to represent a set of permissions. To restrict access to a\n * function call, use {hasRole}:\n *\n * ```solidity\n * function foo() public {\n *     require(hasRole(MY_ROLE, msg.sender));\n *     ...\n * }\n * ```\n *\n * Roles can be granted and revoked dynamically via the {grantRole} and\n * {revokeRole} functions. Each role has an associated admin role, and only\n * accounts that have a role's admin role can call {grantRole} and {revokeRole}.\n *\n * By default, the admin role for all roles is `DEFAULT_ADMIN_ROLE`, which means\n * that only accounts with this role will be able to grant or revoke other\n * roles. More complex role relationships can be created by using\n * {_setRoleAdmin}.\n *\n * WARNING: The `DEFAULT_ADMIN_ROLE` is also its own admin: it has permission to\n * grant and revoke this role. Extra precautions should be taken to secure\n * accounts that have been granted it. We recommend using {AccessControlDefaultAdminRules}\n * to enforce additional security measures for this role.\n */\nabstract contract AccessControlUpgradeable is Initializable, ContextUpgradeable, IAccessControlUpgradeable, ERC165Upgradeable {\n    function __AccessControl_init() internal onlyInitializing {\n    }\n\n    function __AccessControl_init_unchained() internal onlyInitializing {\n    }\n    struct RoleData {\n        mapping(address => bool) members;\n        bytes32 adminRole;\n    }\n\n    mapping(bytes32 => RoleData) private _roles;\n\n    bytes32 public constant DEFAULT_ADMIN_ROLE = 0x00;\n\n    /**\n     * @dev Modifier that checks that an account has a specific role. Reverts\n     * with a standardized message including the required role.\n     *\n     * The format of the revert reason is given by the following regular expression:\n     *\n     *  /^AccessControl: account (0x[0-9a-f]{40}) is missing role (0x[0-9a-f]{64})$/\n     *\n     * _Available since v4.1._\n     */\n    modifier onlyRole(bytes32 role) {\n        _checkRole(role);\n        _;\n    }\n\n    /**\n     * @dev See {IERC165-supportsInterface}.\n     */\n    function supportsInterface(bytes4 interfaceId) public view virtual override returns (bool) {\n        return interfaceId == type(IAccessControlUpgradeable).interfaceId || super.supportsInterface(interfaceId);\n    }\n\n    /**\n     * @dev Returns `true` if `account` has been granted `role`.\n     */\n    function hasRole(bytes32 role, address account) public view virtual override returns (bool) {\n        return _roles[role].members[account];\n    }\n\n    /**\n     * @dev Revert with a standard message if `_msgSender()` is missing `role`.\n     * Overriding this function changes the behavior of the {onlyRole} modifier.\n     *\n     * Format of the revert message is described in {_checkRole}.\n     *\n     * _Available since v4.6._\n     */\n    function _checkRole(bytes32 role) internal view virtual {\n        _checkRole(role, _msgSender());\n    }\n\n    /**\n     * @dev Revert with a standard message if `account` is missing `role`.\n     *\n     * The format of the revert reason is given by the following regular expression:\n     *\n     *  /^AccessControl: account (0x[0-9a-f]{40}) is missing role (0x[0-9a-f]{64})$/\n     */\n    function _checkRole(bytes32 role, address account) internal view virtual {\n        if (!hasRole(role, account)) {\n            revert(\n                string(\n                    abi.encodePacked(\n                        \"AccessControl: account \",\n                        StringsUpgradeable.toHexString(account),\n                        \" is missing role \",\n                        StringsUpgradeable.toHexString(uint256(role), 32)\n                    )\n                )\n            );\n        }\n    }\n\n    /**\n     * @dev Returns the admin role that controls `role`. See {grantRole} and\n     * {revokeRole}.\n     *\n     * To change a role's admin, use {_setRoleAdmin}.\n     */\n    function getRoleAdmin(bytes32 role) public view virtual override returns (bytes32) {\n        return _roles[role].adminRole;\n    }\n\n    /**\n     * @dev Grants `role` to `account`.\n     *\n     * If `account` had not been already granted `role`, emits a {RoleGranted}\n     * event.\n     *\n     * Requirements:\n     *\n     * - the caller must have ``role``'s admin role.\n     *\n     * May emit a {RoleGranted} event.\n     */\n    function grantRole(bytes32 role, address account) public virtual override onlyRole(getRoleAdmin(role)) {\n        _grantRole(role, account);\n    }\n\n    /**\n     * @dev Revokes `role` from `account`.\n     *\n     * If `account` had been granted `role`, emits a {RoleRevoked} event.\n     *\n     * Requirements:\n     *\n     * - the caller must have ``role``'s admin role.\n     *\n     * May emit a {RoleRevoked} event.\n     */\n    function revokeRole(bytes32 role, address account) public virtual override onlyRole(getRoleAdmin(role)) {\n        _revokeRole(role, account);\n    }\n\n    /**\n     * @dev Revokes `role` from the calling account.\n     *\n     * Roles are often managed via {grantRole} and {revokeRole}: this function's\n     * purpose is to provide a mechanism for accounts to lose their privileges\n     * if they are compromised (such as when a trusted device is misplaced).\n     *\n     * If the calling account had been revoked `role`, emits a {RoleRevoked}\n     * event.\n     *\n     * Requirements:\n     *\n     * - the caller must be `account`.\n     *\n     * May emit a {RoleRevoked} event.\n     */\n    function renounceRole(bytes32 role, address account) public virtual override {\n        require(account == _msgSender(), \"AccessControl: can only renounce roles for self\");\n\n        _revokeRole(role, account);\n    }\n\n    /**\n     * @dev Grants `role` to `account`.\n     *\n     * If `account` had not been already granted `role`, emits a {RoleGranted}\n     * event. Note that unlike {grantRole}, this function doesn't perform any\n     * checks on the calling account.\n     *\n     * May emit a {RoleGranted} event.\n     *\n     * [WARNING]\n     * ====\n     * This function should only be called from the constructor when setting\n     * up the initial roles for the system.\n     *\n     * Using this function in any other way is effectively circumventing the admin\n     * system imposed by {AccessControl}.\n     * ====\n     *\n     * NOTE: This function is deprecated in favor of {_grantRole}.\n     */\n    function _setupRole(bytes32 role, address account) internal virtual {\n        _grantRole(role, account);\n    }\n\n    /**\n     * @dev Sets `adminRole` as ``role``'s admin role.\n     *\n     * Emits a {RoleAdminChanged} event.\n     */\n    function _setRoleAdmin(bytes32 role, bytes32 adminRole) internal virtual {\n        bytes32 previousAdminRole = getRoleAdmin(role);\n        _roles[role].adminRole = adminRole;\n        emit RoleAdminChanged(role, previousAdminRole, adminRole);\n    }\n\n    /**\n     * @dev Grants `role` to `account`.\n     *\n     * Internal function without access restriction.\n     *\n     * May emit a {RoleGranted} event.\n     */\n    function _grantRole(bytes32 role, address account) internal virtual {\n        if (!hasRole(role, account)) {\n            _roles[role].members[account] = true;\n            emit RoleGranted(role, account, _msgSender());\n        }\n    }\n\n    /**\n     * @dev Revokes `role` from `account`.\n     *\n     * Internal function without access restriction.\n     *\n     * May emit a {RoleRevoked} event.\n     */\n    function _revokeRole(bytes32 role, address account) internal virtual {\n        if (hasRole(role, account)) {\n            _roles[role].members[account] = false;\n            emit RoleRevoked(role, account, _msgSender());\n        }\n    }\n\n    /**\n     * @dev This empty reserved space is put in place to allow future versions to add new\n     * variables without shifting down storage in the inheritance chain.\n     * See https://docs.openzeppelin.com/contracts/4.x/upgradeable#storage_gaps\n     */\n    uint256[49] private __gap;\n}\n\n\n/**\n * @dev Required interface of an ERC721 compliant contract.\n */\ninterface IERC721Upgradeable is IERC165Upgradeable {\n    /**\n     * @dev Emitted when `tokenId` token is transferred from `from` to `to`.\n     */\n    event Transfer(address indexed from, address indexed to, uint256 indexed tokenId);\n\n    /**\n     * @dev Emitted when `owner` enables `approved` to manage the `tokenId` token.\n     */\n    event Approval(address indexed owner, address indexed approved, uint256 indexed tokenId);\n\n    /**\n     * @dev Emitted when `owner` enables or disables (`approved`) `operator` to manage all of its assets.\n     */\n    event ApprovalForAll(address indexed owner, address indexed operator, bool approved);\n\n    /**\n     * @dev Returns the number of tokens in ``owner``'s account.\n     */\n    function balanceOf(address owner) external view returns (uint256 balance);\n\n    /**\n     * @dev Returns the owner of the `tokenId` token.\n     *\n     * Requirements:\n     *\n     * - `tokenId` must exist.\n     */\n    function ownerOf(uint256 tokenId) external view returns (address owner);\n\n    /**\n     * @dev Safely transfers `tokenId` token from `from` to `to`.\n     *\n     * Requirements:\n     *\n     * - `from` cannot be the zero address.\n     * - `to` cannot be the zero address.\n     * - `tokenId` token must exist and be owned by `from`.\n     * - If the caller is not `from`, it must be approved to move this token by either {approve} or {setApprovalForAll}.\n     * - If `to` refers to a smart contract, it must implement {IERC721Receiver-onERC721Received}, which is called upon a safe transfer.\n     *\n     * Emits a {Transfer} event.\n     */\n    function safeTransferFrom(address from, address to, uint256 tokenId, bytes calldata data) external;\n\n    /**\n     * @dev Safely transfers `tokenId` token from `from` to `to`, checking first that contract recipients\n     * are aware of the ERC721 protocol to prevent tokens from being forever locked.\n     *\n     * Requirements:\n     *\n     * - `from` cannot be the zero address.\n     * - `to` cannot be the zero address.\n     * - `tokenId` token must exist and be owned by `from`.\n     * - If the caller is not `from`, it must have been allowed to move this token by either {approve} or {setApprovalForAll}.\n     * - If `to` refers to a smart contract, it must implement {IERC721Receiver-onERC721Received}, which is called upon a safe transfer.\n     *\n     * Emits a {Transfer} event.\n     */\n    function safeTransferFrom(address from, address to, uint256 tokenId) external;\n\n    /**\n     * @dev Transfers `tokenId` token from `from` to `to`.\n     *\n     * WARNING: Note that the caller is responsible to confirm that the recipient is capable of receiving ERC721\n     * or else they may be permanently lost. Usage of {safeTransferFrom} prevents loss, though the caller must\n     * understand this adds an external call which potentially creates a reentrancy vulnerability.\n     *\n     * Requirements:\n     *\n     * - `from` cannot be the zero address.\n     * - `to` cannot be the zero address.\n     * - `tokenId` token must be owned by `from`.\n     * - If the caller is not `from`, it must be approved to move this token by either {approve} or {setApprovalForAll}.\n     *\n     * Emits a {Transfer} event.\n     */\n    function transferFrom(address from, address to, uint256 tokenId) external;\n\n    /**\n     * @dev Gives permission to `to` to transfer `tokenId` token to another account.\n     * The approval is cleared when the token is transferred.\n     *\n     * Only a single account can be approved at a time, so approving the zero address clears previous approvals.\n     *\n     * Requirements:\n     *\n     * - The caller must own the token or be an approved operator.\n     * - `tokenId` must exist.\n     *\n     * Emits an {Approval} event.\n     */\n    function approve(address to, uint256 tokenId) external;\n\n    /**\n     * @dev Approve or remove `operator` as an operator for the caller.\n     * Operators can call {transferFrom} or {safeTransferFrom} for any token owned by the caller.\n     *\n     * Requirements:\n     *\n     * - The `operator` cannot be the caller.\n     *\n     * Emits an {ApprovalForAll} event.\n     */\n    function setApprovalForAll(address operator, bool approved) external;\n\n    /**\n     * @dev Returns the account approved for `tokenId` token.\n     *\n     * Requirements:\n     *\n     * - `tokenId` must exist.\n     */\n    function getApproved(uint256 tokenId) external view returns (address operator);\n\n    /**\n     * @dev Returns if the `operator` is allowed to manage all of the assets of `owner`.\n     *\n     * See {setApprovalForAll}\n     */\n    function isApprovedForAll(address owner, address operator) external view returns (bool);\n}\n\n\n/**\n * @title Counters\n * @author Matt Condon (@shrugs)\n * @dev Provides counters that can only be incremented, decremented or reset. This can be used e.g. to track the number\n * of elements in a mapping, issuing ERC721 ids, or counting request ids.\n *\n * Include with `using Counters for Counters.Counter;`\n */\nlibrary CountersUpgradeable {\n    struct Counter {\n        // This variable should never be directly accessed by users of the library: interactions must be restricted to\n        // the library's function. As of Solidity v0.5.2, this cannot be enforced, though there is a proposal to add\n        // this feature: see https://github.com/ethereum/solidity/issues/4637\n        uint256 _value; // default: 0\n    }\n\n    function current(Counter storage counter) internal view returns (uint256) {\n        return counter._value;\n    }\n\n    function increment(Counter storage counter) internal {\n        unchecked {\n            counter._value += 1;\n        }\n    }\n\n    function decrement(Counter storage counter) internal {\n        uint256 value = counter._value;\n        require(value > 0, \"Counter: decrement overflow\");\n        unchecked {\n            counter._value = value - 1;\n        }\n    }\n\n    function reset(Counter storage counter) internal {\n        counter._value = 0;\n    }\n}\n\n\n\n\ncontract SwapDataUpgradeable is Initializable, AccessControlUpgradeable {\n    using CountersUpgradeable for CountersUpgradeable.Counter;\n\n    struct SwapListing {\n        uint256 listingId;\n        IERC721Upgradeable tokenAddress;\n        uint256 tokenId;\n        address tokenOwner;\n        uint256 transactionChargeBips;\n        bool isCompleted;\n        bool isCancelled;\n        uint256 transactionCharge;\n    }\n\n    struct SwapOffer {\n        uint256 offerId;\n        uint256 listingId;\n        IERC721Upgradeable offerTokenAddress;\n        uint256 offerTokenId;\n        address offerTokenOwner;\n        IERC721Upgradeable listingTokenAddress;\n        uint256 listingTokenId;\n        address listingTokenOwner;\n        uint256 transactionChargeBips;\n        bool isCompleted;\n        bool isCancelled;\n        bool isDeclined;\n        uint256 transactionCharge;\n    }\n\n    struct Trade {\n        uint256 tradeId;\n        uint256 listingId;\n        uint256 offerId;\n    }\n\n    bytes32 public constant DATA_WRITER = keccak256(\"WRITE_DATA\");\n    bytes32 public constant DATA_MIGRATOR = keccak256(\"DATA_MIGRATOR\");\n\n    CountersUpgradeable.Counter private _listingIdTracker;\n    CountersUpgradeable.Counter private _offerIdTracker;\n    CountersUpgradeable.Counter private _tradeIdTracker;\n\n    mapping(uint256 => SwapListing) private _listings;\n    mapping(uint256 => SwapOffer) private _offers;\n    mapping(uint256 => Trade) private _trades;\n\n    event SwapListingAdded(SwapListing listing);\n    event SwapListingUpdated(SwapListing listing);\n    event SwapListingRemoved(uint256 listingId);\n    event SwapOfferAdded(SwapOffer offer);\n    event SwapOfferUpdated(SwapOffer offer);\n    event SwapOfferRemoved(uint256 id);\n    event TradeAdded(Trade trade);\n\n    function init(\n        address admin,\n        address writer\n    ) public initializer {\n        __AccessControl_init();\n        _grantRole(DEFAULT_ADMIN_ROLE, admin); // Admin Wallet address\n        _grantRole(DATA_WRITER, writer); // Swap COntract\n        _listingIdTracker.increment();\n        _offerIdTracker.increment();\n        _tradeIdTracker.increment();\n    }\n\n    // CRUD Listing\n    function addListing(SwapListing memory listing)\n        external\n        onlyRole(DATA_WRITER)\n        returns (bool)\n    {\n        listing.listingId = _listingIdTracker.current();\n        _listings[_listingIdTracker.current()] = listing;\n        _listingIdTracker.increment();\n        emit SwapListingAdded(listing);\n        return true;\n    }\n\n    function removeListingById(uint256 id)\n        external\n        onlyRole(DATA_WRITER)\n        returns (bool)\n    {\n        _listings[id].isCancelled = true;\n        emit SwapListingRemoved(id);\n        return true;\n    }\n\n    function updateListing(SwapListing memory listing)\n        external\n        onlyRole(DATA_WRITER)\n        returns (bool)\n    {\n        _listings[listing.listingId] = listing;\n        emit SwapListingUpdated(listing);\n        return true;\n    }\n\n    function readListingById(uint256 id)\n        external\n        view\n        returns (SwapListing memory)\n    {\n        return _listings[id];\n    }\n\n    // CRUD Offer\n    function addOffer(SwapOffer memory offer)\n        external\n        onlyRole(DATA_WRITER)\n        returns (bool)\n    {\n        offer.offerId = _offerIdTracker.current();\n        _offers[_offerIdTracker.current()] = offer;\n        _offerIdTracker.increment();\n        emit SwapOfferAdded(offer);\n        return true;\n    }\n\n    function removeOfferById(uint256 id)\n        external\n        onlyRole(DATA_WRITER)\n        returns (bool)\n    {\n        _offers[id].isCancelled = true;\n        emit SwapOfferRemoved(id);\n        return true;\n    }\n\n    function updateOffer(SwapOffer memory offer)\n        external\n        onlyRole(DATA_WRITER)\n        returns (bool)\n    {\n        _offers[offer.offerId] = offer;\n        emit SwapOfferUpdated(offer);\n        return true;\n    }\n\n    function readOfferById(uint256 id)\n        external\n        view\n        returns (SwapOffer memory)\n    {\n        return _offers[id];\n    }\n\n    function addTrade(Trade memory trade)\n        external\n        onlyRole(DATA_WRITER)\n        returns (bool)\n    {\n        trade.tradeId = _tradeIdTracker.current();\n        _trades[_tradeIdTracker.current()] = trade;\n        _tradeIdTracker.increment();\n        emit TradeAdded(trade);\n        return true;\n    }\n\n    function readTradeById(uint256 id)\n        external\n        view\n        returns (Trade memory)\n    {\n        return _trades[id];\n    }\n\n    // Bulk reads\n    function readAllListings()\n        external\n        view\n        returns (SwapListing[] memory)\n    {\n        SwapListing[] memory listings = new SwapListing[](\n            _listingIdTracker.current() - 1\n        );\n        for (uint256 i = 0; i < listings.length; i++) {\n            listings[i] = _listings[i + 1];\n        }\n        return listings;\n    }\n\n    function readListingsByIndex(\n        uint256 start,\n        uint256 end\n    ) external view returns (SwapListing[] memory list) {\n        require(end >= start, 'end should be bigger than start');\n        \n        uint256 lastIndex = _offerIdTracker.current() - 1;\n        uint256 i;\n        uint256 to = end;\n\n        if (start > lastIndex) return list;\n        if (end > lastIndex) to = lastIndex;\n\n        list = new SwapListing[](to - start + 1);\n        for (i = start; i <= to; i++) {\n            list[i - start] = _listings[i];\n        }\n        return list;\n    }\n\n    function readAllOffers()\n        external\n        view\n        returns (SwapOffer[] memory)\n    {\n        SwapOffer[] memory swapOffers = new SwapOffer[](\n            _offerIdTracker.current() - 1\n        );\n        for (uint256 i = 0; i < swapOffers.length; i++) {\n            swapOffers[i] = _offers[i + 1];\n        }\n        return swapOffers;\n    }\n\n    function readOffersByIndex(\n        uint256 start,\n        uint256 end\n    ) external view returns (SwapOffer[] memory list) {\n        require(end >= start, 'end should be bigger than start');\n        \n        uint256 lastIndex = _offerIdTracker.current() - 1;\n        uint256 i;\n        uint256 to = end;\n\n        if (start > lastIndex) return list;\n        if (end > lastIndex) to = lastIndex;\n\n        list = new SwapOffer[](to - start + 1);\n        for ( i = start; i <= to; i++) {\n            list[i - start] = _offers[i];\n        }\n        return list;\n    }\n\n    function readAllTrades()\n        external\n        view\n        returns (Trade[] memory)\n    {\n        Trade[] memory trades = new Trade[](_tradeIdTracker.current() - 1);\n        for (uint256 i = 0; i < trades.length; i++) {\n            trades[i] = _trades[i + 1];\n        }\n        return trades;\n    }\n\n    function readTradesByIndex(\n        uint256 start,\n        uint256 end\n    ) external view returns (Trade[] memory list) {\n        require(end >= start, 'end should be bigger than start');\n        \n        uint256 lastIndex = _tradeIdTracker.current() - 1;\n        uint256 i;\n        uint256 to = end;\n\n        if (start > lastIndex) return list;\n        if (end > lastIndex) to = lastIndex;\n\n        list = new Trade[](to - start + 1);\n        for (i = start; i <= to; i++) {\n            list[i - start] = _trades[i];\n        }\n    }\n\n    function grantWriterRole(address to) external {\n        grantRole(DATA_WRITER, to);\n    }\n}\n",
  "sourcePath": "/Users/shivam/github/contracts-upgradable/contracts/flat/SwapDataUpgradeable.sol",
  "compiler": {
    "name": "solc",
    "version": "0.8.17+commit.8df45f5f.Emscripten.clang"
  },
  "schemaVersion": "3.4.7",
  "updatedAt": "2023-11-25T08:17:58.396Z",
  "devdoc": {
    "kind": "dev",
    "methods": {
      "getRoleAdmin(bytes32)": {
        "details": "Returns the admin role that controls `role`. See {grantRole} and {revokeRole}. To change a role's admin, use {_setRoleAdmin}."
      },
      "grantRole(bytes32,address)": {
        "details": "Grants `role` to `account`. If `account` had not been already granted `role`, emits a {RoleGranted} event. Requirements: - the caller must have ``role``'s admin role. May emit a {RoleGranted} event."
      },
      "hasRole(bytes32,address)": {
        "details": "Returns `true` if `account` has been granted `role`."
      },
      "renounceRole(bytes32,address)": {
        "details": "Revokes `role` from the calling account. Roles are often managed via {grantRole} and {revokeRole}: this function's purpose is to provide a mechanism for accounts to lose their privileges if they are compromised (such as when a trusted device is misplaced). If the calling account had been revoked `role`, emits a {RoleRevoked} event. Requirements: - the caller must be `account`. May emit a {RoleRevoked} event."
      },
      "revokeRole(bytes32,address)": {
        "details": "Revokes `role` from `account`. If `account` had been granted `role`, emits a {RoleRevoked} event. Requirements: - the caller must have ``role``'s admin role. May emit a {RoleRevoked} event."
      },
      "supportsInterface(bytes4)": {
        "details": "See {IERC165-supportsInterface}."
      }
    },
    "version": 1
  },
  "userdoc": {
    "kind": "user",
    "methods": {},
    "version": 1
  }
}