{
  "contractName": "SwapNFTUpgradeable",
  "abi": [
    {
      "anonymous": false,
      "inputs": [
        {
          "indexed": false,
          "internalType": "uint8",
          "name": "version",
          "type": "uint8"
        }
      ],
      "name": "Initialized",
      "type": "event"
    },
    {
      "anonymous": false,
      "inputs": [
        {
          "indexed": true,
          "internalType": "bytes32",
          "name": "role",
          "type": "bytes32"
        },
        {
          "indexed": true,
          "internalType": "bytes32",
          "name": "previousAdminRole",
          "type": "bytes32"
        },
        {
          "indexed": true,
          "internalType": "bytes32",
          "name": "newAdminRole",
          "type": "bytes32"
        }
      ],
      "name": "RoleAdminChanged",
      "type": "event"
    },
    {
      "anonymous": false,
      "inputs": [
        {
          "indexed": true,
          "internalType": "bytes32",
          "name": "role",
          "type": "bytes32"
        },
        {
          "indexed": true,
          "internalType": "address",
          "name": "account",
          "type": "address"
        },
        {
          "indexed": true,
          "internalType": "address",
          "name": "sender",
          "type": "address"
        }
      ],
      "name": "RoleGranted",
      "type": "event"
    },
    {
      "anonymous": false,
      "inputs": [
        {
          "indexed": true,
          "internalType": "bytes32",
          "name": "role",
          "type": "bytes32"
        },
        {
          "indexed": true,
          "internalType": "address",
          "name": "account",
          "type": "address"
        },
        {
          "indexed": true,
          "internalType": "address",
          "name": "sender",
          "type": "address"
        }
      ],
      "name": "RoleRevoked",
      "type": "event"
    },
    {
      "anonymous": false,
      "inputs": [
        {
          "indexed": false,
          "internalType": "address",
          "name": "collectionAddress",
          "type": "address"
        },
        {
          "indexed": false,
          "internalType": "address",
          "name": "createdBy",
          "type": "address"
        },
        {
          "indexed": false,
          "internalType": "uint256",
          "name": "tokenId",
          "type": "uint256"
        }
      ],
      "name": "SwapListingCreated",
      "type": "event"
    },
    {
      "anonymous": false,
      "inputs": [
        {
          "indexed": false,
          "internalType": "address",
          "name": "owner",
          "type": "address"
        },
        {
          "indexed": false,
          "internalType": "uint256",
          "name": "listingId",
          "type": "uint256"
        }
      ],
      "name": "SwapListingWithdraw",
      "type": "event"
    },
    {
      "anonymous": false,
      "inputs": [
        {
          "indexed": false,
          "internalType": "address",
          "name": "acceptedBy",
          "type": "address"
        },
        {
          "indexed": false,
          "internalType": "uint256",
          "name": "offerId",
          "type": "uint256"
        },
        {
          "indexed": false,
          "internalType": "uint256",
          "name": "listingId",
          "type": "uint256"
        }
      ],
      "name": "SwapOfferAccepted",
      "type": "event"
    },
    {
      "anonymous": false,
      "inputs": [
        {
          "indexed": false,
          "internalType": "uint256",
          "name": "listingId",
          "type": "uint256"
        },
        {
          "indexed": false,
          "internalType": "address",
          "name": "from",
          "type": "address"
        },
        {
          "indexed": false,
          "internalType": "address",
          "name": "offerCollection",
          "type": "address"
        },
        {
          "indexed": false,
          "internalType": "uint256",
          "name": "tokenId",
          "type": "uint256"
        }
      ],
      "name": "SwapOfferCreated",
      "type": "event"
    },
    {
      "anonymous": false,
      "inputs": [
        {
          "indexed": false,
          "internalType": "address",
          "name": "declinedBy",
          "type": "address"
        },
        {
          "indexed": false,
          "internalType": "uint256",
          "name": "offerId",
          "type": "uint256"
        },
        {
          "indexed": false,
          "internalType": "uint256",
          "name": "listingId",
          "type": "uint256"
        }
      ],
      "name": "SwapOfferDeclied",
      "type": "event"
    },
    {
      "anonymous": false,
      "inputs": [
        {
          "indexed": false,
          "internalType": "address",
          "name": "owner",
          "type": "address"
        },
        {
          "indexed": false,
          "internalType": "uint256",
          "name": "offerId",
          "type": "uint256"
        }
      ],
      "name": "SwapOfferWithdraw",
      "type": "event"
    },
    {
      "anonymous": false,
      "inputs": [
        {
          "indexed": false,
          "internalType": "address",
          "name": "newTreasuryWallet",
          "type": "address"
        }
      ],
      "name": "TreasuryWalletChanged",
      "type": "event"
    },
    {
      "anonymous": false,
      "inputs": [
        {
          "indexed": false,
          "internalType": "uint256",
          "name": "newTxCharge",
          "type": "uint256"
        }
      ],
      "name": "TxChargeChanged",
      "type": "event"
    },
    {
      "inputs": [],
      "name": "DEFAULT_ADMIN_ROLE",
      "outputs": [
        {
          "internalType": "bytes32",
          "name": "",
          "type": "bytes32"
        }
      ],
      "stateMutability": "view",
      "type": "function"
    },
    {
      "inputs": [
        {
          "internalType": "bytes32",
          "name": "role",
          "type": "bytes32"
        }
      ],
      "name": "getRoleAdmin",
      "outputs": [
        {
          "internalType": "bytes32",
          "name": "",
          "type": "bytes32"
        }
      ],
      "stateMutability": "view",
      "type": "function"
    },
    {
      "inputs": [
        {
          "internalType": "bytes32",
          "name": "role",
          "type": "bytes32"
        },
        {
          "internalType": "address",
          "name": "account",
          "type": "address"
        }
      ],
      "name": "grantRole",
      "outputs": [],
      "stateMutability": "nonpayable",
      "type": "function"
    },
    {
      "inputs": [
        {
          "internalType": "bytes32",
          "name": "role",
          "type": "bytes32"
        },
        {
          "internalType": "address",
          "name": "account",
          "type": "address"
        }
      ],
      "name": "hasRole",
      "outputs": [
        {
          "internalType": "bool",
          "name": "",
          "type": "bool"
        }
      ],
      "stateMutability": "view",
      "type": "function"
    },
    {
      "inputs": [
        {
          "internalType": "bytes32",
          "name": "role",
          "type": "bytes32"
        },
        {
          "internalType": "address",
          "name": "account",
          "type": "address"
        }
      ],
      "name": "renounceRole",
      "outputs": [],
      "stateMutability": "nonpayable",
      "type": "function"
    },
    {
      "inputs": [
        {
          "internalType": "bytes32",
          "name": "role",
          "type": "bytes32"
        },
        {
          "internalType": "address",
          "name": "account",
          "type": "address"
        }
      ],
      "name": "revokeRole",
      "outputs": [],
      "stateMutability": "nonpayable",
      "type": "function"
    },
    {
      "inputs": [
        {
          "internalType": "bytes4",
          "name": "interfaceId",
          "type": "bytes4"
        }
      ],
      "name": "supportsInterface",
      "outputs": [
        {
          "internalType": "bool",
          "name": "",
          "type": "bool"
        }
      ],
      "stateMutability": "view",
      "type": "function"
    },
    {
      "inputs": [],
      "name": "txCharge",
      "outputs": [
        {
          "internalType": "uint256",
          "name": "",
          "type": "uint256"
        }
      ],
      "stateMutability": "view",
      "type": "function"
    },
    {
      "inputs": [
        {
          "internalType": "address",
          "name": "admin_",
          "type": "address"
        },
        {
          "internalType": "address",
          "name": "dataContract_",
          "type": "address"
        }
      ],
      "name": "init",
      "outputs": [],
      "stateMutability": "nonpayable",
      "type": "function"
    },
    {
      "inputs": [
        {
          "internalType": "uint256",
          "name": "tokenId_",
          "type": "uint256"
        },
        {
          "internalType": "address",
          "name": "nftContract_",
          "type": "address"
        }
      ],
      "name": "createListing",
      "outputs": [],
      "stateMutability": "payable",
      "type": "function"
    },
    {
      "inputs": [
        {
          "internalType": "uint256",
          "name": "tokenId_",
          "type": "uint256"
        },
        {
          "internalType": "address",
          "name": "nftContract_",
          "type": "address"
        },
        {
          "internalType": "uint256",
          "name": "listingId_",
          "type": "uint256"
        }
      ],
      "name": "createOffer",
      "outputs": [],
      "stateMutability": "nonpayable",
      "type": "function"
    },
    {
      "inputs": [
        {
          "internalType": "uint256",
          "name": "offerId_",
          "type": "uint256"
        },
        {
          "internalType": "uint256",
          "name": "listingId_",
          "type": "uint256"
        }
      ],
      "name": "declineOffer",
      "outputs": [],
      "stateMutability": "nonpayable",
      "type": "function"
    },
    {
      "inputs": [
        {
          "internalType": "uint256",
          "name": "offerId_",
          "type": "uint256"
        },
        {
          "internalType": "uint256",
          "name": "listingId_",
          "type": "uint256"
        }
      ],
      "name": "acceptOffer",
      "outputs": [],
      "stateMutability": "nonpayable",
      "type": "function"
    },
    {
      "inputs": [],
      "name": "readAllListings",
      "outputs": [
        {
          "components": [
            {
              "internalType": "uint256",
              "name": "listingId",
              "type": "uint256"
            },
            {
              "internalType": "contract IERC721Upgradeable",
              "name": "tokenAddress",
              "type": "address"
            },
            {
              "internalType": "uint256",
              "name": "tokenId",
              "type": "uint256"
            },
            {
              "internalType": "address",
              "name": "tokenOwner",
              "type": "address"
            },
            {
              "internalType": "uint256",
              "name": "transactionChargeBips",
              "type": "uint256"
            },
            {
              "internalType": "bool",
              "name": "isCompleted",
              "type": "bool"
            },
            {
              "internalType": "bool",
              "name": "isCancelled",
              "type": "bool"
            },
            {
              "internalType": "uint256",
              "name": "transactionCharge",
              "type": "uint256"
            }
          ],
          "internalType": "struct ISwapData.SwapListing[]",
          "name": "",
          "type": "tuple[]"
        }
      ],
      "stateMutability": "view",
      "type": "function"
    },
    {
      "inputs": [
        {
          "internalType": "uint256",
          "name": "start",
          "type": "uint256"
        },
        {
          "internalType": "uint256",
          "name": "end",
          "type": "uint256"
        }
      ],
      "name": "readListingsByIndex",
      "outputs": [
        {
          "components": [
            {
              "internalType": "uint256",
              "name": "listingId",
              "type": "uint256"
            },
            {
              "internalType": "contract IERC721Upgradeable",
              "name": "tokenAddress",
              "type": "address"
            },
            {
              "internalType": "uint256",
              "name": "tokenId",
              "type": "uint256"
            },
            {
              "internalType": "address",
              "name": "tokenOwner",
              "type": "address"
            },
            {
              "internalType": "uint256",
              "name": "transactionChargeBips",
              "type": "uint256"
            },
            {
              "internalType": "bool",
              "name": "isCompleted",
              "type": "bool"
            },
            {
              "internalType": "bool",
              "name": "isCancelled",
              "type": "bool"
            },
            {
              "internalType": "uint256",
              "name": "transactionCharge",
              "type": "uint256"
            }
          ],
          "internalType": "struct ISwapData.SwapListing[]",
          "name": "",
          "type": "tuple[]"
        }
      ],
      "stateMutability": "view",
      "type": "function"
    },
    {
      "inputs": [
        {
          "internalType": "uint256",
          "name": "id",
          "type": "uint256"
        }
      ],
      "name": "readListingById",
      "outputs": [
        {
          "components": [
            {
              "internalType": "uint256",
              "name": "listingId",
              "type": "uint256"
            },
            {
              "internalType": "contract IERC721Upgradeable",
              "name": "tokenAddress",
              "type": "address"
            },
            {
              "internalType": "uint256",
              "name": "tokenId",
              "type": "uint256"
            },
            {
              "internalType": "address",
              "name": "tokenOwner",
              "type": "address"
            },
            {
              "internalType": "uint256",
              "name": "transactionChargeBips",
              "type": "uint256"
            },
            {
              "internalType": "bool",
              "name": "isCompleted",
              "type": "bool"
            },
            {
              "internalType": "bool",
              "name": "isCancelled",
              "type": "bool"
            },
            {
              "internalType": "uint256",
              "name": "transactionCharge",
              "type": "uint256"
            }
          ],
          "internalType": "struct ISwapData.SwapListing",
          "name": "",
          "type": "tuple"
        }
      ],
      "stateMutability": "view",
      "type": "function"
    },
    {
      "inputs": [
        {
          "internalType": "uint256",
          "name": "id",
          "type": "uint256"
        }
      ],
      "name": "removeListingById",
      "outputs": [],
      "stateMutability": "nonpayable",
      "type": "function"
    },
    {
      "inputs": [],
      "name": "readAllOffers",
      "outputs": [
        {
          "components": [
            {
              "internalType": "uint256",
              "name": "offerId",
              "type": "uint256"
            },
            {
              "internalType": "uint256",
              "name": "listingId",
              "type": "uint256"
            },
            {
              "internalType": "contract IERC721Upgradeable",
              "name": "offerTokenAddress",
              "type": "address"
            },
            {
              "internalType": "uint256",
              "name": "offerTokenId",
              "type": "uint256"
            },
            {
              "internalType": "address",
              "name": "offerTokenOwner",
              "type": "address"
            },
            {
              "internalType": "contract IERC721Upgradeable",
              "name": "listingTokenAddress",
              "type": "address"
            },
            {
              "internalType": "uint256",
              "name": "listingTokenId",
              "type": "uint256"
            },
            {
              "internalType": "address",
              "name": "listingTokenOwner",
              "type": "address"
            },
            {
              "internalType": "uint256",
              "name": "transactionChargeBips",
              "type": "uint256"
            },
            {
              "internalType": "bool",
              "name": "isCompleted",
              "type": "bool"
            },
            {
              "internalType": "bool",
              "name": "isCancelled",
              "type": "bool"
            },
            {
              "internalType": "bool",
              "name": "isDeclined",
              "type": "bool"
            },
            {
              "internalType": "uint256",
              "name": "transactionCharge",
              "type": "uint256"
            }
          ],
          "internalType": "struct ISwapData.SwapOffer[]",
          "name": "",
          "type": "tuple[]"
        }
      ],
      "stateMutability": "view",
      "type": "function"
    },
    {
      "inputs": [
        {
          "internalType": "uint256",
          "name": "id",
          "type": "uint256"
        }
      ],
      "name": "readOfferById",
      "outputs": [
        {
          "components": [
            {
              "internalType": "uint256",
              "name": "offerId",
              "type": "uint256"
            },
            {
              "internalType": "uint256",
              "name": "listingId",
              "type": "uint256"
            },
            {
              "internalType": "contract IERC721Upgradeable",
              "name": "offerTokenAddress",
              "type": "address"
            },
            {
              "internalType": "uint256",
              "name": "offerTokenId",
              "type": "uint256"
            },
            {
              "internalType": "address",
              "name": "offerTokenOwner",
              "type": "address"
            },
            {
              "internalType": "contract IERC721Upgradeable",
              "name": "listingTokenAddress",
              "type": "address"
            },
            {
              "internalType": "uint256",
              "name": "listingTokenId",
              "type": "uint256"
            },
            {
              "internalType": "address",
              "name": "listingTokenOwner",
              "type": "address"
            },
            {
              "internalType": "uint256",
              "name": "transactionChargeBips",
              "type": "uint256"
            },
            {
              "internalType": "bool",
              "name": "isCompleted",
              "type": "bool"
            },
            {
              "internalType": "bool",
              "name": "isCancelled",
              "type": "bool"
            },
            {
              "internalType": "bool",
              "name": "isDeclined",
              "type": "bool"
            },
            {
              "internalType": "uint256",
              "name": "transactionCharge",
              "type": "uint256"
            }
          ],
          "internalType": "struct ISwapData.SwapOffer",
          "name": "",
          "type": "tuple"
        }
      ],
      "stateMutability": "view",
      "type": "function"
    },
    {
      "inputs": [
        {
          "internalType": "uint256",
          "name": "id",
          "type": "uint256"
        }
      ],
      "name": "removeOfferById",
      "outputs": [],
      "stateMutability": "nonpayable",
      "type": "function"
    },
    {
      "inputs": [
        {
          "internalType": "uint256",
          "name": "start",
          "type": "uint256"
        },
        {
          "internalType": "uint256",
          "name": "end",
          "type": "uint256"
        }
      ],
      "name": "readOffersByIndex",
      "outputs": [
        {
          "components": [
            {
              "internalType": "uint256",
              "name": "offerId",
              "type": "uint256"
            },
            {
              "internalType": "uint256",
              "name": "listingId",
              "type": "uint256"
            },
            {
              "internalType": "contract IERC721Upgradeable",
              "name": "offerTokenAddress",
              "type": "address"
            },
            {
              "internalType": "uint256",
              "name": "offerTokenId",
              "type": "uint256"
            },
            {
              "internalType": "address",
              "name": "offerTokenOwner",
              "type": "address"
            },
            {
              "internalType": "contract IERC721Upgradeable",
              "name": "listingTokenAddress",
              "type": "address"
            },
            {
              "internalType": "uint256",
              "name": "listingTokenId",
              "type": "uint256"
            },
            {
              "internalType": "address",
              "name": "listingTokenOwner",
              "type": "address"
            },
            {
              "internalType": "uint256",
              "name": "transactionChargeBips",
              "type": "uint256"
            },
            {
              "internalType": "bool",
              "name": "isCompleted",
              "type": "bool"
            },
            {
              "internalType": "bool",
              "name": "isCancelled",
              "type": "bool"
            },
            {
              "internalType": "bool",
              "name": "isDeclined",
              "type": "bool"
            },
            {
              "internalType": "uint256",
              "name": "transactionCharge",
              "type": "uint256"
            }
          ],
          "internalType": "struct ISwapData.SwapOffer[]",
          "name": "",
          "type": "tuple[]"
        }
      ],
      "stateMutability": "view",
      "type": "function"
    },
    {
      "inputs": [],
      "name": "readAllTrades",
      "outputs": [
        {
          "components": [
            {
              "internalType": "uint256",
              "name": "tradeId",
              "type": "uint256"
            },
            {
              "internalType": "uint256",
              "name": "listingId",
              "type": "uint256"
            },
            {
              "internalType": "uint256",
              "name": "offerId",
              "type": "uint256"
            }
          ],
          "internalType": "struct ISwapData.Trade[]",
          "name": "",
          "type": "tuple[]"
        }
      ],
      "stateMutability": "view",
      "type": "function"
    },
    {
      "inputs": [
        {
          "internalType": "uint256",
          "name": "start",
          "type": "uint256"
        },
        {
          "internalType": "uint256",
          "name": "end",
          "type": "uint256"
        }
      ],
      "name": "readTradesByIndex",
      "outputs": [
        {
          "components": [
            {
              "internalType": "uint256",
              "name": "tradeId",
              "type": "uint256"
            },
            {
              "internalType": "uint256",
              "name": "listingId",
              "type": "uint256"
            },
            {
              "internalType": "uint256",
              "name": "offerId",
              "type": "uint256"
            }
          ],
          "internalType": "struct ISwapData.Trade[]",
          "name": "",
          "type": "tuple[]"
        }
      ],
      "stateMutability": "view",
      "type": "function"
    },
    {
      "inputs": [
        {
          "internalType": "uint256",
          "name": "id",
          "type": "uint256"
        }
      ],
      "name": "readTradeById",
      "outputs": [
        {
          "components": [
            {
              "internalType": "uint256",
              "name": "tradeId",
              "type": "uint256"
            },
            {
              "internalType": "uint256",
              "name": "listingId",
              "type": "uint256"
            },
            {
              "internalType": "uint256",
              "name": "offerId",
              "type": "uint256"
            }
          ],
          "internalType": "struct ISwapData.Trade",
          "name": "",
          "type": "tuple"
        }
      ],
      "stateMutability": "view",
      "type": "function"
    },
    {
      "inputs": [
        {
          "internalType": "uint256",
          "name": "newTxCharge",
          "type": "uint256"
        }
      ],
      "name": "setTxCharge",
      "outputs": [],
      "stateMutability": "nonpayable",
      "type": "function"
    },
    {
      "inputs": [
        {
          "internalType": "address",
          "name": "newTreasury",
          "type": "address"
        }
      ],
      "name": "setTreasuryWallet",
      "outputs": [],
      "stateMutability": "nonpayable",
      "type": "function"
    },
    {
      "inputs": [],
      "name": "getTxCharge",
      "outputs": [
        {
          "internalType": "uint256",
          "name": "",
          "type": "uint256"
        }
      ],
      "stateMutability": "view",
      "type": "function"
    }
  ],
  "bytecode": "0x608060405234801561001057600080fd5b50613022806100206000396000f3fe60806040526004361061019c5760003560e01c806391d14854116100ec578063cb27da731161008a578063d7aa10fc11610064578063d7aa10fc1461049c578063eadece7d146104c9578063f022e25c146104e9578063f09a40161461051657600080fd5b8063cb27da731461043c578063cf2815351461045c578063d547741f1461047c57600080fd5b8063a8602fea116100c6578063a8602fea146103ad578063b81603ba146103cd578063bf34ebc8146103fa578063c2c83f9a1461041c57600080fd5b806391d14854146103585780639b59d95b14610378578063a217fddf1461039857600080fd5b806336568abe1161015957806367722a221161013357806367722a22146102f85780636c5a909e1461030d57806381257bd51461032257806381483a7e1461034257600080fd5b806336568abe146102985780634c8ed8ed146102b857806353e86fee146102d857600080fd5b806301ffc9a7146101a157806306f91841146101d6578063248a9ca31461020357806327425759146102415780632f2ff15d1461025657806331ebe3f914610276575b600080fd5b3480156101ad57600080fd5b506101c16101bc3660046125eb565b610536565b60405190151581526020015b60405180910390f35b3480156101e257600080fd5b506101f66101f1366004612615565b61056d565b6040516101cd9190612703565b34801561020f57600080fd5b5061023361021e366004612752565b60009081526065602052604090206001015490565b6040519081526020016101cd565b61025461024f366004612780565b6105ed565b005b34801561026257600080fd5b50610254610271366004612780565b610904565b34801561028257600080fd5b5061028b61092e565b6040516101cd91906127b0565b3480156102a457600080fd5b506102546102b3366004612780565b6109a5565b3480156102c457600080fd5b506102546102d3366004612752565b610a23565b3480156102e457600080fd5b5061028b6102f3366004612615565b610a6b565b34801561030457600080fd5b506101f6610ae4565b34801561031957600080fd5b50609a54610233565b34801561032e57600080fd5b5061025461033d366004612615565b610b56565b34801561034e57600080fd5b50610233609a5481565b34801561036457600080fd5b506101c1610373366004612780565b6112cb565b34801561038457600080fd5b50610254610393366004612806565b6112f6565b3480156103a457600080fd5b50610233600081565b3480156103b957600080fd5b506102546103c836600461283e565b611737565b3480156103d957600080fd5b506103ed6103e8366004612752565b611790565b6040516101cd91906128bb565b34801561040657600080fd5b5061040f611806565b6040516101cd91906128ca565b34801561042857600080fd5b50610254610437366004612752565b611878565b34801561044857600080fd5b50610254610457366004612615565b611a07565b34801561046857600080fd5b50610254610477366004612752565b611c91565b34801561048857600080fd5b50610254610497366004612780565b611e14565b3480156104a857600080fd5b506104bc6104b7366004612752565b611e39565b6040516101cd919061290d565b3480156104d557600080fd5b5061040f6104e4366004612615565b611eaf565b3480156104f557600080fd5b50610509610504366004612752565b611f28565b6040516101cd919061291c565b34801561052257600080fd5b5061025461053136600461293d565b611fb9565b60006001600160e01b03198216637965db0b60e01b148061056757506301ffc9a760e01b6001600160e01b03198316145b92915050565b6098546040516306f9184160e01b815260048101849052602481018390526060916001600160a01b0316906306f9184190604401600060405180830381865afa1580156105be573d6000803e3d6000fd5b505050506040513d6000823e601f3d908101601f191682016040526105e69190810190612af7565b9392505050565b8060006001600160a01b03821663e985e9c5336040516001600160e01b031960e084901b1681526001600160a01b039091166004820152306024820152604401602060405180830381865afa15801561064a573d6000803e3d6000fd5b505050506040513d601f19601f8201168201806040525081019061066e9190612b97565b9050609a5434146106d25760405162461bcd60e51b8152602060048201526024808201527f496e73756666696369656e7420746675656c2073656e7420666f7220747843686044820152636172676560e01b60648201526084015b60405180910390fd5b806106ef5760405162461bcd60e51b81526004016106c990612bb2565b336040516331a9108f60e11b8152600481018690526001600160a01b0391821691841690636352211e90602401602060405180830381865afa158015610739573d6000803e3d6000fd5b505050506040513d601f19601f8201168201806040525081019061075d9190612c08565b6001600160a01b0316146107b35760405162461bcd60e51b815260206004820181905260248201527f596f7520617265206e6f7420746865206f776e6572206f6620746865204e465460448201526064016106c9565b6107bb612524565b60008082526001600160a01b0384811660208401526040808401889052336060850152611388608085015260a0840183905260c08401839052609a5460e0850152609854905163366505c160e01b815291169063366505c1906108229085906004016128bb565b6020604051808303816000875af1158015610841573d6000803e3d6000fd5b505050506040513d601f19601f820116820180604052508101906108659190612b97565b9050806108b45760405162461bcd60e51b815260206004820152601960248201527f4c697374696e672063616e6e6f7420626520637265617465640000000000000060448201526064016106c9565b604080516001600160a01b038616815233602082015280820188905290517fde6257319cdab40152d4ae8968e5f8e8daf0057f72d2cf07d10341aa52db729c9181900360600190a1505050505050565b60008281526065602052604090206001015461091f81612113565b6109298383612120565b505050565b609854604080516331ebe3f960e01b815290516060926001600160a01b0316916331ebe3f99160048083019260009291908290030181865afa158015610978573d6000803e3d6000fd5b505050506040513d6000823e601f3d908101601f191682016040526109a09190810190612c81565b905090565b6001600160a01b0381163314610a155760405162461bcd60e51b815260206004820152602f60248201527f416363657373436f6e74726f6c3a2063616e206f6e6c792072656e6f756e636560448201526e103937b632b9903337b91039b2b63360891b60648201526084016106c9565b610a1f82826121a6565b5050565b6000610a2e81612113565b609a8290556040518281527f4057f491289141fe7a5384b41ce07001d561a33d28fb8fcc795e33f147df1b5d906020015b60405180910390a15050565b6098546040516329f437f760e11b815260048101849052602481018390526060916001600160a01b0316906353e86fee90604401600060405180830381865afa158015610abc573d6000803e3d6000fd5b505050506040513d6000823e601f3d908101601f191682016040526105e69190810190612c81565b609854604080516333b9151160e11b815290516060926001600160a01b0316916367722a229160048083019260009291908290030181865afa158015610b2e573d6000803e3d6000fd5b505050506040513d6000823e601f3d908101601f191682016040526109a09190810190612af7565b6098546040516335ea843f60e21b8152600481018490526000916001600160a01b03169063d7aa10fc906024016101a060405180830381865afa158015610ba1573d6000803e3d6000fd5b505050506040513d601f19601f82011682018060405250810190610bc59190612d0f565b609854604051635c0b01dd60e11b8152600481018590529192506000916001600160a01b039091169063b81603ba9060240161010060405180830381865afa158015610c15573d6000803e3d6000fd5b505050506040513d601f19601f82011682018060405250810190610c399190612ddd565b60408084015160a08501519183015160c0860151939450909214610c935760405162461bcd60e51b8152602060048201526011602482015270496e636f7272656374206c697374696e6760781b60448201526064016106c9565b602083015160408085015190516331a9108f60e11b8152600481019190915233906001600160a01b03831690636352211e90602401602060405180830381865afa158015610ce5573d6000803e3d6000fd5b505050506040513d601f19601f82011682018060405250810190610d099190612c08565b6001600160a01b031614610d6d5760405162461bcd60e51b815260206004820152602560248201527f596f7520617265206e6f7420746865206f776e6572206f662074686973206c696044820152647374696e6760d81b60648201526084016106c9565b83604001518560c0015114610dd05760405162461bcd60e51b815260206004820152602360248201527f496e65636f727265637420617474656d707420746f20616363657074206f666660448201526232b91760e91b60648201526084016106c9565b8360a00151158015610de55750846101200151155b610e245760405162461bcd60e51b815260206004820152601060248201526f24b73b30b634b2103932b8bab2b9ba1760811b60448201526064016106c9565b8360c00151158015610e395750846101400151155b610e785760405162461bcd60e51b815260206004820152601060248201526f24b73b30b634b2102932b8bab2b9ba1760811b60448201526064016106c9565b84610160015115610ebd5760405162461bcd60e51b815260206004820152600f60248201526e125b9d985b1a590814995c5d595cdd608a1b60448201526064016106c9565b608085015160405163e985e9c560e01b81526001600160a01b03918216600482015230602482015260009185169063e985e9c590604401602060405180830381865afa158015610f11573d6000803e3d6000fd5b505050506040513d601f19601f82011682018060405250810190610f359190612b97565b606086015160405163e985e9c560e01b81526001600160a01b0391821660048201523060248201529192506000919085169063e985e9c590604401602060405180830381865afa158015610f8d573d6000803e3d6000fd5b505050506040513d601f19601f82011682018060405250810190610fb19190612b97565b9050818015610fbd5750805b610ff85760405162461bcd60e51b815260206004820152600c60248201526b1b9bdd08185c1c1c9bdd995960a21b60448201526064016106c9565b608087015160e088015160608901516040516323b872dd60e01b81526001600160a01b03938416600482015291831660248301526044820152908616906323b872dd90606401600060405180830381600087803b15801561105857600080fd5b505af115801561106c573d6000803e3d6000fd5b5050505060e0870151608088015160c08901516040516323b872dd60e01b81526001600160a01b03938416600482015291831660248301526044820152908516906323b872dd90606401600060405180830381600087803b1580156110d057600080fd5b505af11580156110e4573d6000803e3d6000fd5b5050609b5460e089015161110593506001600160a01b03909116915061220d565b600160a0870181905261012088015260985460405163636651bb60e01b81526001600160a01b039091169063636651bb906111449089906004016128bb565b600060405180830381600087803b15801561115e57600080fd5b505af1158015611172573d6000803e3d6000fd5b50506098546040516348b3df3160e11b81526001600160a01b039091169250639167be6291506111a6908a9060040161290d565b600060405180830381600087803b1580156111c057600080fd5b505af11580156111d4573d6000803e3d6000fd5b505050506111fc60405180606001604052806000815260200160008152602001600081525090565b86516020820152875160408083019190915260985490516367fbe48760e11b81526001600160a01b039091169063cff7c90e9061123d90849060040161291c565b600060405180830381600087803b15801561125757600080fd5b505af115801561126b573d6000803e3d6000fd5b505050507f0e04e37ceddc00919dd8bac84e926e7cb4c443a5647fa684ddaadd411d81a2a26112973390565b604080516001600160a01b039092168252602082018d905281018b905260600160405180910390a150505050505050505050565b60009182526065602090815260408084206001600160a01b0393909316845291905290205460ff1690565b8160006001600160a01b03821663e985e9c5336040516001600160e01b031960e084901b1681526001600160a01b039091166004820152306024820152604401602060405180830381865afa158015611353573d6000803e3d6000fd5b505050506040513d601f19601f820116820180604052508101906113779190612b97565b9050806113965760405162461bcd60e51b81526004016106c990612bb2565b336040516331a9108f60e11b8152600481018790526001600160a01b0391821691841690636352211e90602401602060405180830381865afa1580156113e0573d6000803e3d6000fd5b505050506040513d601f19601f820116820180604052508101906114049190612c08565b6001600160a01b03161461145a5760405162461bcd60e51b815260206004820181905260248201527f596f7520617265206e6f7420746865206f776e6572206f6620746865204e465460448201526064016106c9565b609854604051635c0b01dd60e11b8152600481018590526000916001600160a01b03169063b81603ba9060240161010060405180830381865afa1580156114a5573d6000803e3d6000fd5b505050506040513d601f19601f820116820180604052508101906114c99190612ddd565b905060008160200151905081606001516001600160a01b0316816001600160a01b0316636352211e84604001516040518263ffffffff1660e01b815260040161151491815260200190565b602060405180830381865afa158015611531573d6000803e3d6000fd5b505050506040513d601f19601f820116820180604052508101906115559190612c08565b6001600160a01b03161461159d5760405162461bcd60e51b815260206004820152600f60248201526e131a5cdd1a5b99c8115e1c1a5c9959608a1b60448201526064016106c9565b6115a561257f565b6001600160a01b03851660408201526020810186905260608101889052336001600160a01b0390811660808301526020840151811660a083015260408085015160c08401526060850151821660e08401526113886101008401526000610120840181905261014084018190526101608401819052609a546101808501526098549151635541596b60e01b815290929190911690635541596b9061164c90859060040161290d565b6020604051808303816000875af115801561166b573d6000803e3d6000fd5b505050506040513d601f19601f8201168201806040525081019061168f9190612b97565b9050806116de5760405162461bcd60e51b815260206004820152601760248201527f4f666665722063616e6f7420626520637265617465642e00000000000000000060448201526064016106c9565b604080518881523360208201526001600160a01b03881681830152606081018b905290517f1784ac518c432a640a8f7667083afc05a0fad0da02bf0c8e576e70ece4c79f4d9181900360800190a1505050505050505050565b600061174281612113565b609b80546001600160a01b0319166001600160a01b0384169081179091556040519081527f2551960305e8f85b09658bb3075878e3e3cef37a5f7b5d43261f5e6f36b3d6a490602001610a5f565b611798612524565b609854604051635c0b01dd60e11b8152600481018490526001600160a01b039091169063b81603ba9060240161010060405180830381865afa1580156117e2573d6000803e3d6000fd5b505050506040513d601f19601f820116820180604052508101906105679190612ddd565b609854604080516317e69d7960e31b815290516060926001600160a01b03169163bf34ebc89160048083019260009291908290030181865afa158015611850573d6000803e3d6000fd5b505050506040513d6000823e601f3d908101601f191682016040526109a09190810190612dfa565b6098546040516335ea843f60e21b8152600481018390526000916001600160a01b03169063d7aa10fc906024016101a060405180830381865afa1580156118c3573d6000803e3d6000fd5b505050506040513d601f19601f820116820180604052508101906118e79190612d0f565b905080608001516001600160a01b03166118fe3390565b6001600160a01b0316146119635760405162461bcd60e51b815260206004820152602660248201527f4f6e6c79206f666665722063726561746f72732063616e2072656d6f7665206f604482015265333332b9399760d11b60648201526084016106c9565b6098546040516361641fcd60e11b8152600481018490526001600160a01b039091169063c2c83f9a90602401600060405180830381600087803b1580156119a957600080fd5b505af11580156119bd573d6000803e3d6000fd5b505050507fe865ffa5b7c4dd36ade4ec9c25454b2ff28c1e1ea69e14bc7769d9f2484d8ba46119e93390565b604080516001600160a01b0390921682526020820185905201610a5f565b6098546040516335ea843f60e21b8152600481018490526000916001600160a01b03169063d7aa10fc906024016101a060405180830381865afa158015611a52573d6000803e3d6000fd5b505050506040513d601f19601f82011682018060405250810190611a769190612d0f565b609854604051635c0b01dd60e11b8152600481018590529192506000916001600160a01b039091169063b81603ba9060240161010060405180830381865afa158015611ac6573d6000803e3d6000fd5b505050506040513d601f19601f82011682018060405250810190611aea9190612ddd565b905080604001518260c0015114611b4f5760405162461bcd60e51b8152602060048201526024808201527f496e65636f727265637420617474656d707420746f206465636c696e65206f666044820152633332b91760e11b60648201526084016106c9565b60e08201516001600160a01b03163314611bd15760405162461bcd60e51b815260206004820152603a60248201527f596f7520617265206e6f7420617574686f72697a656420746f206465636c696e60448201527f65206f666665727320666f722074686973206c697374696e672e00000000000060648201526084016106c9565b60016101608301526098546040516348b3df3160e11b81526001600160a01b0390911690639167be6290611c0990859060040161290d565b600060405180830381600087803b158015611c2357600080fd5b505af1158015611c37573d6000803e3d6000fd5b505050507f461932dce2732af66de25dd7ad73265dd9dc87c073093f99d03637f1ef3d07a3611c633390565b604080516001600160a01b03909216825260208201879052810185905260600160405180910390a150505050565b609854604051635c0b01dd60e11b8152600481018390526000916001600160a01b03169063b81603ba9060240161010060405180830381865afa158015611cdc573d6000803e3d6000fd5b505050506040513d601f19601f82011682018060405250810190611d009190612ddd565b905080606001516001600160a01b0316611d173390565b6001600160a01b031614611d805760405162461bcd60e51b815260206004820152602a60248201527f4f6e6c79206c697374696e672063726561746f72732063616e2072656d6f7665604482015269103634b9ba34b733b99760b11b60648201526084016106c9565b611d8e338260e0015161220d565b60985460405163cf28153560e01b8152600481018490526001600160a01b039091169063cf28153590602401600060405180830381600087803b158015611dd457600080fd5b505af1158015611de8573d6000803e3d6000fd5b505050507f143057f4f01bf6591aecc4d046a991c5efed59b28eeb9af09c6267e8dd70de536119e93390565b600082815260656020526040902060010154611e2f81612113565b61092983836121a6565b611e4161257f565b6098546040516335ea843f60e21b8152600481018490526001600160a01b039091169063d7aa10fc906024016101a060405180830381865afa158015611e8b573d6000803e3d6000fd5b505050506040513d601f19601f820116820180604052508101906105679190612d0f565b60985460405163eadece7d60e01b815260048101849052602481018390526060916001600160a01b03169063eadece7d90604401600060405180830381865afa158015611f00573d6000803e3d6000fd5b505050506040513d6000823e601f3d908101601f191682016040526105e69190810190612dfa565b611f4c60405180606001604052806000815260200160008152602001600081525090565b609854604051633c08b89760e21b8152600481018490526001600160a01b039091169063f022e25c90602401606060405180830381865afa158015611f95573d6000803e3d6000fd5b505050506040513d601f19601f820116820180604052508101906105679190612e97565b600054610100900460ff1615808015611fd95750600054600160ff909116105b80611ff35750303b158015611ff3575060005460ff166001145b6120565760405162461bcd60e51b815260206004820152602e60248201527f496e697469616c697a61626c653a20636f6e747261637420697320616c72656160448201526d191e481a5b9a5d1a585b1a5e995960921b60648201526084016106c9565b6000805460ff191660011790558015612079576000805461ff0019166101001790555b6120816122b0565b6120896122b0565b612094600084612120565b609880546001600160a01b0384166001600160a01b031991821617909155678ac7230489e80000609955609b8054909116331790558015610929576000805461ff0019169055604051600181527f7f26b83ff96e1f2b6a682f133852f6798a09c465da95921460cefb38474024989060200160405180910390a1505050565b61211d813361231d565b50565b61212a82826112cb565b610a1f5760008281526065602090815260408083206001600160a01b03851684529091529020805460ff191660011790556121623390565b6001600160a01b0316816001600160a01b0316837f2f8788117e7eff1d82e926ec794901d17c78024a50270940304540a733656f0d60405160405180910390a45050565b6121b082826112cb565b15610a1f5760008281526065602090815260408083206001600160a01b0385168085529252808320805460ff1916905551339285917ff6391f5c32d9c69d2a47ea670b442974b53935d1edc7fd64eb21e047a839171b9190a45050565b6000826001600160a01b03168260405160006040518083038185875af1925050503d806000811461225a576040519150601f19603f3d011682016040523d82523d6000602084013e61225f565b606091505b50509050806109295760405162461bcd60e51b815260206004820152601f60248201527f5472616e7366657248656c7065723a205452414e534645525f4641494c45440060448201526064016106c9565b600054610100900460ff1661231b5760405162461bcd60e51b815260206004820152602b60248201527f496e697469616c697a61626c653a20636f6e7472616374206973206e6f74206960448201526a6e697469616c697a696e6760a81b60648201526084016106c9565b565b61232782826112cb565b610a1f5761233481612376565b61233f836020612388565b604051602001612350929190612ed7565b60408051601f198184030181529082905262461bcd60e51b82526106c991600401612f4c565b60606105676001600160a01b03831660145b60606000612397836002612f95565b6123a2906002612fac565b67ffffffffffffffff8111156123ba576123ba61296b565b6040519080825280601f01601f1916602001820160405280156123e4576020820181803683370190505b509050600360fc1b816000815181106123ff576123ff612fbf565b60200101906001600160f81b031916908160001a905350600f60fb1b8160018151811061242e5761242e612fbf565b60200101906001600160f81b031916908160001a9053506000612452846002612f95565b61245d906001612fac565b90505b60018111156124d5576f181899199a1a9b1b9c1cb0b131b232b360811b85600f166010811061249157612491612fbf565b1a60f81b8282815181106124a7576124a7612fbf565b60200101906001600160f81b031916908160001a90535060049490941c936124ce81612fd5565b9050612460565b5083156105e65760405162461bcd60e51b815260206004820181905260248201527f537472696e67733a20686578206c656e67746820696e73756666696369656e7460448201526064016106c9565b6040518061010001604052806000815260200160006001600160a01b031681526020016000815260200160006001600160a01b0316815260200160008152602001600015158152602001600015158152602001600081525090565b604080516101a081018252600080825260208201819052918101829052606081018290526080810182905260a0810182905260c0810182905260e08101829052610100810182905261012081018290526101408101829052610160810182905261018081019190915290565b6000602082840312156125fd57600080fd5b81356001600160e01b0319811681146105e657600080fd5b6000806040838503121561262857600080fd5b50508035926020909101359150565b8051825260208101516020830152604081015161265f60408401826001600160a01b03169052565b5060608101516060830152608081015161268460808401826001600160a01b03169052565b5060a081015161269f60a08401826001600160a01b03169052565b5060c081015160c083015260e08101516126c460e08401826001600160a01b03169052565b50610100818101519083015261012080820151151590830152610140808201511515908301526101608082015115159083015261018090810151910152565b6020808252825182820181905260009190848201906040850190845b8181101561274657612732838551612637565b928401926101a0929092019160010161271f565b50909695505050505050565b60006020828403121561276457600080fd5b5035919050565b6001600160a01b038116811461211d57600080fd5b6000806040838503121561279357600080fd5b8235915060208301356127a58161276b565b809150509250929050565b6020808252825182820181905260009190848201906040850190845b81811015612746576127f38385518051825260208082015190830152604090810151910152565b92840192606092909201916001016127cc565b60008060006060848603121561281b57600080fd5b83359250602084013561282d8161276b565b929592945050506040919091013590565b60006020828403121561285057600080fd5b81356105e68161276b565b80518252602081015160018060a01b0380821660208501526040830151604085015280606084015116606085015250506080810151608083015260a0810151151560a083015260c0810151151560c083015260e081015160e08301525050565b6101008101610567828461285b565b6020808252825182820181905260009190848201906040850190845b81811015612746576128f983855161285b565b9284019261010092909201916001016128e6565b6101a081016105678284612637565b81518152602080830151908201526040808301519082015260608101610567565b6000806040838503121561295057600080fd5b823561295b8161276b565b915060208301356127a58161276b565b634e487b7160e01b600052604160045260246000fd5b6040516101a0810167ffffffffffffffff811182821017156129a5576129a561296b565b60405290565b604051601f8201601f1916810167ffffffffffffffff811182821017156129d4576129d461296b565b604052919050565b600067ffffffffffffffff8211156129f6576129f661296b565b5060051b60200190565b8051612a0b8161276b565b919050565b80518015158114612a0b57600080fd5b60006101a08284031215612a3357600080fd5b612a3b612981565b90508151815260208201516020820152612a5760408301612a00565b604082015260608201516060820152612a7260808301612a00565b6080820152612a8360a08301612a00565b60a082015260c082015160c0820152612a9e60e08301612a00565b60e08201526101008281015190820152610120612abc818401612a10565b90820152610140612ace838201612a10565b90820152610160612ae0838201612a10565b818301525061018080830151818301525092915050565b60006020808385031215612b0a57600080fd5b825167ffffffffffffffff811115612b2157600080fd5b8301601f81018513612b3257600080fd5b8051612b45612b40826129dc565b6129ab565b8181526101a09182028301840191848201919088841115612b6557600080fd5b938501935b83851015612b8b57612b7c8986612a20565b83529384019391850191612b6a565b50979650505050505050565b600060208284031215612ba957600080fd5b6105e682612a10565b60208082526036908201527f417070726f76616c20697320726571756972656420666f72205377617020436f604082015275373a3930b1ba103132b337b932903634b9ba34b7339760511b606082015260800190565b600060208284031215612c1a57600080fd5b81516105e68161276b565b600060608284031215612c3757600080fd5b6040516060810181811067ffffffffffffffff82111715612c5a57612c5a61296b565b80604052508091508251815260208301516020820152604083015160408201525092915050565b60006020808385031215612c9457600080fd5b825167ffffffffffffffff811115612cab57600080fd5b8301601f81018513612cbc57600080fd5b8051612cca612b40826129dc565b81815260609182028301840191848201919088841115612ce957600080fd5b938501935b83851015612b8b57612d008986612c25565b83529384019391850191612cee565b60006101a08284031215612d2257600080fd5b6105e68383612a20565b6000610100808385031215612d4057600080fd5b6040519081019067ffffffffffffffff82118183101715612d6357612d6361296b565b816040528092508351815260208401519150612d7e8261276b565b81602082015260408401516040820152612d9a60608501612a00565b606082015260808401516080820152612db560a08501612a10565b60a0820152612dc660c08501612a10565b60c082015260e084015160e0820152505092915050565b60006101008284031215612df057600080fd5b6105e68383612d2c565b60006020808385031215612e0d57600080fd5b825167ffffffffffffffff811115612e2457600080fd5b8301601f81018513612e3557600080fd5b8051612e43612b40826129dc565b81815260089190911b82018301908381019087831115612e6257600080fd5b928401925b82841015612e8c57612e798885612d2c565b8252848201915061010084019350612e67565b979650505050505050565b600060608284031215612ea957600080fd5b6105e68383612c25565b60005b83811015612ece578181015183820152602001612eb6565b50506000910152565b7f416363657373436f6e74726f6c3a206163636f756e7420000000000000000000815260008351612f0f816017850160208801612eb3565b7001034b99036b4b9b9b4b733903937b6329607d1b6017918401918201528351612f40816028840160208801612eb3565b01602801949350505050565b6020815260008251806020840152612f6b816040850160208701612eb3565b601f01601f19169190910160400192915050565b634e487b7160e01b600052601160045260246000fd5b808202811582820484141761056757610567612f7f565b8082018082111561056757610567612f7f565b634e487b7160e01b600052603260045260246000fd5b600081612fe457612fe4612f7f565b50600019019056fea2646970667358221220abc3062706c910152be5293c2c679da18d2d157c9a46f56287b8ad20eace9e0964736f6c63430008110033",
  "immutableReferences": {},
  "source": "// SPDX-License-Identifier: MIT\n// OpenZeppelin Contracts v4.4.1 (utils/introspection/IERC165.sol)\n\npragma solidity ^0.8.0;\n\n/**\n * @dev Interface of the ERC165 standard, as defined in the\n * https://eips.ethereum.org/EIPS/eip-165[EIP].\n *\n * Implementers can declare support of contract interfaces, which can then be\n * queried by others ({ERC165Checker}).\n *\n * For an implementation, see {ERC165}.\n */\ninterface IERC165Upgradeable {\n    /**\n     * @dev Returns true if this contract implements the interface defined by\n     * `interfaceId`. See the corresponding\n     * https://eips.ethereum.org/EIPS/eip-165#how-interfaces-are-identified[EIP section]\n     * to learn more about how these ids are created.\n     *\n     * This function call must use less than 30 000 gas.\n     */\n    function supportsInterface(bytes4 interfaceId) external view returns (bool);\n}\n\n/**\n * @dev Required interface of an ERC721 compliant contract.\n */\ninterface IERC721Upgradeable is IERC165Upgradeable {\n    /**\n     * @dev Emitted when `tokenId` token is transferred from `from` to `to`.\n     */\n    event Transfer(address indexed from, address indexed to, uint256 indexed tokenId);\n\n    /**\n     * @dev Emitted when `owner` enables `approved` to manage the `tokenId` token.\n     */\n    event Approval(address indexed owner, address indexed approved, uint256 indexed tokenId);\n\n    /**\n     * @dev Emitted when `owner` enables or disables (`approved`) `operator` to manage all of its assets.\n     */\n    event ApprovalForAll(address indexed owner, address indexed operator, bool approved);\n\n    /**\n     * @dev Returns the number of tokens in ``owner``'s account.\n     */\n    function balanceOf(address owner) external view returns (uint256 balance);\n\n    /**\n     * @dev Returns the owner of the `tokenId` token.\n     *\n     * Requirements:\n     *\n     * - `tokenId` must exist.\n     */\n    function ownerOf(uint256 tokenId) external view returns (address owner);\n\n    /**\n     * @dev Safely transfers `tokenId` token from `from` to `to`.\n     *\n     * Requirements:\n     *\n     * - `from` cannot be the zero address.\n     * - `to` cannot be the zero address.\n     * - `tokenId` token must exist and be owned by `from`.\n     * - If the caller is not `from`, it must be approved to move this token by either {approve} or {setApprovalForAll}.\n     * - If `to` refers to a smart contract, it must implement {IERC721Receiver-onERC721Received}, which is called upon a safe transfer.\n     *\n     * Emits a {Transfer} event.\n     */\n    function safeTransferFrom(address from, address to, uint256 tokenId, bytes calldata data) external;\n\n    /**\n     * @dev Safely transfers `tokenId` token from `from` to `to`, checking first that contract recipients\n     * are aware of the ERC721 protocol to prevent tokens from being forever locked.\n     *\n     * Requirements:\n     *\n     * - `from` cannot be the zero address.\n     * - `to` cannot be the zero address.\n     * - `tokenId` token must exist and be owned by `from`.\n     * - If the caller is not `from`, it must have been allowed to move this token by either {approve} or {setApprovalForAll}.\n     * - If `to` refers to a smart contract, it must implement {IERC721Receiver-onERC721Received}, which is called upon a safe transfer.\n     *\n     * Emits a {Transfer} event.\n     */\n    function safeTransferFrom(address from, address to, uint256 tokenId) external;\n\n    /**\n     * @dev Transfers `tokenId` token from `from` to `to`.\n     *\n     * WARNING: Note that the caller is responsible to confirm that the recipient is capable of receiving ERC721\n     * or else they may be permanently lost. Usage of {safeTransferFrom} prevents loss, though the caller must\n     * understand this adds an external call which potentially creates a reentrancy vulnerability.\n     *\n     * Requirements:\n     *\n     * - `from` cannot be the zero address.\n     * - `to` cannot be the zero address.\n     * - `tokenId` token must be owned by `from`.\n     * - If the caller is not `from`, it must be approved to move this token by either {approve} or {setApprovalForAll}.\n     *\n     * Emits a {Transfer} event.\n     */\n    function transferFrom(address from, address to, uint256 tokenId) external;\n\n    /**\n     * @dev Gives permission to `to` to transfer `tokenId` token to another account.\n     * The approval is cleared when the token is transferred.\n     *\n     * Only a single account can be approved at a time, so approving the zero address clears previous approvals.\n     *\n     * Requirements:\n     *\n     * - The caller must own the token or be an approved operator.\n     * - `tokenId` must exist.\n     *\n     * Emits an {Approval} event.\n     */\n    function approve(address to, uint256 tokenId) external;\n\n    /**\n     * @dev Approve or remove `operator` as an operator for the caller.\n     * Operators can call {transferFrom} or {safeTransferFrom} for any token owned by the caller.\n     *\n     * Requirements:\n     *\n     * - The `operator` cannot be the caller.\n     *\n     * Emits an {ApprovalForAll} event.\n     */\n    function setApprovalForAll(address operator, bool approved) external;\n\n    /**\n     * @dev Returns the account approved for `tokenId` token.\n     *\n     * Requirements:\n     *\n     * - `tokenId` must exist.\n     */\n    function getApproved(uint256 tokenId) external view returns (address operator);\n\n    /**\n     * @dev Returns if the `operator` is allowed to manage all of the assets of `owner`.\n     *\n     * See {setApprovalForAll}\n     */\n    function isApprovedForAll(address owner, address operator) external view returns (bool);\n}\n\ninterface ISwapData {\n    struct SwapListing {\n        uint256 listingId;\n        IERC721Upgradeable tokenAddress;\n        uint256 tokenId;\n        address tokenOwner;\n        uint256 transactionChargeBips;\n        bool isCompleted;\n        bool isCancelled;\n        uint256 transactionCharge;\n    }\n\n    struct SwapOffer {\n        uint256 offerId;\n        uint256 listingId;\n        IERC721Upgradeable offerTokenAddress;\n        uint256 offerTokenId;\n        address offerTokenOwner;\n        IERC721Upgradeable listingTokenAddress;\n        uint256 listingTokenId;\n        address listingTokenOwner;\n        uint256 transactionChargeBips;\n        bool isCompleted;\n        bool isCancelled;\n        bool isDeclined;\n        uint256 transactionCharge;\n    }\n\n    struct Trade {\n        uint256 tradeId;\n        uint256 listingId;\n        uint256 offerId;\n    }\n\n    event SwapListingAdded(SwapListing listing);\n    event SwapListingUpdated(SwapListing listing);\n    event SwapListingRemoved(uint256 listingId);\n    event SwapOfferAdded(SwapOffer offer);\n    event SwapOfferUpdated(SwapOffer offer);\n    event SwapOfferRemoved(uint256 id);\n    event TradeAdded(Trade trade);\n\n    function addListing(SwapListing memory listing) external returns (bool);\n\n    function removeListingById(uint256 id) external;\n\n    function updateListing(SwapListing memory listing) external;\n\n    function readListingById(uint256 id)\n        external\n        view\n        returns (SwapListing memory);\n\n    function addOffer(SwapOffer memory offer) external returns (bool);\n\n    function removeOfferById(uint256 id) external;\n\n    function updateOffer(SwapOffer memory offer) external;\n\n    function readOfferById(uint256 id) external view returns (SwapOffer memory);\n\n    function addTrade(Trade memory trade) external;\n\n    function readTradeById(uint256 id) external view returns (Trade memory);\n\n    function readAllListings() external view returns (SwapListing[] memory);\n\n    function readAllOffers() external view returns (SwapOffer[] memory);\n\n    function readAllTrades() external view returns (Trade[] memory);\n    function readListingsByIndex(\n        uint256 start,\n        uint256 end\n    ) external view returns (SwapListing[] memory);\n\n    function readOffersByIndex(\n        uint256 start,\n        uint256 end\n    ) external view returns (SwapOffer[] memory);\n    function readTradesByIndex(\n        uint256 start,\n        uint256 end\n    ) external view returns (Trade[] memory);\n}\n\n\n/**\n * @dev Interface of the ERC20 standard as defined in the EIP.\n */\ninterface IERC20Upgradeable {\n    /**\n     * @dev Emitted when `value` tokens are moved from one account (`from`) to\n     * another (`to`).\n     *\n     * Note that `value` may be zero.\n     */\n    event Transfer(address indexed from, address indexed to, uint256 value);\n\n    /**\n     * @dev Emitted when the allowance of a `spender` for an `owner` is set by\n     * a call to {approve}. `value` is the new allowance.\n     */\n    event Approval(address indexed owner, address indexed spender, uint256 value);\n\n    /**\n     * @dev Returns the amount of tokens in existence.\n     */\n    function totalSupply() external view returns (uint256);\n\n    /**\n     * @dev Returns the amount of tokens owned by `account`.\n     */\n    function balanceOf(address account) external view returns (uint256);\n\n    /**\n     * @dev Moves `amount` tokens from the caller's account to `to`.\n     *\n     * Returns a boolean value indicating whether the operation succeeded.\n     *\n     * Emits a {Transfer} event.\n     */\n    function transfer(address to, uint256 amount) external returns (bool);\n\n    /**\n     * @dev Returns the remaining number of tokens that `spender` will be\n     * allowed to spend on behalf of `owner` through {transferFrom}. This is\n     * zero by default.\n     *\n     * This value changes when {approve} or {transferFrom} are called.\n     */\n    function allowance(address owner, address spender) external view returns (uint256);\n\n    /**\n     * @dev Sets `amount` as the allowance of `spender` over the caller's tokens.\n     *\n     * Returns a boolean value indicating whether the operation succeeded.\n     *\n     * IMPORTANT: Beware that changing an allowance with this method brings the risk\n     * that someone may use both the old and the new allowance by unfortunate\n     * transaction ordering. One possible solution to mitigate this race\n     * condition is to first reduce the spender's allowance to 0 and set the\n     * desired value afterwards:\n     * https://github.com/ethereum/EIPs/issues/20#issuecomment-263524729\n     *\n     * Emits an {Approval} event.\n     */\n    function approve(address spender, uint256 amount) external returns (bool);\n\n    /**\n     * @dev Moves `amount` tokens from `from` to `to` using the\n     * allowance mechanism. `amount` is then deducted from the caller's\n     * allowance.\n     *\n     * Returns a boolean value indicating whether the operation succeeded.\n     *\n     * Emits a {Transfer} event.\n     */\n    function transferFrom(address from, address to, uint256 amount) external returns (bool);\n}\n\n/**\n * @dev External interface of AccessControl declared to support ERC165 detection.\n */\ninterface IAccessControlUpgradeable {\n    /**\n     * @dev Emitted when `newAdminRole` is set as ``role``'s admin role, replacing `previousAdminRole`\n     *\n     * `DEFAULT_ADMIN_ROLE` is the starting admin for all roles, despite\n     * {RoleAdminChanged} not being emitted signaling this.\n     *\n     * _Available since v3.1._\n     */\n    event RoleAdminChanged(bytes32 indexed role, bytes32 indexed previousAdminRole, bytes32 indexed newAdminRole);\n\n    /**\n     * @dev Emitted when `account` is granted `role`.\n     *\n     * `sender` is the account that originated the contract call, an admin role\n     * bearer except when using {AccessControl-_setupRole}.\n     */\n    event RoleGranted(bytes32 indexed role, address indexed account, address indexed sender);\n\n    /**\n     * @dev Emitted when `account` is revoked `role`.\n     *\n     * `sender` is the account that originated the contract call:\n     *   - if using `revokeRole`, it is the admin role bearer\n     *   - if using `renounceRole`, it is the role bearer (i.e. `account`)\n     */\n    event RoleRevoked(bytes32 indexed role, address indexed account, address indexed sender);\n\n    /**\n     * @dev Returns `true` if `account` has been granted `role`.\n     */\n    function hasRole(bytes32 role, address account) external view returns (bool);\n\n    /**\n     * @dev Returns the admin role that controls `role`. See {grantRole} and\n     * {revokeRole}.\n     *\n     * To change a role's admin, use {AccessControl-_setRoleAdmin}.\n     */\n    function getRoleAdmin(bytes32 role) external view returns (bytes32);\n\n    /**\n     * @dev Grants `role` to `account`.\n     *\n     * If `account` had not been already granted `role`, emits a {RoleGranted}\n     * event.\n     *\n     * Requirements:\n     *\n     * - the caller must have ``role``'s admin role.\n     */\n    function grantRole(bytes32 role, address account) external;\n\n    /**\n     * @dev Revokes `role` from `account`.\n     *\n     * If `account` had been granted `role`, emits a {RoleRevoked} event.\n     *\n     * Requirements:\n     *\n     * - the caller must have ``role``'s admin role.\n     */\n    function revokeRole(bytes32 role, address account) external;\n\n    /**\n     * @dev Revokes `role` from the calling account.\n     *\n     * Roles are often managed via {grantRole} and {revokeRole}: this function's\n     * purpose is to provide a mechanism for accounts to lose their privileges\n     * if they are compromised (such as when a trusted device is misplaced).\n     *\n     * If the calling account had been granted `role`, emits a {RoleRevoked}\n     * event.\n     *\n     * Requirements:\n     *\n     * - the caller must be `account`.\n     */\n    function renounceRole(bytes32 role, address account) external;\n}\n\n\n/**\n * @dev Collection of functions related to the address type\n */\nlibrary AddressUpgradeable {\n    /**\n     * @dev Returns true if `account` is a contract.\n     *\n     * [IMPORTANT]\n     * ====\n     * It is unsafe to assume that an address for which this function returns\n     * false is an externally-owned account (EOA) and not a contract.\n     *\n     * Among others, `isContract` will return false for the following\n     * types of addresses:\n     *\n     *  - an externally-owned account\n     *  - a contract in construction\n     *  - an address where a contract will be created\n     *  - an address where a contract lived, but was destroyed\n     *\n     * Furthermore, `isContract` will also return true if the target contract within\n     * the same transaction is already scheduled for destruction by `SELFDESTRUCT`,\n     * which only has an effect at the end of a transaction.\n     * ====\n     *\n     * [IMPORTANT]\n     * ====\n     * You shouldn't rely on `isContract` to protect against flash loan attacks!\n     *\n     * Preventing calls from contracts is highly discouraged. It breaks composability, breaks support for smart wallets\n     * like Gnosis Safe, and does not provide security since it can be circumvented by calling from a contract\n     * constructor.\n     * ====\n     */\n    function isContract(address account) internal view returns (bool) {\n        // This method relies on extcodesize/address.code.length, which returns 0\n        // for contracts in construction, since the code is only stored at the end\n        // of the constructor execution.\n\n        return account.code.length > 0;\n    }\n\n    /**\n     * @dev Replacement for Solidity's `transfer`: sends `amount` wei to\n     * `recipient`, forwarding all available gas and reverting on errors.\n     *\n     * https://eips.ethereum.org/EIPS/eip-1884[EIP1884] increases the gas cost\n     * of certain opcodes, possibly making contracts go over the 2300 gas limit\n     * imposed by `transfer`, making them unable to receive funds via\n     * `transfer`. {sendValue} removes this limitation.\n     *\n     * https://consensys.net/diligence/blog/2019/09/stop-using-soliditys-transfer-now/[Learn more].\n     *\n     * IMPORTANT: because control is transferred to `recipient`, care must be\n     * taken to not create reentrancy vulnerabilities. Consider using\n     * {ReentrancyGuard} or the\n     * https://solidity.readthedocs.io/en/v0.8.0/security-considerations.html#use-the-checks-effects-interactions-pattern[checks-effects-interactions pattern].\n     */\n    function sendValue(address payable recipient, uint256 amount) internal {\n        require(address(this).balance >= amount, \"Address: insufficient balance\");\n\n        (bool success, ) = recipient.call{value: amount}(\"\");\n        require(success, \"Address: unable to send value, recipient may have reverted\");\n    }\n\n    /**\n     * @dev Performs a Solidity function call using a low level `call`. A\n     * plain `call` is an unsafe replacement for a function call: use this\n     * function instead.\n     *\n     * If `target` reverts with a revert reason, it is bubbled up by this\n     * function (like regular Solidity function calls).\n     *\n     * Returns the raw returned data. To convert to the expected return value,\n     * use https://solidity.readthedocs.io/en/latest/units-and-global-variables.html?highlight=abi.decode#abi-encoding-and-decoding-functions[`abi.decode`].\n     *\n     * Requirements:\n     *\n     * - `target` must be a contract.\n     * - calling `target` with `data` must not revert.\n     *\n     * _Available since v3.1._\n     */\n    function functionCall(address target, bytes memory data) internal returns (bytes memory) {\n        return functionCallWithValue(target, data, 0, \"Address: low-level call failed\");\n    }\n\n    /**\n     * @dev Same as {xref-Address-functionCall-address-bytes-}[`functionCall`], but with\n     * `errorMessage` as a fallback revert reason when `target` reverts.\n     *\n     * _Available since v3.1._\n     */\n    function functionCall(\n        address target,\n        bytes memory data,\n        string memory errorMessage\n    ) internal returns (bytes memory) {\n        return functionCallWithValue(target, data, 0, errorMessage);\n    }\n\n    /**\n     * @dev Same as {xref-Address-functionCall-address-bytes-}[`functionCall`],\n     * but also transferring `value` wei to `target`.\n     *\n     * Requirements:\n     *\n     * - the calling contract must have an ETH balance of at least `value`.\n     * - the called Solidity function must be `payable`.\n     *\n     * _Available since v3.1._\n     */\n    function functionCallWithValue(address target, bytes memory data, uint256 value) internal returns (bytes memory) {\n        return functionCallWithValue(target, data, value, \"Address: low-level call with value failed\");\n    }\n\n    /**\n     * @dev Same as {xref-Address-functionCallWithValue-address-bytes-uint256-}[`functionCallWithValue`], but\n     * with `errorMessage` as a fallback revert reason when `target` reverts.\n     *\n     * _Available since v3.1._\n     */\n    function functionCallWithValue(\n        address target,\n        bytes memory data,\n        uint256 value,\n        string memory errorMessage\n    ) internal returns (bytes memory) {\n        require(address(this).balance >= value, \"Address: insufficient balance for call\");\n        (bool success, bytes memory returndata) = target.call{value: value}(data);\n        return verifyCallResultFromTarget(target, success, returndata, errorMessage);\n    }\n\n    /**\n     * @dev Same as {xref-Address-functionCall-address-bytes-}[`functionCall`],\n     * but performing a static call.\n     *\n     * _Available since v3.3._\n     */\n    function functionStaticCall(address target, bytes memory data) internal view returns (bytes memory) {\n        return functionStaticCall(target, data, \"Address: low-level static call failed\");\n    }\n\n    /**\n     * @dev Same as {xref-Address-functionCall-address-bytes-string-}[`functionCall`],\n     * but performing a static call.\n     *\n     * _Available since v3.3._\n     */\n    function functionStaticCall(\n        address target,\n        bytes memory data,\n        string memory errorMessage\n    ) internal view returns (bytes memory) {\n        (bool success, bytes memory returndata) = target.staticcall(data);\n        return verifyCallResultFromTarget(target, success, returndata, errorMessage);\n    }\n\n    /**\n     * @dev Same as {xref-Address-functionCall-address-bytes-}[`functionCall`],\n     * but performing a delegate call.\n     *\n     * _Available since v3.4._\n     */\n    function functionDelegateCall(address target, bytes memory data) internal returns (bytes memory) {\n        return functionDelegateCall(target, data, \"Address: low-level delegate call failed\");\n    }\n\n    /**\n     * @dev Same as {xref-Address-functionCall-address-bytes-string-}[`functionCall`],\n     * but performing a delegate call.\n     *\n     * _Available since v3.4._\n     */\n    function functionDelegateCall(\n        address target,\n        bytes memory data,\n        string memory errorMessage\n    ) internal returns (bytes memory) {\n        (bool success, bytes memory returndata) = target.delegatecall(data);\n        return verifyCallResultFromTarget(target, success, returndata, errorMessage);\n    }\n\n    /**\n     * @dev Tool to verify that a low level call to smart-contract was successful, and revert (either by bubbling\n     * the revert reason or using the provided one) in case of unsuccessful call or if target was not a contract.\n     *\n     * _Available since v4.8._\n     */\n    function verifyCallResultFromTarget(\n        address target,\n        bool success,\n        bytes memory returndata,\n        string memory errorMessage\n    ) internal view returns (bytes memory) {\n        if (success) {\n            if (returndata.length == 0) {\n                // only check isContract if the call was successful and the return data is empty\n                // otherwise we already know that it was a contract\n                require(isContract(target), \"Address: call to non-contract\");\n            }\n            return returndata;\n        } else {\n            _revert(returndata, errorMessage);\n        }\n    }\n\n    /**\n     * @dev Tool to verify that a low level call was successful, and revert if it wasn't, either by bubbling the\n     * revert reason or using the provided one.\n     *\n     * _Available since v4.3._\n     */\n    function verifyCallResult(\n        bool success,\n        bytes memory returndata,\n        string memory errorMessage\n    ) internal pure returns (bytes memory) {\n        if (success) {\n            return returndata;\n        } else {\n            _revert(returndata, errorMessage);\n        }\n    }\n\n    function _revert(bytes memory returndata, string memory errorMessage) private pure {\n        // Look for revert reason and bubble it up if present\n        if (returndata.length > 0) {\n            // The easiest way to bubble the revert reason is using memory via assembly\n            /// @solidity memory-safe-assembly\n            assembly {\n                let returndata_size := mload(returndata)\n                revert(add(32, returndata), returndata_size)\n            }\n        } else {\n            revert(errorMessage);\n        }\n    }\n}\n\n\n/**\n * @dev This is a base contract to aid in writing upgradeable contracts, or any kind of contract that will be deployed\n * behind a proxy. Since proxied contracts do not make use of a constructor, it's common to move constructor logic to an\n * external initializer function, usually called `initialize`. It then becomes necessary to protect this initializer\n * function so it can only be called once. The {initializer} modifier provided by this contract will have this effect.\n *\n * The initialization functions use a version number. Once a version number is used, it is consumed and cannot be\n * reused. This mechanism prevents re-execution of each \"step\" but allows the creation of new initialization steps in\n * case an upgrade adds a module that needs to be initialized.\n *\n * For example:\n *\n * [.hljs-theme-light.nopadding]\n * ```solidity\n * contract MyToken is ERC20Upgradeable {\n *     function initialize() initializer public {\n *         __ERC20_init(\"MyToken\", \"MTK\");\n *     }\n * }\n *\n * contract MyTokenV2 is MyToken, ERC20PermitUpgradeable {\n *     function initializeV2() reinitializer(2) public {\n *         __ERC20Permit_init(\"MyToken\");\n *     }\n * }\n * ```\n *\n * TIP: To avoid leaving the proxy in an uninitialized state, the initializer function should be called as early as\n * possible by providing the encoded function call as the `_data` argument to {ERC1967Proxy-constructor}.\n *\n * CAUTION: When used with inheritance, manual care must be taken to not invoke a parent initializer twice, or to ensure\n * that all initializers are idempotent. This is not verified automatically as constructors are by Solidity.\n *\n * [CAUTION]\n * ====\n * Avoid leaving a contract uninitialized.\n *\n * An uninitialized contract can be taken over by an attacker. This applies to both a proxy and its implementation\n * contract, which may impact the proxy. To prevent the implementation contract from being used, you should invoke\n * the {_disableInitializers} function in the constructor to automatically lock it when it is deployed:\n *\n * [.hljs-theme-light.nopadding]\n * ```\n * /// @custom:oz-upgrades-unsafe-allow constructor\n * constructor() {\n *     _disableInitializers();\n * }\n * ```\n * ====\n */\nabstract contract Initializable {\n    /**\n     * @dev Indicates that the contract has been initialized.\n     * @custom:oz-retyped-from bool\n     */\n    uint8 private _initialized;\n\n    /**\n     * @dev Indicates that the contract is in the process of being initialized.\n     */\n    bool private _initializing;\n\n    /**\n     * @dev Triggered when the contract has been initialized or reinitialized.\n     */\n    event Initialized(uint8 version);\n\n    /**\n     * @dev A modifier that defines a protected initializer function that can be invoked at most once. In its scope,\n     * `onlyInitializing` functions can be used to initialize parent contracts.\n     *\n     * Similar to `reinitializer(1)`, except that functions marked with `initializer` can be nested in the context of a\n     * constructor.\n     *\n     * Emits an {Initialized} event.\n     */\n    modifier initializer() {\n        bool isTopLevelCall = !_initializing;\n        require(\n            (isTopLevelCall && _initialized < 1) || (!AddressUpgradeable.isContract(address(this)) && _initialized == 1),\n            \"Initializable: contract is already initialized\"\n        );\n        _initialized = 1;\n        if (isTopLevelCall) {\n            _initializing = true;\n        }\n        _;\n        if (isTopLevelCall) {\n            _initializing = false;\n            emit Initialized(1);\n        }\n    }\n\n    /**\n     * @dev A modifier that defines a protected reinitializer function that can be invoked at most once, and only if the\n     * contract hasn't been initialized to a greater version before. In its scope, `onlyInitializing` functions can be\n     * used to initialize parent contracts.\n     *\n     * A reinitializer may be used after the original initialization step. This is essential to configure modules that\n     * are added through upgrades and that require initialization.\n     *\n     * When `version` is 1, this modifier is similar to `initializer`, except that functions marked with `reinitializer`\n     * cannot be nested. If one is invoked in the context of another, execution will revert.\n     *\n     * Note that versions can jump in increments greater than 1; this implies that if multiple reinitializers coexist in\n     * a contract, executing them in the right order is up to the developer or operator.\n     *\n     * WARNING: setting the version to 255 will prevent any future reinitialization.\n     *\n     * Emits an {Initialized} event.\n     */\n    modifier reinitializer(uint8 version) {\n        require(!_initializing && _initialized < version, \"Initializable: contract is already initialized\");\n        _initialized = version;\n        _initializing = true;\n        _;\n        _initializing = false;\n        emit Initialized(version);\n    }\n\n    /**\n     * @dev Modifier to protect an initialization function so that it can only be invoked by functions with the\n     * {initializer} and {reinitializer} modifiers, directly or indirectly.\n     */\n    modifier onlyInitializing() {\n        require(_initializing, \"Initializable: contract is not initializing\");\n        _;\n    }\n\n    /**\n     * @dev Locks the contract, preventing any future reinitialization. This cannot be part of an initializer call.\n     * Calling this in the constructor of a contract will prevent that contract from being initialized or reinitialized\n     * to any version. It is recommended to use this to lock implementation contracts that are designed to be called\n     * through proxies.\n     *\n     * Emits an {Initialized} event the first time it is successfully executed.\n     */\n    function _disableInitializers() internal virtual {\n        require(!_initializing, \"Initializable: contract is initializing\");\n        if (_initialized != type(uint8).max) {\n            _initialized = type(uint8).max;\n            emit Initialized(type(uint8).max);\n        }\n    }\n\n    /**\n     * @dev Returns the highest version that has been initialized. See {reinitializer}.\n     */\n    function _getInitializedVersion() internal view returns (uint8) {\n        return _initialized;\n    }\n\n    /**\n     * @dev Returns `true` if the contract is currently initializing. See {onlyInitializing}.\n     */\n    function _isInitializing() internal view returns (bool) {\n        return _initializing;\n    }\n}\n\n\n/**\n * @dev Provides information about the current execution context, including the\n * sender of the transaction and its data. While these are generally available\n * via msg.sender and msg.data, they should not be accessed in such a direct\n * manner, since when dealing with meta-transactions the account sending and\n * paying for execution may not be the actual sender (as far as an application\n * is concerned).\n *\n * This contract is only required for intermediate, library-like contracts.\n */\nabstract contract ContextUpgradeable is Initializable {\n    function __Context_init() internal onlyInitializing {\n    }\n\n    function __Context_init_unchained() internal onlyInitializing {\n    }\n    function _msgSender() internal view virtual returns (address) {\n        return msg.sender;\n    }\n\n    function _msgData() internal view virtual returns (bytes calldata) {\n        return msg.data;\n    }\n\n    /**\n     * @dev This empty reserved space is put in place to allow future versions to add new\n     * variables without shifting down storage in the inheritance chain.\n     * See https://docs.openzeppelin.com/contracts/4.x/upgradeable#storage_gaps\n     */\n    uint256[50] private __gap;\n}\n\n\n/**\n * @dev Standard math utilities missing in the Solidity language.\n */\nlibrary MathUpgradeable {\n    enum Rounding {\n        Down, // Toward negative infinity\n        Up, // Toward infinity\n        Zero // Toward zero\n    }\n\n    /**\n     * @dev Returns the largest of two numbers.\n     */\n    function max(uint256 a, uint256 b) internal pure returns (uint256) {\n        return a > b ? a : b;\n    }\n\n    /**\n     * @dev Returns the smallest of two numbers.\n     */\n    function min(uint256 a, uint256 b) internal pure returns (uint256) {\n        return a < b ? a : b;\n    }\n\n    /**\n     * @dev Returns the average of two numbers. The result is rounded towards\n     * zero.\n     */\n    function average(uint256 a, uint256 b) internal pure returns (uint256) {\n        // (a + b) / 2 can overflow.\n        return (a & b) + (a ^ b) / 2;\n    }\n\n    /**\n     * @dev Returns the ceiling of the division of two numbers.\n     *\n     * This differs from standard division with `/` in that it rounds up instead\n     * of rounding down.\n     */\n    function ceilDiv(uint256 a, uint256 b) internal pure returns (uint256) {\n        // (a + b - 1) / b can overflow on addition, so we distribute.\n        return a == 0 ? 0 : (a - 1) / b + 1;\n    }\n\n    /**\n     * @notice Calculates floor(x * y / denominator) with full precision. Throws if result overflows a uint256 or denominator == 0\n     * @dev Original credit to Remco Bloemen under MIT license (https://xn--2-umb.com/21/muldiv)\n     * with further edits by Uniswap Labs also under MIT license.\n     */\n    function mulDiv(uint256 x, uint256 y, uint256 denominator) internal pure returns (uint256 result) {\n        unchecked {\n            // 512-bit multiply [prod1 prod0] = x * y. Compute the product mod 2^256 and mod 2^256 - 1, then use\n            // use the Chinese Remainder Theorem to reconstruct the 512 bit result. The result is stored in two 256\n            // variables such that product = prod1 * 2^256 + prod0.\n            uint256 prod0; // Least significant 256 bits of the product\n            uint256 prod1; // Most significant 256 bits of the product\n            assembly {\n                let mm := mulmod(x, y, not(0))\n                prod0 := mul(x, y)\n                prod1 := sub(sub(mm, prod0), lt(mm, prod0))\n            }\n\n            // Handle non-overflow cases, 256 by 256 division.\n            if (prod1 == 0) {\n                // Solidity will revert if denominator == 0, unlike the div opcode on its own.\n                // The surrounding unchecked block does not change this fact.\n                // See https://docs.soliditylang.org/en/latest/control-structures.html#checked-or-unchecked-arithmetic.\n                return prod0 / denominator;\n            }\n\n            // Make sure the result is less than 2^256. Also prevents denominator == 0.\n            require(denominator > prod1, \"Math: mulDiv overflow\");\n\n            ///////////////////////////////////////////////\n            // 512 by 256 division.\n            ///////////////////////////////////////////////\n\n            // Make division exact by subtracting the remainder from [prod1 prod0].\n            uint256 remainder;\n            assembly {\n                // Compute remainder using mulmod.\n                remainder := mulmod(x, y, denominator)\n\n                // Subtract 256 bit number from 512 bit number.\n                prod1 := sub(prod1, gt(remainder, prod0))\n                prod0 := sub(prod0, remainder)\n            }\n\n            // Factor powers of two out of denominator and compute largest power of two divisor of denominator. Always >= 1.\n            // See https://cs.stackexchange.com/q/138556/92363.\n\n            // Does not overflow because the denominator cannot be zero at this stage in the function.\n            uint256 twos = denominator & (~denominator + 1);\n            assembly {\n                // Divide denominator by twos.\n                denominator := div(denominator, twos)\n\n                // Divide [prod1 prod0] by twos.\n                prod0 := div(prod0, twos)\n\n                // Flip twos such that it is 2^256 / twos. If twos is zero, then it becomes one.\n                twos := add(div(sub(0, twos), twos), 1)\n            }\n\n            // Shift in bits from prod1 into prod0.\n            prod0 |= prod1 * twos;\n\n            // Invert denominator mod 2^256. Now that denominator is an odd number, it has an inverse modulo 2^256 such\n            // that denominator * inv = 1 mod 2^256. Compute the inverse by starting with a seed that is correct for\n            // four bits. That is, denominator * inv = 1 mod 2^4.\n            uint256 inverse = (3 * denominator) ^ 2;\n\n            // Use the Newton-Raphson iteration to improve the precision. Thanks to Hensel's lifting lemma, this also works\n            // in modular arithmetic, doubling the correct bits in each step.\n            inverse *= 2 - denominator * inverse; // inverse mod 2^8\n            inverse *= 2 - denominator * inverse; // inverse mod 2^16\n            inverse *= 2 - denominator * inverse; // inverse mod 2^32\n            inverse *= 2 - denominator * inverse; // inverse mod 2^64\n            inverse *= 2 - denominator * inverse; // inverse mod 2^128\n            inverse *= 2 - denominator * inverse; // inverse mod 2^256\n\n            // Because the division is now exact we can divide by multiplying with the modular inverse of denominator.\n            // This will give us the correct result modulo 2^256. Since the preconditions guarantee that the outcome is\n            // less than 2^256, this is the final result. We don't need to compute the high bits of the result and prod1\n            // is no longer required.\n            result = prod0 * inverse;\n            return result;\n        }\n    }\n\n    /**\n     * @notice Calculates x * y / denominator with full precision, following the selected rounding direction.\n     */\n    function mulDiv(uint256 x, uint256 y, uint256 denominator, Rounding rounding) internal pure returns (uint256) {\n        uint256 result = mulDiv(x, y, denominator);\n        if (rounding == Rounding.Up && mulmod(x, y, denominator) > 0) {\n            result += 1;\n        }\n        return result;\n    }\n\n    /**\n     * @dev Returns the square root of a number. If the number is not a perfect square, the value is rounded down.\n     *\n     * Inspired by Henry S. Warren, Jr.'s \"Hacker's Delight\" (Chapter 11).\n     */\n    function sqrt(uint256 a) internal pure returns (uint256) {\n        if (a == 0) {\n            return 0;\n        }\n\n        // For our first guess, we get the biggest power of 2 which is smaller than the square root of the target.\n        //\n        // We know that the \"msb\" (most significant bit) of our target number `a` is a power of 2 such that we have\n        // `msb(a) <= a < 2*msb(a)`. This value can be written `msb(a)=2**k` with `k=log2(a)`.\n        //\n        // This can be rewritten `2**log2(a) <= a < 2**(log2(a) + 1)`\n        //  `sqrt(2**k) <= sqrt(a) < sqrt(2**(k+1))`\n        //  `2**(k/2) <= sqrt(a) < 2**((k+1)/2) <= 2**(k/2 + 1)`\n        //\n        // Consequently, `2**(log2(a) / 2)` is a good first approximation of `sqrt(a)` with at least 1 correct bit.\n        uint256 result = 1 << (log2(a) >> 1);\n\n        // At this point `result` is an estimation with one bit of precision. We know the true value is a uint128,\n        // since it is the square root of a uint256. Newton's method converges quadratically (precision doubles at\n        // every iteration). We thus need at most 7 iteration to turn our partial result with one bit of precision\n        // into the expected uint128 result.\n        unchecked {\n            result = (result + a / result) >> 1;\n            result = (result + a / result) >> 1;\n            result = (result + a / result) >> 1;\n            result = (result + a / result) >> 1;\n            result = (result + a / result) >> 1;\n            result = (result + a / result) >> 1;\n            result = (result + a / result) >> 1;\n            return min(result, a / result);\n        }\n    }\n\n    /**\n     * @notice Calculates sqrt(a), following the selected rounding direction.\n     */\n    function sqrt(uint256 a, Rounding rounding) internal pure returns (uint256) {\n        unchecked {\n            uint256 result = sqrt(a);\n            return result + (rounding == Rounding.Up && result * result < a ? 1 : 0);\n        }\n    }\n\n    /**\n     * @dev Return the log in base 2, rounded down, of a positive value.\n     * Returns 0 if given 0.\n     */\n    function log2(uint256 value) internal pure returns (uint256) {\n        uint256 result = 0;\n        unchecked {\n            if (value >> 128 > 0) {\n                value >>= 128;\n                result += 128;\n            }\n            if (value >> 64 > 0) {\n                value >>= 64;\n                result += 64;\n            }\n            if (value >> 32 > 0) {\n                value >>= 32;\n                result += 32;\n            }\n            if (value >> 16 > 0) {\n                value >>= 16;\n                result += 16;\n            }\n            if (value >> 8 > 0) {\n                value >>= 8;\n                result += 8;\n            }\n            if (value >> 4 > 0) {\n                value >>= 4;\n                result += 4;\n            }\n            if (value >> 2 > 0) {\n                value >>= 2;\n                result += 2;\n            }\n            if (value >> 1 > 0) {\n                result += 1;\n            }\n        }\n        return result;\n    }\n\n    /**\n     * @dev Return the log in base 2, following the selected rounding direction, of a positive value.\n     * Returns 0 if given 0.\n     */\n    function log2(uint256 value, Rounding rounding) internal pure returns (uint256) {\n        unchecked {\n            uint256 result = log2(value);\n            return result + (rounding == Rounding.Up && 1 << result < value ? 1 : 0);\n        }\n    }\n\n    /**\n     * @dev Return the log in base 10, rounded down, of a positive value.\n     * Returns 0 if given 0.\n     */\n    function log10(uint256 value) internal pure returns (uint256) {\n        uint256 result = 0;\n        unchecked {\n            if (value >= 10 ** 64) {\n                value /= 10 ** 64;\n                result += 64;\n            }\n            if (value >= 10 ** 32) {\n                value /= 10 ** 32;\n                result += 32;\n            }\n            if (value >= 10 ** 16) {\n                value /= 10 ** 16;\n                result += 16;\n            }\n            if (value >= 10 ** 8) {\n                value /= 10 ** 8;\n                result += 8;\n            }\n            if (value >= 10 ** 4) {\n                value /= 10 ** 4;\n                result += 4;\n            }\n            if (value >= 10 ** 2) {\n                value /= 10 ** 2;\n                result += 2;\n            }\n            if (value >= 10 ** 1) {\n                result += 1;\n            }\n        }\n        return result;\n    }\n\n    /**\n     * @dev Return the log in base 10, following the selected rounding direction, of a positive value.\n     * Returns 0 if given 0.\n     */\n    function log10(uint256 value, Rounding rounding) internal pure returns (uint256) {\n        unchecked {\n            uint256 result = log10(value);\n            return result + (rounding == Rounding.Up && 10 ** result < value ? 1 : 0);\n        }\n    }\n\n    /**\n     * @dev Return the log in base 256, rounded down, of a positive value.\n     * Returns 0 if given 0.\n     *\n     * Adding one to the result gives the number of pairs of hex symbols needed to represent `value` as a hex string.\n     */\n    function log256(uint256 value) internal pure returns (uint256) {\n        uint256 result = 0;\n        unchecked {\n            if (value >> 128 > 0) {\n                value >>= 128;\n                result += 16;\n            }\n            if (value >> 64 > 0) {\n                value >>= 64;\n                result += 8;\n            }\n            if (value >> 32 > 0) {\n                value >>= 32;\n                result += 4;\n            }\n            if (value >> 16 > 0) {\n                value >>= 16;\n                result += 2;\n            }\n            if (value >> 8 > 0) {\n                result += 1;\n            }\n        }\n        return result;\n    }\n\n    /**\n     * @dev Return the log in base 256, following the selected rounding direction, of a positive value.\n     * Returns 0 if given 0.\n     */\n    function log256(uint256 value, Rounding rounding) internal pure returns (uint256) {\n        unchecked {\n            uint256 result = log256(value);\n            return result + (rounding == Rounding.Up && 1 << (result << 3) < value ? 1 : 0);\n        }\n    }\n}\n\n\n/**\n * @dev Standard signed math utilities missing in the Solidity language.\n */\nlibrary SignedMathUpgradeable {\n    /**\n     * @dev Returns the largest of two signed numbers.\n     */\n    function max(int256 a, int256 b) internal pure returns (int256) {\n        return a > b ? a : b;\n    }\n\n    /**\n     * @dev Returns the smallest of two signed numbers.\n     */\n    function min(int256 a, int256 b) internal pure returns (int256) {\n        return a < b ? a : b;\n    }\n\n    /**\n     * @dev Returns the average of two signed numbers without overflow.\n     * The result is rounded towards zero.\n     */\n    function average(int256 a, int256 b) internal pure returns (int256) {\n        // Formula from the book \"Hacker's Delight\"\n        int256 x = (a & b) + ((a ^ b) >> 1);\n        return x + (int256(uint256(x) >> 255) & (a ^ b));\n    }\n\n    /**\n     * @dev Returns the absolute unsigned value of a signed value.\n     */\n    function abs(int256 n) internal pure returns (uint256) {\n        unchecked {\n            // must be unchecked in order to support `n = type(int256).min`\n            return uint256(n >= 0 ? n : -n);\n        }\n    }\n}\n\n\n/**\n * @dev String operations.\n */\nlibrary StringsUpgradeable {\n    bytes16 private constant _SYMBOLS = \"0123456789abcdef\";\n    uint8 private constant _ADDRESS_LENGTH = 20;\n\n    /**\n     * @dev Converts a `uint256` to its ASCII `string` decimal representation.\n     */\n    function toString(uint256 value) internal pure returns (string memory) {\n        unchecked {\n            uint256 length = MathUpgradeable.log10(value) + 1;\n            string memory buffer = new string(length);\n            uint256 ptr;\n            /// @solidity memory-safe-assembly\n            assembly {\n                ptr := add(buffer, add(32, length))\n            }\n            while (true) {\n                ptr--;\n                /// @solidity memory-safe-assembly\n                assembly {\n                    mstore8(ptr, byte(mod(value, 10), _SYMBOLS))\n                }\n                value /= 10;\n                if (value == 0) break;\n            }\n            return buffer;\n        }\n    }\n\n    /**\n     * @dev Converts a `int256` to its ASCII `string` decimal representation.\n     */\n    function toString(int256 value) internal pure returns (string memory) {\n        return string(abi.encodePacked(value < 0 ? \"-\" : \"\", toString(SignedMathUpgradeable.abs(value))));\n    }\n\n    /**\n     * @dev Converts a `uint256` to its ASCII `string` hexadecimal representation.\n     */\n    function toHexString(uint256 value) internal pure returns (string memory) {\n        unchecked {\n            return toHexString(value, MathUpgradeable.log256(value) + 1);\n        }\n    }\n\n    /**\n     * @dev Converts a `uint256` to its ASCII `string` hexadecimal representation with fixed length.\n     */\n    function toHexString(uint256 value, uint256 length) internal pure returns (string memory) {\n        bytes memory buffer = new bytes(2 * length + 2);\n        buffer[0] = \"0\";\n        buffer[1] = \"x\";\n        for (uint256 i = 2 * length + 1; i > 1; --i) {\n            buffer[i] = _SYMBOLS[value & 0xf];\n            value >>= 4;\n        }\n        require(value == 0, \"Strings: hex length insufficient\");\n        return string(buffer);\n    }\n\n    /**\n     * @dev Converts an `address` with fixed length of 20 bytes to its not checksummed ASCII `string` hexadecimal representation.\n     */\n    function toHexString(address addr) internal pure returns (string memory) {\n        return toHexString(uint256(uint160(addr)), _ADDRESS_LENGTH);\n    }\n\n    /**\n     * @dev Returns true if the two strings are equal.\n     */\n    function equal(string memory a, string memory b) internal pure returns (bool) {\n        return keccak256(bytes(a)) == keccak256(bytes(b));\n    }\n}\n\n\n\n/**\n * @dev Implementation of the {IERC165} interface.\n *\n * Contracts that want to implement ERC165 should inherit from this contract and override {supportsInterface} to check\n * for the additional interface id that will be supported. For example:\n *\n * ```solidity\n * function supportsInterface(bytes4 interfaceId) public view virtual override returns (bool) {\n *     return interfaceId == type(MyInterface).interfaceId || super.supportsInterface(interfaceId);\n * }\n * ```\n *\n * Alternatively, {ERC165Storage} provides an easier to use but more expensive implementation.\n */\nabstract contract ERC165Upgradeable is Initializable, IERC165Upgradeable {\n    function __ERC165_init() internal onlyInitializing {\n    }\n\n    function __ERC165_init_unchained() internal onlyInitializing {\n    }\n    /**\n     * @dev See {IERC165-supportsInterface}.\n     */\n    function supportsInterface(bytes4 interfaceId) public view virtual override returns (bool) {\n        return interfaceId == type(IERC165Upgradeable).interfaceId;\n    }\n\n    /**\n     * @dev This empty reserved space is put in place to allow future versions to add new\n     * variables without shifting down storage in the inheritance chain.\n     * See https://docs.openzeppelin.com/contracts/4.x/upgradeable#storage_gaps\n     */\n    uint256[50] private __gap;\n}\n\n\n\n\n\n\n/**\n * @dev Contract module that allows children to implement role-based access\n * control mechanisms. This is a lightweight version that doesn't allow enumerating role\n * members except through off-chain means by accessing the contract event logs. Some\n * applications may benefit from on-chain enumerability, for those cases see\n * {AccessControlEnumerable}.\n *\n * Roles are referred to by their `bytes32` identifier. These should be exposed\n * in the external API and be unique. The best way to achieve this is by\n * using `public constant` hash digests:\n *\n * ```solidity\n * bytes32 public constant MY_ROLE = keccak256(\"MY_ROLE\");\n * ```\n *\n * Roles can be used to represent a set of permissions. To restrict access to a\n * function call, use {hasRole}:\n *\n * ```solidity\n * function foo() public {\n *     require(hasRole(MY_ROLE, msg.sender));\n *     ...\n * }\n * ```\n *\n * Roles can be granted and revoked dynamically via the {grantRole} and\n * {revokeRole} functions. Each role has an associated admin role, and only\n * accounts that have a role's admin role can call {grantRole} and {revokeRole}.\n *\n * By default, the admin role for all roles is `DEFAULT_ADMIN_ROLE`, which means\n * that only accounts with this role will be able to grant or revoke other\n * roles. More complex role relationships can be created by using\n * {_setRoleAdmin}.\n *\n * WARNING: The `DEFAULT_ADMIN_ROLE` is also its own admin: it has permission to\n * grant and revoke this role. Extra precautions should be taken to secure\n * accounts that have been granted it. We recommend using {AccessControlDefaultAdminRules}\n * to enforce additional security measures for this role.\n */\nabstract contract AccessControlUpgradeable is Initializable, ContextUpgradeable, IAccessControlUpgradeable, ERC165Upgradeable {\n    function __AccessControl_init() internal onlyInitializing {\n    }\n\n    function __AccessControl_init_unchained() internal onlyInitializing {\n    }\n    struct RoleData {\n        mapping(address => bool) members;\n        bytes32 adminRole;\n    }\n\n    mapping(bytes32 => RoleData) private _roles;\n\n    bytes32 public constant DEFAULT_ADMIN_ROLE = 0x00;\n\n    /**\n     * @dev Modifier that checks that an account has a specific role. Reverts\n     * with a standardized message including the required role.\n     *\n     * The format of the revert reason is given by the following regular expression:\n     *\n     *  /^AccessControl: account (0x[0-9a-f]{40}) is missing role (0x[0-9a-f]{64})$/\n     *\n     * _Available since v4.1._\n     */\n    modifier onlyRole(bytes32 role) {\n        _checkRole(role);\n        _;\n    }\n\n    /**\n     * @dev See {IERC165-supportsInterface}.\n     */\n    function supportsInterface(bytes4 interfaceId) public view virtual override returns (bool) {\n        return interfaceId == type(IAccessControlUpgradeable).interfaceId || super.supportsInterface(interfaceId);\n    }\n\n    /**\n     * @dev Returns `true` if `account` has been granted `role`.\n     */\n    function hasRole(bytes32 role, address account) public view virtual override returns (bool) {\n        return _roles[role].members[account];\n    }\n\n    /**\n     * @dev Revert with a standard message if `_msgSender()` is missing `role`.\n     * Overriding this function changes the behavior of the {onlyRole} modifier.\n     *\n     * Format of the revert message is described in {_checkRole}.\n     *\n     * _Available since v4.6._\n     */\n    function _checkRole(bytes32 role) internal view virtual {\n        _checkRole(role, _msgSender());\n    }\n\n    /**\n     * @dev Revert with a standard message if `account` is missing `role`.\n     *\n     * The format of the revert reason is given by the following regular expression:\n     *\n     *  /^AccessControl: account (0x[0-9a-f]{40}) is missing role (0x[0-9a-f]{64})$/\n     */\n    function _checkRole(bytes32 role, address account) internal view virtual {\n        if (!hasRole(role, account)) {\n            revert(\n                string(\n                    abi.encodePacked(\n                        \"AccessControl: account \",\n                        StringsUpgradeable.toHexString(account),\n                        \" is missing role \",\n                        StringsUpgradeable.toHexString(uint256(role), 32)\n                    )\n                )\n            );\n        }\n    }\n\n    /**\n     * @dev Returns the admin role that controls `role`. See {grantRole} and\n     * {revokeRole}.\n     *\n     * To change a role's admin, use {_setRoleAdmin}.\n     */\n    function getRoleAdmin(bytes32 role) public view virtual override returns (bytes32) {\n        return _roles[role].adminRole;\n    }\n\n    /**\n     * @dev Grants `role` to `account`.\n     *\n     * If `account` had not been already granted `role`, emits a {RoleGranted}\n     * event.\n     *\n     * Requirements:\n     *\n     * - the caller must have ``role``'s admin role.\n     *\n     * May emit a {RoleGranted} event.\n     */\n    function grantRole(bytes32 role, address account) public virtual override onlyRole(getRoleAdmin(role)) {\n        _grantRole(role, account);\n    }\n\n    /**\n     * @dev Revokes `role` from `account`.\n     *\n     * If `account` had been granted `role`, emits a {RoleRevoked} event.\n     *\n     * Requirements:\n     *\n     * - the caller must have ``role``'s admin role.\n     *\n     * May emit a {RoleRevoked} event.\n     */\n    function revokeRole(bytes32 role, address account) public virtual override onlyRole(getRoleAdmin(role)) {\n        _revokeRole(role, account);\n    }\n\n    /**\n     * @dev Revokes `role` from the calling account.\n     *\n     * Roles are often managed via {grantRole} and {revokeRole}: this function's\n     * purpose is to provide a mechanism for accounts to lose their privileges\n     * if they are compromised (such as when a trusted device is misplaced).\n     *\n     * If the calling account had been revoked `role`, emits a {RoleRevoked}\n     * event.\n     *\n     * Requirements:\n     *\n     * - the caller must be `account`.\n     *\n     * May emit a {RoleRevoked} event.\n     */\n    function renounceRole(bytes32 role, address account) public virtual override {\n        require(account == _msgSender(), \"AccessControl: can only renounce roles for self\");\n\n        _revokeRole(role, account);\n    }\n\n    /**\n     * @dev Grants `role` to `account`.\n     *\n     * If `account` had not been already granted `role`, emits a {RoleGranted}\n     * event. Note that unlike {grantRole}, this function doesn't perform any\n     * checks on the calling account.\n     *\n     * May emit a {RoleGranted} event.\n     *\n     * [WARNING]\n     * ====\n     * This function should only be called from the constructor when setting\n     * up the initial roles for the system.\n     *\n     * Using this function in any other way is effectively circumventing the admin\n     * system imposed by {AccessControl}.\n     * ====\n     *\n     * NOTE: This function is deprecated in favor of {_grantRole}.\n     */\n    function _setupRole(bytes32 role, address account) internal virtual {\n        _grantRole(role, account);\n    }\n\n    /**\n     * @dev Sets `adminRole` as ``role``'s admin role.\n     *\n     * Emits a {RoleAdminChanged} event.\n     */\n    function _setRoleAdmin(bytes32 role, bytes32 adminRole) internal virtual {\n        bytes32 previousAdminRole = getRoleAdmin(role);\n        _roles[role].adminRole = adminRole;\n        emit RoleAdminChanged(role, previousAdminRole, adminRole);\n    }\n\n    /**\n     * @dev Grants `role` to `account`.\n     *\n     * Internal function without access restriction.\n     *\n     * May emit a {RoleGranted} event.\n     */\n    function _grantRole(bytes32 role, address account) internal virtual {\n        if (!hasRole(role, account)) {\n            _roles[role].members[account] = true;\n            emit RoleGranted(role, account, _msgSender());\n        }\n    }\n\n    /**\n     * @dev Revokes `role` from `account`.\n     *\n     * Internal function without access restriction.\n     *\n     * May emit a {RoleRevoked} event.\n     */\n    function _revokeRole(bytes32 role, address account) internal virtual {\n        if (hasRole(role, account)) {\n            _roles[role].members[account] = false;\n            emit RoleRevoked(role, account, _msgSender());\n        }\n    }\n\n    /**\n     * @dev This empty reserved space is put in place to allow future versions to add new\n     * variables without shifting down storage in the inheritance chain.\n     * See https://docs.openzeppelin.com/contracts/4.x/upgradeable#storage_gaps\n     */\n    uint256[49] private __gap;\n}\n\n\n\ncontract SwapNFTUpgradeable is Initializable, ContextUpgradeable, AccessControlUpgradeable {\n    IERC20Upgradeable private _feeToken;\n    ISwapData private dataContract;\n\n    uint256 private totalBips ;\n    uint256 public txCharge ;\n\n    event SwapListingCreated(\n        address collectionAddress,\n        address createdBy,\n        uint256 tokenId\n    );\n    event SwapOfferCreated(\n        uint256 listingId,\n        address from,\n        address offerCollection,\n        uint256 tokenId\n    );\n\n    event SwapOfferDeclied(\n        address declinedBy,\n        uint256 offerId,\n        uint256 listingId\n    );\n    event SwapOfferAccepted(\n        address acceptedBy,\n        uint256 offerId,\n        uint256 listingId\n    );\n    event SwapOfferWithdraw(address owner, uint256 offerId);\n    event SwapListingWithdraw(address owner, uint256 listingId);\n    event TxChargeChanged(uint256 newTxCharge);\n    event TreasuryWalletChanged(address newTreasuryWallet);\n\n    address treasury;\n\n    function init(address admin_, address dataContract_) public initializer {\n        __Context_init();\n        __AccessControl_init();\n        _grantRole(DEFAULT_ADMIN_ROLE, admin_);\n        dataContract = ISwapData(dataContract_);\n        totalBips = 10000;\n        totalBips = 10 * 10 ** 18;\n        treasury = _msgSender();\n    }\n\n    function createListing(\n        uint256 tokenId_,\n        address nftContract_\n    ) external payable {\n        IERC721Upgradeable nftContract = IERC721Upgradeable(nftContract_);\n        bool isApproved = nftContract.isApprovedForAll(\n            _msgSender(),\n            address(this)\n        );\n        require(msg.value == txCharge, \"Insufficient tfuel sent for txCharge\");\n        require(\n            isApproved,\n            \"Approval is required for Swap Contract before listing.\"\n        );\n        require(\n            nftContract.ownerOf(tokenId_) == _msgSender(),\n            \"You are not the owner of the NFT\"\n        );\n        ISwapData.SwapListing memory listing;\n        listing.listingId = 0;\n        listing.tokenAddress = nftContract;\n        listing.tokenId = tokenId_;\n        listing.tokenOwner = _msgSender();\n        listing.transactionChargeBips = 5000;\n        listing.isCompleted = false;\n        listing.isCancelled = false;\n        listing.transactionCharge = txCharge;\n        bool isListingCreated = dataContract.addListing(listing);\n        require(isListingCreated, \"Listing cannot be created\");\n        emit SwapListingCreated(address(nftContract), _msgSender(), tokenId_);\n    }\n\n    function createOffer(\n        uint256 tokenId_,\n        address nftContract_,\n        uint256 listingId_\n    ) external {\n        IERC721Upgradeable nftContract = IERC721Upgradeable(nftContract_);\n        bool isApproved = nftContract.isApprovedForAll(\n            _msgSender(),\n            address(this)\n        );\n        require(\n            isApproved,\n            \"Approval is required for Swap Contract before listing.\"\n        );\n        require(\n            nftContract.ownerOf(tokenId_) == _msgSender(),\n            \"You are not the owner of the NFT\"\n        );\n        ISwapData.SwapListing memory listing = dataContract.readListingById(\n            listingId_\n        );\n        IERC721Upgradeable listingNftContract = IERC721Upgradeable(listing.tokenAddress);\n        require(\n            listingNftContract.ownerOf(listing.tokenId) == listing.tokenOwner,\n            \"Listing Expired\"\n        );\n        ISwapData.SwapOffer memory offer;\n        offer.offerTokenAddress = nftContract;\n        offer.listingId = listingId_;\n        offer.offerTokenId = tokenId_;\n        offer.offerTokenOwner = _msgSender();\n        offer.listingTokenAddress = listing.tokenAddress;\n        offer.listingTokenId = listing.tokenId;\n        offer.listingTokenOwner = listing.tokenOwner;\n        offer.transactionChargeBips = 5000;\n        offer.isCompleted = false;\n        offer.isCancelled = false;\n        offer.isDeclined = false;\n        offer.transactionCharge = txCharge;\n        bool isofferCreated = dataContract.addOffer(offer);\n        require(isofferCreated, \"Offer canot be created.\");\n        emit SwapOfferCreated(\n            listingId_,\n            _msgSender(),\n            address(nftContract),\n            tokenId_\n        );\n    }\n\n    function declineOffer(uint256 offerId_, uint256 listingId_) external {\n        ISwapData.SwapOffer memory offer = dataContract.readOfferById(offerId_);\n        ISwapData.SwapListing memory listing = dataContract.readListingById(\n            listingId_\n        );\n        require(\n            offer.listingTokenId == listing.tokenId,\n            \"Inecorrect attempt to decline offer.\"\n        );\n        require(\n            offer.listingTokenOwner == _msgSender(),\n            \"You are not authorized to decline offers for this listing.\"\n        );\n        offer.isDeclined = true;\n        dataContract.updateOffer(offer);\n        emit SwapOfferDeclied(_msgSender(), offerId_, listingId_);\n    }\n\n    function acceptOffer(uint256 offerId_, uint256 listingId_) external {\n        ISwapData.SwapOffer memory offer = dataContract.readOfferById(offerId_);\n        ISwapData.SwapListing memory listing = dataContract.readListingById(\n            listingId_\n        );\n        IERC721Upgradeable offerContract = IERC721Upgradeable(offer.offerTokenAddress);\n        IERC721Upgradeable listingContract = IERC721Upgradeable(offer.listingTokenAddress);\n        require(offer.listingTokenId == listing.tokenId, \"Incorrect listing\");\n        IERC721Upgradeable listingNftContract = IERC721Upgradeable(listing.tokenAddress);\n        require(\n            listingNftContract.ownerOf(listing.tokenId) == _msgSender(),\n            \"You are not the owner of this listing\"\n        );\n        require(\n            offer.listingTokenId == listing.tokenId,\n            \"Inecorrect attempt to accept offer.\"\n        );\n        require(!listing.isCompleted && !offer.isCompleted, \"Invalid request.\");\n        require(!listing.isCancelled && !offer.isCancelled, \"Invalid Request.\");\n        require(!offer.isDeclined, \"Invalid Request\");\n        bool isOfferTokenApproved = offerContract.isApprovedForAll(\n            offer.offerTokenOwner,\n            address(this)\n        );\n        bool isListingTokenApproved = listingContract.isApprovedForAll(\n            listing.tokenOwner,\n            address(this)\n        );\n        require(isOfferTokenApproved && isListingTokenApproved, \"not approved\");\n\n        offerContract.transferFrom(\n            offer.offerTokenOwner,\n            offer.listingTokenOwner,\n            offer.offerTokenId\n        );\n        listingContract.transferFrom(\n            offer.listingTokenOwner,\n            offer.offerTokenOwner,\n            offer.listingTokenId\n        );\n        _safeTransferNative(treasury, listing.transactionCharge);\n        listing.isCompleted = true;\n        offer.isCompleted = true;\n        dataContract.updateListing(listing);\n        dataContract.updateOffer(offer);\n        ISwapData.Trade memory trade;\n        trade.listingId = listing.listingId;\n        trade.offerId = offer.offerId;\n        dataContract.addTrade(trade);\n        emit SwapOfferAccepted(_msgSender(), offerId_, listingId_);\n    }\n\n    function readAllListings()\n        external\n        view\n        returns (ISwapData.SwapListing[] memory)\n    {\n        return dataContract.readAllListings();\n    }\n\n    function readListingsByIndex(uint256 start, uint256 end) external view returns (ISwapData.SwapListing[] memory){\n        return dataContract.readListingsByIndex(start, end);\n    }\n\n    function readListingById(\n        uint256 id\n    ) external view returns (ISwapData.SwapListing memory) {\n        return dataContract.readListingById(id);\n    }\n\n    function removeListingById(uint256 id) external {\n        ISwapData.SwapListing memory listing = dataContract.readListingById(id);\n        require(\n            _msgSender() == listing.tokenOwner,\n            \"Only listing creators can remove listings.\"\n        );\n        _safeTransferNative(_msgSender(), listing.transactionCharge);\n        dataContract.removeListingById(id);\n        emit SwapListingWithdraw(_msgSender(), id);\n    }\n\n    function readAllOffers()\n        external\n        view\n        returns (ISwapData.SwapOffer[] memory)\n    {\n        return dataContract.readAllOffers();\n    }\n\n    function readOfferById(\n        uint256 id\n    ) external view returns (ISwapData.SwapOffer memory) {\n        return dataContract.readOfferById(id);\n    }\n\n    function removeOfferById(uint256 id) external {\n        ISwapData.SwapOffer memory offer = dataContract.readOfferById(id);\n        require(\n            _msgSender() == offer.offerTokenOwner,\n            \"Only offer creators can remove offers.\"\n        );\n        dataContract.removeOfferById(id);\n        emit SwapOfferWithdraw(_msgSender(), id);\n    }\n\n    function readOffersByIndex(uint256 start, uint256 end) external view returns (ISwapData.SwapOffer[] memory){\n        return dataContract.readOffersByIndex(start, end);\n    }\n\n    function readAllTrades() external view returns (ISwapData.Trade[] memory) {\n        return dataContract.readAllTrades();\n    }\n\n    function readTradesByIndex(uint256 start, uint256 end) external view returns (ISwapData.Trade[] memory){\n        return dataContract.readTradesByIndex(start, end);\n    }\n\n    function readTradeById(\n        uint256 id\n    ) external view returns (ISwapData.Trade memory) {\n        return dataContract.readTradeById(id);\n    }\n\n    function setTxCharge(\n        uint256 newTxCharge\n    ) external onlyRole(DEFAULT_ADMIN_ROLE) {\n        txCharge = newTxCharge;\n        emit TxChargeChanged(newTxCharge);\n    }\n\n    function setTreasuryWallet(\n        address newTreasury\n    ) external onlyRole(DEFAULT_ADMIN_ROLE) {\n        treasury = newTreasury;\n        emit TreasuryWalletChanged(newTreasury);\n    }\n\n    function getTxCharge() external view returns (uint256) {\n        return txCharge;\n    }\n\n    function _safeTransferNative(address to, uint256 value) internal {\n        (bool success, ) = to.call{value: value}(\"\");\n        require(success, \"TransferHelper: TRANSFER_FAILED\");\n    }\n}\n",
  "sourcePath": "/Users/shivam/github/contracts-upgradable/contracts/flat/SwapNFTUpgradeable.sol",
  "compiler": {
    "name": "solc",
    "version": "0.8.17+commit.8df45f5f.Emscripten.clang"
  },
  "schemaVersion": "3.4.7",
  "updatedAt": "2023-11-25T08:17:58.417Z",
  "devdoc": {
    "kind": "dev",
    "methods": {
      "getRoleAdmin(bytes32)": {
        "details": "Returns the admin role that controls `role`. See {grantRole} and {revokeRole}. To change a role's admin, use {_setRoleAdmin}."
      },
      "grantRole(bytes32,address)": {
        "details": "Grants `role` to `account`. If `account` had not been already granted `role`, emits a {RoleGranted} event. Requirements: - the caller must have ``role``'s admin role. May emit a {RoleGranted} event."
      },
      "hasRole(bytes32,address)": {
        "details": "Returns `true` if `account` has been granted `role`."
      },
      "renounceRole(bytes32,address)": {
        "details": "Revokes `role` from the calling account. Roles are often managed via {grantRole} and {revokeRole}: this function's purpose is to provide a mechanism for accounts to lose their privileges if they are compromised (such as when a trusted device is misplaced). If the calling account had been revoked `role`, emits a {RoleRevoked} event. Requirements: - the caller must be `account`. May emit a {RoleRevoked} event."
      },
      "revokeRole(bytes32,address)": {
        "details": "Revokes `role` from `account`. If `account` had been granted `role`, emits a {RoleRevoked} event. Requirements: - the caller must have ``role``'s admin role. May emit a {RoleRevoked} event."
      },
      "supportsInterface(bytes4)": {
        "details": "See {IERC165-supportsInterface}."
      }
    },
    "version": 1
  },
  "userdoc": {
    "kind": "user",
    "methods": {},
    "version": 1
  }
}