{
  "contractName": "TokenHelper",
  "abi": [
    {
      "inputs": [],
      "stateMutability": "nonpayable",
      "type": "constructor"
    },
    {
      "inputs": [
        {
          "internalType": "address",
          "name": "contractAddress",
          "type": "address"
        },
        {
          "internalType": "address",
          "name": "owner",
          "type": "address"
        }
      ],
      "name": "getOwnerTokens",
      "outputs": [
        {
          "components": [
            {
              "internalType": "uint256",
              "name": "tokenId",
              "type": "uint256"
            },
            {
              "internalType": "string",
              "name": "tokenURI",
              "type": "string"
            }
          ],
          "internalType": "struct TokenHelper.TokenInfo[]",
          "name": "",
          "type": "tuple[]"
        }
      ],
      "stateMutability": "view",
      "type": "function"
    }
  ],
  "bytecode": "0x608060405234801561001057600080fd5b506104d1806100206000396000f3fe608060405234801561001057600080fd5b506004361061002b5760003560e01c8063039e676a14610030575b600080fd5b61004361003e36600461029a565b610059565b60405161005091906102f1565b60405180910390f35b6040516370a0823160e01b81526001600160a01b0382811660048301526060918491600091908316906370a0823190602401602060405180830381865afa1580156100a8573d6000803e3d6000fd5b505050506040513d601f19601f820116820180604052508101906100cc9190610382565b905060008167ffffffffffffffff8111156100e9576100e961039b565b60405190808252806020026020018201604052801561012f57816020015b6040805180820190915260008152606060208201528152602001906001900390816101075790505b50905060005b8281101561027457604051632f745c5960e01b81526001600160a01b0387811660048301526024820183905260009190861690632f745c5990604401602060405180830381865afa15801561018e573d6000803e3d6000fd5b505050506040513d601f19601f820116820180604052508101906101b29190610382565b60405163c87b56dd60e01b8152600481018290529091506000906001600160a01b0387169063c87b56dd90602401600060405180830381865afa1580156101fd573d6000803e3d6000fd5b505050506040513d6000823e601f3d908101601f1916820160405261022591908101906103b1565b905060006040518060400160405280848152602001838152509050808585815181106102535761025361045e565b6020026020010181905250505050808061026c90610474565b915050610135565b5095945050505050565b80356001600160a01b038116811461029557600080fd5b919050565b600080604083850312156102ad57600080fd5b6102b68361027e565b91506102c46020840161027e565b90509250929050565b60005b838110156102e85781810151838201526020016102d0565b50506000910152565b60006020808301818452808551808352604092508286019150828160051b87010184880160005b8381101561037457888303603f190185528151805184528701518784018790528051878501819052606061035182828801858d016102cd565b96890196601f91909101601f191694909401909301925090860190600101610318565b509098975050505050505050565b60006020828403121561039457600080fd5b5051919050565b634e487b7160e01b600052604160045260246000fd5b6000602082840312156103c357600080fd5b815167ffffffffffffffff808211156103db57600080fd5b818401915084601f8301126103ef57600080fd5b8151818111156104015761040161039b565b604051601f8201601f19908116603f011681019083821181831017156104295761042961039b565b8160405282815287602084870101111561044257600080fd5b6104538360208301602088016102cd565b979650505050505050565b634e487b7160e01b600052603260045260246000fd5b60006001820161049457634e487b7160e01b600052601160045260246000fd5b506001019056fea26469706673582212208e907f70463930a4665d4a51eb987a7b3a92925193d85cc79c5c0c3e8406771864736f6c63430008110033",
  "immutableReferences": {},
  "source": "// SPDX-License-Identifier: MIT\npragma solidity 0.8.17;\n\n\ninterface IERC165 {\n    function supportsInterface(bytes4 interfaceId) external view returns (bool);\n}\n\ninterface IERC721 is IERC165 {\n    event Transfer(address indexed from, address indexed to, uint256 indexed tokenId);\n    event Approval(address indexed owner, address indexed approved, uint256 indexed tokenId);\n    event ApprovalForAll(address indexed owner, address indexed operator, bool approved);\n    function balanceOf(address owner) external view returns (uint256 balance);\n    function ownerOf(uint256 tokenId) external view returns (address owner);\n    function safeTransferFrom(\n        address from,\n        address to,\n        uint256 tokenId,\n        bytes calldata data\n    ) external;\n\n    function safeTransferFrom(\n        address from,\n        address to,\n        uint256 tokenId\n    ) external;\n    function transferFrom(\n        address from,\n        address to,\n        uint256 tokenId\n    ) external;\n    function approve(address to, uint256 tokenId) external;\n    function setApprovalForAll(address operator, bool _approved) external;\n    function getApproved(uint256 tokenId) external view returns (address operator);\n    function isApprovedForAll(address owner, address operator) external view returns (bool);\n}\n\ninterface IERC721Metadata is IERC721 {\n    /**\n     * @dev Returns the token collection name.\n     */\n    function name() external view returns (string memory);\n\n    /**\n     * @dev Returns the token collection symbol.\n     */\n    function symbol() external view returns (string memory);\n\n    /**\n     * @dev Returns the Uniform Resource Identifier (URI) for `tokenId` token.\n     */\n    function tokenURI(uint256 tokenId) external view returns (string memory);\n}\n\ninterface IERC721Enumerable is IERC721Metadata {\n    /**\n     * @dev Returns the total amount of tokens stored by the contract.\n     */\n    function totalSupply() external view returns (uint256);\n\n    /**\n     * @dev Returns a token ID owned by `owner` at a given `index` of its token list.\n     * Use along with {balanceOf} to enumerate all of ``owner``'s tokens.\n     */\n    function tokenOfOwnerByIndex(address owner, uint256 index) external view returns (uint256);\n\n    /**\n     * @dev Returns a token ID at a given `index` of all the tokens stored by the contract.\n     * Use along with {totalSupply} to enumerate all tokens.\n     */\n    function tokenByIndex(uint256 index) external view returns (uint256);\n}\n\n\n\ncontract TokenHelper {\n\n    constructor(){\n\n    }\n\n    struct TokenInfo{\n        uint256 tokenId;\n        string tokenURI;\n    }\n    \n    function getOwnerTokens(address contractAddress, address owner) external view returns(TokenInfo[] memory){\n        IERC721Enumerable nft = IERC721Enumerable(contractAddress);\n        uint256 tokenCount = nft.balanceOf(owner);\n\n        TokenInfo[] memory tokens = new TokenInfo[](tokenCount);\n        for (uint256 i = 0; i < tokenCount; i++) {\n            uint256 id = nft.tokenOfOwnerByIndex(owner, i);\n            string memory uri = nft.tokenURI(id);\n            TokenInfo memory info = TokenInfo(id,uri);\n            tokens[i] = info;\n\n        }\n\n        return tokens;\n    }\n}",
  "sourcePath": "/Users/shivam/github/contracts-upgradable/contracts/TokenHelper.sol",
  "compiler": {
    "name": "solc",
    "version": "0.8.17+commit.8df45f5f.Emscripten.clang"
  },
  "schemaVersion": "3.4.7",
  "updatedAt": "2023-11-25T08:17:58.457Z",
  "devdoc": {
    "kind": "dev",
    "methods": {},
    "version": 1
  },
  "userdoc": {
    "kind": "user",
    "methods": {},
    "version": 1
  }
}